:020000040000fa
:080000000002040000000000f2
:020000040000fa
:100400002f8620000e7f24000e01880000000000cf
:100410000c000700a08a2000010020001100070046
:10042000000020000000e000020032000000020096
:1004300000000000c4080200000000000040da00d4
:100440000000fe004440a900e00720000000e0009a
:100450000300320000002000a00188004440a800f2
:100460000000060091018800800078000000eb0089
:1004700015003700e280400032a0b4009101ba00bc
:10048000e280400032a0b4009102ba00e280400055
:1004900032a0b4000002eb00472bde00f507b200eb
:1004a000602ce10004003a000059eb008301e900f0
:1004b000fdff3e00040037006128e100010032002a
:1004c0000082eb00040007001101ba000200e00006
:1004d000e8ff3a00000006003159ba008301e90044
:1004e0000c0032002159ba008301e90008003200f3
:1004f0000400e00003003a00e280400032a0b400b3
:10050000f5ff370011d9ba008301e900faff3a007c
:100510008100e800e180400032a0b4000000060045
:080520000040da000000fe00bb
:020000040000fa
:0200000401f009
:04000000ffff0000fe
:020000040000fa
:0200000401f009
:04000400ffff0000fa
:020000040000fa
:0200000401f009
:04000800ffff0000f6
:020000040000fa
:0200000401f009
:04000c00f8ff0000f9
:020000040000fa
:0200000401f009
:040010003bff0000b2
:020000040000fa
:0200000401f009
:0400140067ff000082
:020000040000fa
:0200000401f009
:0400180098ff00004d
:020000040000fa
:0200000401f009
:04001c00ddff000004
:020000040000fa
:1000080090020000900200009002000090020000a0
:100018009002000090020000900200009002000090
:100028009002000090020000900200009002000080
:100038009002000090020000900200009002000070
:020000040000fa
:020000040000fa
:100528000d0a0000204800006f6c000061210000e7
:10053800200a000000410000000d0000202e0000ed
:100548002e2e0000205500004152000054200000cb
:100558005465000073740000204f00004b20000019
:100568002e2e00002e2000000a0000000d200000a2
:100578005072000065730000696f00006e61000032
:10058800207500006e6100002074000065630000a3
:100598006c610000200a0000000d000020540000db
:1005a800656300006c610000205000007265000067
:1005b800736900006f6e000061640000613a00001a
:1005c800200000000d0a00002041000064690000be
:1005d8006f7300002120000000000000424300006b
:1005e8004445000046470000484900004a4b0000c7
:1005f8004c4d00004e4f000050000000313200000a
:100608003334000035360000373800003931000037
:0c061800303100003131000032000000e1
:020000040000fa
:100624000000fa00a000200001002000530207008f
:100634000000eb000080fa00000006000400fa004d
:10064400004f780011479800f5ff07000004e00010
:10065400fdff3a001e4090000004e000020032005a
:10066400cd62a80001003700cd62a900d0c2a90064
:10067400d0e2a900d102a900d122a9001e4078002d
:100684008040eb00214798000004e00002003d0098
:1006940010c0b30020479800ae40900061c06000d5
:1006a4004601dd00412d200091407800f0cbb300dd
:1006b40000c0600002407000d4e2b7001e80fb005e
:1006c4004600de00614060006140600061406000ff
:1006d400c700dd00d4c2bf000074a1000140700057
:1006e400d4e2b7001e80fb004500de0061406000dc
:1006f400614060006140600061416000512d200054
:1007040091407800e0cfb30000c060000240700068
:10071400d5e2b7001e80fb004400de0061406000ab
:100724006140600061406000614060000041400041
:10073400512d200091407800d0cfb30000c060005c
:1007440002407000d5e2b70000000000cd42a800ce
:10075400100020000100200008020700cd42a9007b
:100764001e80fb004300de006140600061406000c9
:1007740061406000614060004601dd00412d2000c1
:1007840091407800f0cbb30000c0600002407000dc
:10079400d4e2b7001e80fb004200de00614060002e
:1007a4006140600061406000c700dd00d4c2bf004a
:1007b4000074a10001407000d4e2b7001e80fb0069
:1007c4000000d10061406000614060006140600051
:1007d40061416000512d200091407800e0cfb300ca
:1007e40000c0600002407000d5e2b7009e4078006f
:1007f40061c0600061406000614060006140600071
:1008040000414000512d200091407800d0cfb3002a
:1008140000c0600002407000d5e2b7000000000094
:10082400cd42a8001000200001002000d3010700e1
:10083400cd42a9000080fa00000006000200fa0080
:100844000040eb00004f7800030037002000200038
:10085400f00107001e4fe80070c0b3009e4f100067
:10086400faff360010c0b30060e8b700d4c2a90094
:10087400d4e2a900d502a900d522a900cd62a9001d
:10088400cd42a900d0c2a900d0e2a900d102a9009a
:10089400d122a900c962a900c942a900d502a800b1
:1008a400d522a8000040eb00004f78000700370075
:1008b400cd42a80020002000d6010700cd42a900a7
:1008c40020002000d30107001e4fe80020c0b30021
:1008d4009e4f1000f6ff3600d522a900cd42a80095
:1008e4001000200001002000a4010700cd42a9004f
:1008f4008040eb0080c2b30050ff070020002000be
:10090400c40107008040eb0010c0b3004bff070098
:1009140020002000bf0107008040eb0060c0b3004e
:1009240046ff07008040eb00c0c0b30043ff070050
:100934000080fa00000006000400fa00004f78006e
:100944001e80fb00100798001e009000ea0f500064
:100954000c0032001e009000ec0f50000100320029
:10096400100037008040eb0010c0b30033ff0700d5
:1009740010c0b30060e8b70020002000a501070004
:100984000b00370060c8bf000040e80060e8b70013
:10099400018620009140780010c0b30006000700d3
:1009a4000300370011c0b3001e40780023ff070086
:1009b4000080fa00000006000600fa0020479800b4
:1009c400314798003e4090000080fb0020079800cb
:1009d4002e009000e10f5000040032002e00900021
:1009e400e20f5000060032000a00370000c8b300ce
:1009f400004f780010c0b30060e8b700090037006a
:100a040000ccb300004f780020c0b30060e8b7000a
:100a14000400370000c8b300004f780010c0b300d2
:100a240060e8b7002e4090001e4040000040e900fe
:100a3400004f7800fafe07000004e000fdff3a00d2
:100a440000c8b3001e4070008040eb00fbfe0700ae
:100a54000080fa00000006000200fa00000f78008f
:100a6400040037001e007800104078001e0fe800d4
:100a7400b1ff07001e007800104078000004e00079
:100a8400f8ff3a000080fa00000006000000fa00b7
:100a94006aff07008040eb0000c8b300e7fe0700d0
:100aa40011c0b30010c4b300e4fe0700202f2800d7
:100ab400e9ff07008040eb0000ccb300dffe070035
:100ac40020302800e4ff07000080fa000000060040
:100ad4000000fa0090012000401188008560a90000
:100ae4008580a90023a2a90023e2a90023c2a900aa
:100af4002362a9002342a90022c2bf00f043b2002e
:100b040022e2b70022a2a9002222a90021e2a90020
:100b140021a2a9002182a9002162a900112220009a
:100b240091407800c0cfb30000c0600021e2b7005c
:100b340020e2a80020c2a90020a2a9002082a900c6
:100b44002062a900012220009140780090cfb300d8
:100b540000c0600020e2b7002002a90021e2a80042
:100b64002342a8000080fa00000006000600fa00f4
:100b740010079800020037001e407800120007009a
:100b84001e00900010407800004f78001e4078004e
:100b9400404798004e4090000004e00002003200fc
:100ba40010c0b300404798004e4090009e00900053
:100bb4008100e800110798000004e000eeff3a000d
:100bc4000080fa00000006000200fa00004f7800de
:100bd40023c2bf00614060000004e000fcff32005b
:100be4001e80fb00201188000080fa00000006002f
:100bf4000200fa0085c0bf00684060000004e00005
:100c0400fcff320030118000004f78008560a9009d
:100c14001e4078000080fb000080fa0000000600ff
:100c24000400fa00204798002e409000004f7800fe
:100c34002e4090000080fb004400de006f40600006
:100c4400204798002e4090008080fb000085200003
:100c54000080400010407800dbff07009e407800d1
:100c64006fc06000204798002e4090008080fb00f9
:100c7400008520000080400010407800d2ff07006b
:100c84000080fa00000006000200fa00004f78001d
:100c94001e80fb00a2002000110009000280d80081
:100ca4008080fb0000852000008040001040780018
:100cb400c5ff07001e80fb00a200200011000900f0
:100cc4000280d8008000fd008080fb0000852000a9
:100cd4000080400010407800bbff07000080fa004d
:100ce400000006000200fa000040eb00004f78000c
:100cf4000300370010c4b300b3ff07001e4fe80021
:100d040090c0b3009e4f1000faff3600402928001f
:100d140096ff0700f0292800c1ff070020c3b30095
:100d2400d9ff0700102a280090ff0700a02b2800f5
:100d34008eff0700aeff0700004f7800102d28003b
:100d44008aff07001e4078009fff0700602e2800de
:100d540086ff07000080fa00000006000000fa0089
:100d64000800070015000700470007000b010700f3
:100d7400bf000700b1fe070055ff07000080fa001e
:100d8400000006000000fa004107a90040a7a900de
:100d94004580a90044e0a90044c0a90044a0a900da
:100da4004480a9004460a9004440a9004420a8004c
:100db4004400a8000080fa00000006000000fa00c9
:100dc400113a8000f00b20000081600061042000d3
:100dd4007005200023742000814978008049780040
:100de40082497800416d20009140780000ceb30024
:100df40000c060003040b300d4e6b700416a200070
:100e04009140780000ceb30000c060005041b300b0
:100e1400a4e6b700113a80000004200000817000ad
:100e240061042000700520002374200081497800ab
:100e3400804978008249780020002000001688004c
:100e4400f0202000401688007002200080168800e0
:100e5400d4c2a900d4e2a900d502a900d522a900d0
:100e6400cd42a900cd62a900cd82a800c022a8006d
:100e7400c802a800c822a800c842a800c862a800e6
:100e84000080fa00000006000000fa00317420001f
:100e940091407800f0c8b30000c0600043e7b70099
:100ea400317420009140780080cfb30000c060000e
:100eb4000004a00043e7b70042e7a90042c7a90025
:100ec4004227a90045e7a900517420009140780009
:100ed400f0c8b30000c0600045e7b7004567a9004b
:100ee400517420009140780080cfb30000c06000ae
:100ef40045e7b700417420009140780000ceb3006c
:100f040000c060006040b30044e7b700313a80009d
:100f140000e02f0000806000e10920000100700063
:100f2400303a8800417420009140780000ccb3002e
:100f340000c0700044e7b70081742000914078003d
:100f440000ccb30000c0600048e7b7004ba7a9007d
:100f5400b17420009140780070ceb30000c06000ee
:100f64004be7b7004bc7bf007040b3004be7b70077
:100f74004ae7a8000080fa00000006000800fa0012
:100f84002007980031079800ae00900080022000ee
:100f94000009b8002e0090006000b9000302780038
:100fa40000024200be009000800220000088b900c8
:100fb40000024200840178000200be00008fbe00df
:100fc4001e01be0040fd2f00f1ff2f000200400073
:100fd40083804800008fbe001e00be00e00f50005a
:100fe400e08f580009003400040037001e00be00e2
:100ff4006b005000e0805800008fbe001e00be0051
:10100400e00f5000e08f5800f8ff3c000080fa0029
:10101400000006000400fa00100798000c003700d6
:1010240040c0b300004f7800030037009001200057
:1010340001002000d1ff07001e4078000040e900b5
:10104400004f78001e407800e14f4000f7ff3a005f
:101054001e0090000000e900100798001e00900098
:10106400e10f4000eeff3a000080fa0000000600a5
:101074000000fa0021e3a90021a3a9002183a8000c
:101084002143a8001132200091407800c0cfb30062
:1010940000c060000004a00021e3b70020c3bf002b
:1010a4007f40600020e3b7002063a9002043a9002b
:1010b4002023a90023c3bf007f40600023e3b700bf
:1010c4002343a900213220009140780030ccb300a2
:1010d40000c060000024a00022e3b7002223a9007e
:1010e4002203a90025e3a800513220009140780092
:1010f40000ceb30000c060000004a00025e3b700e8
:1011040029e3a800913220009140780000ceb3007a
:1011140000c060000004a00029e3b70028e3a80091
:10112400813220009140780000ceb30000c06000fe
:101134000004a00028e3b700101c200080198800d8
:10114400101c2000601988000080fa0000000600ce
:020000040000fa
:1011540060080000020000000000000050080000c9
:10116400100000000200000030313200333435003a
:1011740036373800394142004344450046000000f8
:041184000000000067
:020000040000fa
:101188000000fa00f4fe0700cd82a9003efe070029
:101198000080fa00000006000000fa000080fa0053
:0411a800000006003d
:00000001FF
