:020000040000fa
:080000000002040000000000f2
:020000040000fa
:10040000cfad20000e7f22000e018800000000000a
:100410000c00070020ac23000100200011000700a1
:10042000000020000000e000020032000000020096
:1004300000000000de360200000000000040da008c
:100440000000fe004440a900c05220000000e0006f
:100450000300320000002000a00188004440a800f2
:100460000000060091018800800078000000eb0089
:1004700015003700e280400032a0b4009101ba00bc
:10048000e280400032a0b4009102ba00e280400055
:1004900032a0b4000002eb00472bde00f507b200eb
:1004a000602ce10004003a000059eb008301e900f0
:1004b000fdff3e00040037006128e100010032002a
:1004c0000082eb00040007001101ba000200e00006
:1004d000e8ff3a00000006003159ba008301e90044
:1004e0000c0032002159ba008301e90008003200f3
:1004f0000400e00003003a00e280400032a0b400b3
:10050000f5ff370011d9ba008301e900faff3a007c
:100510008100e800e180400032a0b4000000060045
:100520000040da000000fe000a00fa0080017800b6
:10053000e20f500028003e00d0568000e10f50002e
:1005400008003200802320000000e0000500320097
:10055000042320002523200046232000800178006a
:10056000040037000422200025222000462220001b
:1005700083222000144090000004e00004003500b5
:100580008009eb00144090000074a0001042980015
:10059000154090000028a30003003a001540900089
:1005a0000024a000904298008001eb000700370073
:1005b000154090000008a300fdff320063c07800e2
:1005c0000000fb00000b78008301e800828f5100df
:1005d000f7ff3a000800370030002000b0bf9f004e
:1005e000c3bf9f00d1bf9f00e2bf9f006a8057003a
:1005f00000c0da006fb99700020078000080fa00ae
:1006000000000600881f7800000478005001be003a
:100610004000be00040040008580480006014900fb
:1006200087814900009cbe000294be000400e100e6
:100630000588e1000690e1000798e1000200310022
:10064000680044001008e8004f047800000006002d
:10065000f4874700889fbe008a9fbe008c9fbe0023
:100660008e1f78000205be000004be00d4b79f00b4
:10067000e5b79f00f6b79f0087bf9f000000eb0023
:10068000c0b79f00b0b79f00a0b79f0090b79f0072
:1006900080b79f000d042000bfb097004fb09700b7
:1006a000000140000000e0000f003d004f08de00a8
:1006b00000007100c0b79f009e00070001003d00d0
:1006c00012002000a100070001003d0012002000e0
:1006d000a6000700b1000700b60007000f004000a9
:1006e000c8ff0700220037004f08de000006710037
:1006f000ccb79f008f00070001003d0012002000d2
:100700009200070001003d00120020009700070042
:10071000a20007000fb297009fb297002fb3970077
:10072000bfb39700a90007000000520081805a0063
:1007300002015b0083815b0080b79f0091b79f003f
:10074000a2b79f00b3b79f000007eb009f00070010
:100750000020e10001a8e10002b0e10003b8e100df
:10076000010031001e0020000e005600c0b79f009f
:100770004fb297000400e000070035001000200091
:10078000010020006011b800080470008984700026
:100790000a0571008b8571008d06e900beff3a00e5
:1007a0000400e00003003d00820007000f0040004d
:1007b00094ff07004fa897000000e00004003a00f3
:1007c0000fb497009fb497002fb59700bfb597005f
:1007d000940007004f0778004f06be004f05be008b
:1007e0004f04be004f01b10000000600881f7800d2
:1007f00018002000881f780095ff07008f87e90008
:100800004f04780000000600801feb0090ff0700f7
:100810008f87e90000000600889fbe008a9fbe0007
:100820008c1f78006e00070007003d007300070072
:10083000e00f5b00e08f5b0007003d003200070027
:100840000006eb00040037003400070002003d0002
:100850002a0007001c00200072000700e3ff0700c9
:100860000203be000002be000c00e00001003200e6
:10087000220007000400be000601be004f067800fb
:100880004f05be004f04be0000000600889fbe005a
:100890008a9fbe008c1f78005100070005003d00b4
:1008a00056000700e00f5b00e08f5b0006003d0094
:1008b000040037001900070003003d006000b80085
:1008c0006011b8001000070056000700ceff0700b7
:1008d0000203be000002be000c00e0000100320076
:1008e000060007000400be000601be004f067800a7
:1008f0004f05be004f04be00000006006000b800b7
:100900006011b800000037000402500085825800d2
:100910000603590087835900000006000006eb001b
:10092000e00f5200e08f5a00e00f5b00e08f5b00a9
:10093000000006000180400090b79f000001eb001e
:100940008fb097000100e000000006000200700078
:1009500090b79f000180400080b79f000001eb002e
:10096000ffa897000100e0000000060002007000f0
:1009700080b79f00018040006faa9700cf20de0063
:1009800001007000f0af9f00040242002500070044
:100990004f18de000002720000000600e4af9f0066
:1009a0000804440089844c000a054d008b854d00e5
:1009b000000006003fb29700cfb297005fb39700e8
:1009c000efb3970000fe2f00000006003fb0970035
:1009d000cfb097005fb19700efb19700000006001d
:1009e0000205be000004be00e00f5000e08f58007a
:1009f000e00f5900e08f5900000006006000b800c9
:100a00006011b80008045000898458000a05590094
:100a10008b8559001c002000e00f5200e08f5a0027
:100a2000000006000800be000a01be00000006002b
:100a30000000fa00cfb8970068815700c0ab2000d3
:100a4000930007000080fa00000006000000fa0092
:100a5000cfb8970068815700c0ab20008c0007001a
:100a60000080fa0000000600889fbe0000017800a8
:100a700001047800b10090000118a3003d0032008d
:100a80000198a30003003a00180090000000e00065
:100a900038003a000190a0003104980082047800e8
:100aa000f90fb200180090000000e00002003a00c8
:100ab00028009000000c7800ea8f540006003a00ed
:100ac000380090000078a30003003a008800780006
:100ad000d0002000e4ff070098009000580090002c
:100ae000808f50000b0032000100e80010049800d5
:100af0001800780009587800000c780011c0b30085
:100b000080ad200001487800ea8f540006003200d2
:100b100019003700880078000940780019000700a4
:100b20008004780014003700380090000088a3008b
:100b30001100320018019000a800900048009000b9
:100b400079fe070098009000810f500004003200e9
:100b5000380090000003b300300498008084eb005c
:100b60000000eb001004980028009000000c7800b2
:100b7000010037008084eb00090078004f04be00bc
:100b8000000006000200fa00889fbe00a0ff9f0040
:100b900001047800b1009000810478000904b200db
:100ba000020032000000fb00360037000118a300ed
:100bb00005003a000103b3003104980019049800bd
:100bc0000080eb002f003700580090000000e0008c
:100bd00006003a004800900012002000e68057000e
:100be00051fe0700190498002400370028009000e7
:100bf0000000e00008003a0040ad2000200498000a
:100c0000000c780020002000500498001004980088
:100c10000130a0003104980018019000a800900055
:100c20004800900040fe070028009000000c78006b
:100c30000080eb001004980018007800aff89700cf
:100c400001587800000c78002ff89700ea4f500008
:100c50000a003a00380090000088a3000700320024
:100c600018019000a8009000480090002efe070098
:100c700019049800a8009000010c7800aff89700c4
:100c80000100fb004f04be000080fa0000000600d7
:100c9000fe874700889fbe008a9fbe008c9fbe00d3
:100ca0008e1f7800f0b79f000107780082bf9f0079
:100cb0000000eb00a0b79f009f0237008006eb000a
:100cc00050c2b30080cf5000090032000100fb0089
:100cd000ffb0970064ff0700e10f4000960232006a
:100ce000afb097008100e800a1b79f0092023700e3
:100cf0009e407800d0c2b30080cf50000c0032007c
:100d000007003c006d40500080cf50000a003200c8
:100d10006b40400080cf50000e003a0008003700c2
:100d200000c3b30080cf50000a003a00060037002d
:100d30000d30a000050037000d00a00003003700b3
:100d40000d10a000010037000d20a0000e07e800e4
:100d5000e7ff37000d18a300010032000d00a100cd
:100d60000d38a300010032000d20a1000100fb009e
:100d700002fd2f0002004000e90f50000e003e006f
:100d80000002eb00c4b79f0082017800cfb2970049
:100d90006a28b9001e01fb00000141000301410067
:100da000c2b79f005e00fb0003004000e90f500047
:100db0000b003e00f5ff37000006eb00ccb79f00ac
:100dc000a0c2b30080cf500005003a000fb89700d2
:100dd000c000780080bf9f00c1b79f000e07e800e9
:100de0000001eb00b2b79f00e0c2b3009e4f1000bd
:100df00018003a000de0a0008e00e80064405000aa
:100e0000914f100002003200010778000c003700fb
:100e10000fba9700c402780084bf9f00b5b79f0047
:100e20000e87e8000b0037003fb697006a60b900f4
:100e30000000410003004000b0b79f000e07e8002b
:100e40001e01fb0003fd2f0003004100e90f5000cd
:100e5000f5ff3600be407800e1d79f00c0c6b30062
:100e600080cf5000220032000f003c00694050004b
:100e700080cf50007700320004003c000104e00005
:100e8000310232006b4050000f00370040c6b30003
:100e900080cf5000930032006540400080cf50006a
:100ea0008b003a008f00370030c7b30080cf50006e
:100eb0001a00320007003c006440500080cf500010
:100ec000110032000040e80080cf500080003a005e
:100ed0000f00370050c7b30080cf500080003200b1
:100ee0006340400080cf500079003a00090037008d
:100ef000000028000d48a30001003a000001200076
:100f000080867600d3ff37000d60a00075003700a3
:100f10000d50a0000d70a000720037008fb8970030
:100f20004100780081bf9f00000478000000e000cd
:100f300001003a0048a820008004eb0001003700bf
:100f40008104e80089007800088044001004e00073
:100f5000fbff3a003fb197000200e00003003200bf
:100f6000890f510001003100820478000002eb007b
:100f7000e4af9f00cfb29700898f52000200360085
:100f800009805200e0af9f004368de00e106600088
:100f90001b003a000d06780009003700ffb09700eb
:100fa00000022000b0fe0700e10f40000300320005
:100fb0002fb097000000e800a0b79f000c06e800e3
:100fc000efa89700810f5600f4ff3a000081eb0074
:100fd000e2af9f000a003700880078003100fb0074
:100fe00001047800ffb097009ffe0700e10f40006a
:100ff000030032002fb297000402e800a4b79f005c
:101000000900e90080047800e10f4000f2ff3a0097
:101010000006eb000d00e0000a003a00c6013700b0
:10102000ffb09700000220008ffe0700e10f400094
:1010300003003200afb297008502e800a5b79f0019
:101040000c06e8006fa89700800f5600f4ff3a00e6
:10105000b90137008fb897004100780081bf9f0029
:10106000cf80de0001017800820178000205be0019
:101070000004be000203be000002be004822de00e3
:10108000482edd0004027600e4d79f000d48a3003f
:101090000a0032000404e00008003200e14f420080
:1010a0000600320071fd2f000180470004487800df
:1010b000184098002900200002003700f0d79f0058
:1010c0001900200072fd2f0002844700a1ff3700a5
:1010d00064fd2f0004844700190020009dff3700a5
:1010e0000d0cb3000d007800000cb20028003a008f
:1010f0000d00e00005003d008fba97004505be00d9
:101100004504be0085bf9f00140037000d48a300b2
:101110000b0032000fbe97004c00be008cbf9f003a
:101120004f89de00cf91de000002be00020378008e
:10113000820378000605be000404be0007003700e5
:101140008fb897004100780081bf9f0000047800ad
:10115000cfc4de00090578008a057800e00f54004e
:10116000e08f5c00e00f5d00e08f5d001f003d0040
:101170003d00b3006000b8006011b80008045000e2
:10118000898458000a0559008b85590017003700db
:101190000d00e00005003d000fb997004205be00bc
:1011a0004204be0082bf9f00100037000d48a3001c
:1011b000070032000fba97004400be0084bf9f00b2
:1011c0006011b8000205be000004be000700370031
:1011d0008fba97004500780085bf9f000004780013
:1011e000090020000a0020000b0020003fb69700f5
:1011f0000c00e00007003a00e00f5400e08f5c00b4
:10120000e00f5d00e08f5d0002003a00100020005a
:10121000b0b79f008d007800010cb200e1b79f00cd
:1012200000042000808f50003000320003003c009a
:101230000100e000080032004000370000082000f4
:101240006fb19700800f510014003200000c200095
:10125000800f510039003a0014c0b300459e2000b1
:101260000b0037000400fb004300dd0005004000d8
:101270005001be004000be000040e10001c8e10096
:1012800002d0e10003d8e1002b0039000442e8005d
:10129000f44f5200f3ff3a0027003700000120000e
:1012a000010020006011b80014c0b3000040e1004c
:1012b00001c8e10002d0e10003d8e1001e003900be
:1012c000450020000000d0008180d2000281d200c1
:1012d0008381d2008502e900faff3a000442e80067
:1012e000f04f5200f1ff3a00130037008000200059
:1012f000010020006011b80014c0b3000040e100fc
:1013000001c8e10002d0e10003d8e1000a00390081
:101310003c0020000000d0008180d2000281d20079
:101320008381d2000c06e900faff3a000442e8008b
:10133000f54f5200f1ff3a00e4d79f00efd097003d
:101340000100fb003fb19700820f500002003d00fa
:10135000e2d79f00040037003fb29700800f520091
:1013600001003d00b0b79f00cfb297000500e0003c
:101370000400320063806600020032008502e9004a
:10138000c5b79f000de8a3000b0032004fb69700d1
:101390003fb09700800f560003003c008000eb0038
:1013a000c1b79f00040037004fb197003fb29700cc
:1013b00004015100c2b79f00efd297000500fb0067
:1013c0000006eb00dcaf9f00cfb09700808f50008d
:1013d0000200340000805000d0af9f000d28a30011
:1013e00037003200e18066000d18a3000c003200c7
:1013f000d00220000100e00001003a000080e90076
:10140000ffb0970098fd0700e10f40000e0032008a
:101410002fb197000201e800a2b79f000a00370031
:101420000100e00008003200ffb097000002200039
:101430008dfd0700e10f4000030032002fb297003e
:101440000402e800a4b79f00dfaa97000500e000af
:101450000f0032000006eb00ffb0970000032000f1
:1014600081fd0700e10f4000030032002fb097001c
:101470000000e800a0b79f000c06e800dfa8970076
:10148000810f5600f4ff3a000001eb00d2af9f003d
:101490003fb29700c320dd00c09d20008080400047
:1014a00091b79f004220dd006400500080b79f008c
:1014b0006320b900f0af9f0063065000840037003e
:1014c000dfaa97000500e000110032006880660086
:1014d0000f003a0000067800ffb0970000022000dd
:1014e00061fd0700e10f4000030032002fb09700bc
:1014f0000000e800a0b79f000c06e800dfa89700f6
:10150000810f5600f4ff3a000001eb00d2af9f00bc
:10151000e18066000d18a3000c003200d00220000c
:101520000100e00001003a000080e900ffb09700f0
:101530004dfd0700e10f4000d5ff32002fb29700ac
:101540000402e800a4b79f00d1ff37000100e000cb
:10155000cfff3200ffb097000002200042fd0700dd
:10156000e10f4000caff3200afb297008502e800e9
:10157000a5b79f00c6ff370000042000efb097001a
:10158000808f50003100320003003c000100e00079
:10159000080032003e003700000820006fb19700bd
:1015a000800f510011003200000c2000800f51000c
:1015b00037003a001fb097003002be002003be0083
:1015c0000800be000a01be0088fc0700a40020003d
:1015d000050020006033b8008bfc070004c3b30093
:1015e00004424000e4d79f0029003700b5a820003e
:1015f000d5b79f000d58a30002003a00c0a92000f3
:10160000d0b79f0014002000050020006033b80010
:101610008fb097008100e900050033000402d0007c
:101620008582d2000683d2008783d200f9ff37007b
:101630000800be000a01be006cfc07006f006000dd
:101640005fb197006240780010003700140020005e
:10165000050020006033b8000c0078000000e900ad
:10166000050033000402d0008582d2000683d20038
:101670008783d200f9ff37000800be000a01be00d0
:101680005afc0700674060000043b000e0d79f00ad
:10169000efd097000100fb00ffb09700f2fc0700bd
:1016a000e10f4000030032002fb197000201e80073
:1016b000a2b79f001fb297006802520094b79f0024
:1016c0008fb29700e482520085b79f0063065600f0
:1016d000d0ff2f003fb197000090b9007faa97007c
:1016e0000000420063005000800f5600a2ff3a0045
:1016f0000d38a30010003200dfaa97000500e000bb
:101700000d0034000006eb00ffb09700000220003f
:10171000d5fc0700e10f4000030032002fb0970016
:101720000000e800a0b79f000c06e800dfa89700c3
:10173000810f5600f4ff3a00be407800e1d79f00c9
:101740000104e0005dfd3a002fb097004f077800dc
:101750004f06be004f05be004f04be00ef01b100b2
:04176000000006007f
:020000040000fa
:020000040001f9
:0457f00059ff00005d
:020000040000fa
:020000040001f9
:0457f400fffc0000b6
:020000040000fa
:020000040001f9
:0457f8005f780000d6
:020000040000fa
:020000040001f9
:0457fc00603e00000b
:020000040000fa
:1000080090020000900200009002000090020000a0
:100018009002000090020000900200009002000090
:100028009002000090020000900200009002000080
:100038009002000090020000900200009002000070
:100048009002000090020000900200009002000060
:100058009002000090020000900200009002000050
:100068009002000090020000900200009002000040
:10007800fe3d000090020000900200009002000087
:100088009002000090020000900200009002000020
:100098009002000090020000900200009002000010
:1000a8009002000090020000900200009002000000
:1000b80090020000900200009002000090020000f0
:1000c80090020000900200009002000090020000e0
:1000d80090020000900200009002000090020000d0
:1000e80090020000900200009002000090020000c0
:1000f80090020000900200009002000090020000b0
:10010800900200009002000090020000900200009f
:10011800900200009002000090020000900200008f
:10012800900200009002000090020000900200007f
:10013800900200009002000090020000900200006f
:10014800900200009002000090020000900200005f
:10015800900200009002000090020000900200004f
:10016800900200009002000090020000900200003f
:10017800900200009002000090020000900200002f
:10018800900200009002000090020000900200001f
:10019800900200009002000090020000900200000f
:1001a80090020000900200009002000090020000ff
:1001b80090020000900200009002000090020000ef
:1001c80090020000900200009002000090020000df
:1001d80090020000900200009002000090020000cf
:1001e80090020000900200009002000090020000bf
:0801f8009002000090020000db
:020000040000fa
:10020800900200009002000090020000900200009e
:10021800900200009002000090020000900200008e
:10022800900200009002000090020000900200007e
:10023800900200009002000090020000900200006e
:10024800900200009002000090020000900200005e
:10025800900200009002000090020000900200004e
:10026800900200009002000090020000900200003e
:10027800fe3d000090020000900200009002000085
:10028800900200009002000090020000900200001e
:10029800900200009002000090020000900200000e
:1002a80090020000900200009002000090020000fe
:1002b80090020000900200009002000090020000ee
:1002c80090020000900200009002000090020000de
:1002d80090020000900200009002000090020000ce
:1002e80090020000900200009002000090020000be
:1002f80090020000900200009002000090020000ae
:10030800900200009002000090020000900200009d
:10031800900200009002000090020000900200008d
:10032800900200009002000090020000900200007d
:10033800900200009002000090020000900200006d
:10034800900200009002000090020000900200005d
:10035800900200009002000090020000900200004d
:10036800900200009002000090020000900200003d
:10037800900200009002000090020000900200002d
:10038800900200009002000090020000900200001d
:10039800900200009002000090020000900200000d
:1003a80090020000900200009002000090020000fd
:1003b80090020000900200009002000090020000ed
:1003c80090020000900200009002000090020000dd
:1003d80090020000900200009002000090020000cd
:1003e80090020000900200009002000090020000bd
:0803f8009002000090020000d9
:020000040000fa
:1017640020b200002020000020b200002020000051
:10177400b2200000b2200000202000002020000041
:10178400b2200000b20d00000ab2000020b2000036
:1017940020b2000020b200002020000020b200008f
:1017a40020200000b220000020b200002020000011
:1017b4000d0a0000b220000020b20000202000002a
:1017c400b2200000b2200000b220000020b20000cd
:1017d40020200000b2200000b20d00000ab2000078
:1017e40020200000b220000020b2000020b200003f
:1017f40020200000b2200000b2200000b22000002f
:1018040020b200000d0a0000b220000020b2000047
:1018140020200000b2200000b220000020200000a0
:10182400b2200000b220000020200000b20d000011
:101834000a200000202000002020000020200000ba
:101844002020000020200000202000002020000094
:1018540020200000202000000d0a0000b2b2000089
:10186400b220000020b20000b2b20000b20d0000ad
:101874000ab2000020200000b2200000b2200000c4
:10188400202000000d0a0000b220000020b2000059
:1018940020b20000b2b20000b20d00000ab2000093
:1018a40020200000b2200000b22000002020000010
:1018b4000d0a0000b2b20000b220000020b2000005
:1018c400b2b20000b20d00000a2000002020000087
:1018d4002020000020200000202000000d0a00002d
:1018e400536900006d7000006c650000205000001a
:1018f4003250000020440000656d00006f000000bd
:101904000d0a000053740000617200007469000045
:101914006e670000204e00006f6400006520000028
:10192400312000006f66000020530000696d000044
:10193400706c000065200000446500006d6f0000bd
:10194400206600006f720000204d000069570000ff
:1019540069280000544d0000292000005032000086
:101964005020000053740000616300006b200000ed
:101974002e2e00002e0000000d0a0000496e00000b
:101984007075000074200000436f00006e66000054
:10199400696700007572000061740000696f0000df
:1019a4006e3a0000000d00000a2000002020000014
:1019b4002020000020200000202000002020000023
:1019c40042750000747400006f6e00003a2000003d
:1019d4005242000031350000000d00000a4f0000a3
:1019e400757400007075000074200000436f0000df
:1019f4006e66000069670000757200006174000083
:101a0400696f00006e3a0000000d00000a2000001b
:101a140020200000202000002020000020200000c2
:101a2400202000002020000020520000533200003b
:101a340033320000207000006f7200007400000058
:101a44000d0a0000202000002020000020200000bb
:101a54002020000020200000202000002020000082
:101a64004c450000443a000020520000423100007e
:101a7400340000000d0a0000202000002020000097
:101a8400205200004620000054720000616e0000e5
:101a9400736300006569000076650000723a000017
:101aa400204d000052460000383900005841000023
:101ab400004300006f6e00006e20000050650000bf
:101ac4006572000020430000686100006e6e000033
:101ad40000250000640000000d0a0000436f0000b0
:101ae4006e6e000065630000746900006e6700009c
:101af4002050000065650000722000006f6e000039
:101b040020430000686100006e6e0000656c0000f8
:101b1400200000000d0a0000000d00000a43000030
:101b24006f6e00006e650000637400006564000061
:101b34002050000065650000722000006f6e0000f8
:101b440020430000686100006e6e0000656c0000b8
:101b540020000000536500006375000072650000fa
:101b64006420000000420000726f00006164000005
:101b74006361000073740000205000006163000082
:101b84006b65000074200000776900007468000031
:101b9400205200005353000049200000005500006b
:101ba4006e6900006361000073740000205000003f
:101bb400616300006b650000742000007769000019
:101bc40074680000205200005353000049200000b4
:101bd40000200000667200006f6d0000200000000d
:101be4003a20000000540000583a00002564000028
:101bf40000520000583a000025640000000d000067
:101c04000a530000656c00006563000074690000fd
:101c14006f6e0000206f0000662000006368000003
:101c2400616e00006e6500006c2000000020000062
:101c340069730000206e00006f74000020730000c0
:101c440075700000706f000072740000656400001d
:101c5400206900006e2000006375000072720000ad
:101c6400656e000074200000636f00006e66000063
:101c7400696700007572000061740000696f0000fc
:101c84006e2e00000d0a0000000d00000a55000031
:101c94006e69000063610000737400002046000058
:101ca400616900006c650000640d00000a0000001a
:101cb400556e000069630000617300007420000029
:101cc40046610000696c00006564000000000000cb
:101cd4007800000000000000b400000000000000d4
:101ce4002c010000000000001c02000000000000a5
:101cf400fc03000000000000bc070000000000001e
:101d04003c0f0000000000003c1e0000000000002a
:101d14003c3c0000000000003c7800000000000093
:101d24003cf00000000000003ce000000100000066
:101d34003cc00000030000003c80000007000000dd
:101d44003c0000000f0000000d0a0000496e000076
:101d5400646900007265000063740000206d000077
:101d64006573000073610000676500002065000072
:101d7400787000006972000065640000004400008f
:101d8400617400006120000052650000717500005c
:101d9400657300007420000045780000706900003d
:101da40072650000640d00000a0000000d0a0000c6
:101db400486f000070700000696e0000672000002a
:101dc40043680000616e00006e6500006c20000036
:101dd400746f0000200000000d0a0000537400001e
:101de40061720000742000005769000072650000f1
:101df4006c65000073730000204300006f6d0000e9
:101e04006d7500006e690000636100007469000074
:101e14006f6e0000206f00006e2000004368000019
:101e2400616e00006e6500006c200000000d000073
:101e34000a0000000d0a00000d0a00004d790000a0
:101e440020410000646400007265000073730000a8
:101e54003a200000307800000020000020430000f9
:101e6400686100006e6e0000656c00003a2000009e
:101e7400000d00000a4300006f6e00006e65000054
:101e840063740000696f00006e20000020200000d1
:101e94002020000050650000657200004c6f0000b7
:101ea4006e67000041640000647200006573000006
:101eb4007320000020200000202000005065000056
:101ec40065720000496e0000666f00000d0a000094
:101ed400002000002020000020200000202000001e
:101ee400202000002020000020200000002000000e
:101ef400200000002020000020200000000d000031
:101f04000a0d00000a4300006f6e00006e650000b9
:101f140063740000696f00006e2000002020000040
:101f24002020000050650000657200004c6f000026
:101f34006e67000041640000647200006573000075
:101f440073200000202000002020000050650000c5
:101f540065720000496e0000666f00000d0a000003
:101f6400000d00000a530000636100006e200000b1
:101f740043680000616e00006e6500006c20000084
:101f8400000d00000a4500006e6500007267000045
:101f94007920000053630000616e000020520000ad
:101fa40065730000756c0000747300003a00000053
:101fb4000d0a000043680000616e00006e650000b9
:101fc4006c200000003a0000200000002000000007
:101fd4000d0a000043680000656300006b6900009f
:101fe4006e67000020430000686100006e6e000010
:101ff400656c0000200000000d0a0000526500001e
:10200400737900006e630000687200006f6e000058
:10201400697a000065640000204300006f6e0000d0
:102024006e65000063740000696f00006e2000009c
:10203400746f000020430000686100006e6e0000b1
:10204400656c0000200000000d0a0000486f0000cd
:1020540070700000696e000067200000746f00005b
:1020640020430000686100006e6e0000656c000093
:10207400200000004f4f00004f4f00004f4f000062
:102084004f4f00004f4f00004f4f00004f4f0000d4
:102094004f4f00004f4f00004f4f00004f4f0000c4
:1020a40050500000505000005050000050500000ac
:1020b4005050000022240000262800002a2c000092
:1020c4002e30000032340000373900003b3d000060
:1020d4003f41000043450000474a00004c4e0000c9
:1020e40005070000090b00000d0f0000111400008b
:1020f40016180000360000008402000009040000e5
:10210400090600000c080000c10a00007d0c000054
:10211400640e0000141000000012000000140000ff
:102124000016000038180000c81a00000d1c00003a
:10213400001e000072200000382200003824000035
:102144000726000000280000002a0000692c000077
:10215400812e00007e30000096320000f83400002a
:102164008836000040380000003a0000e83c0000d7
:10217400003e00002a4e000072960000bade000005
:1021840030310000323300003435000036370000af
:102194003839000041420000434400004546000035
:1021a400000100000203000004050000060700000f
:0821b400280c000001060000e8
:020000040000fa
:1021bc000000fa00000000000080fa000000060099
:1021cc001800fa000040eb00404798003000370040
:1021dc004e4090008080fb00000320000088b90076
:1021ec00e60040004096200000804000100078007f
:1021fc00614060000004e000220032006c004700e7
:10220c00b11607006e009000fe0090003007980099
:10221c00410798003e019000ce0190004e40900086
:10222c008080fb00000320000088b900800078004b
:10223c0040962000008040001000be0000015100bc
:10224c008181590000362e0061012000800f510061
:10225c00818f59000b0036004e4090008080fb00af
:10226c00000320000088b900e600400040962000e2
:10227c00808040000040eb008048780060ea280035
:10228c00481507004e4090000040e8004047980079
:10229c004e409000e14f5000cdff360063c9bf00a7
:1022ac00644060000004e00014003200700047003d
:1022bc00851607000e0890009e08900030079800c5
:1022cc00410798003e019000ce019000404e8000e6
:1022dc00514e80000001510081815900f0ff230014
:1022ec0001002000800f5100818f5900030036003f
:1022fc0010ec28002b1507006349a900ad0c070052
:10230c000000e000af0232000040eb002ee9b70005
:10231c00704780004200de00614060006340600056
:10232c000080fb006301600071498000c0ff2f003a
:10233c0000806000020070007049880070478000c7
:10234c004300de00614060000080fb006100600023
:10235c004301dd007149800070ff2f000080600098
:10236c0002007000704988007047800063006000b4
:10237c008040eb0061579800e10f500002003a00da
:10238c0010c0b30060579800ee5090000180fb0025
:10239c00610060004501dd0071498000f0fd2f00f7
:1023ac000080600002007000704988007047800057
:1023bc004700de00614060000080fb0061006000af
:1023cc004601dd0071498000f0fb2f0000806000a9
:1023dc0002007000704988007147800000082000de
:1023ec00008060000000e0000200320080478000a6
:1023fc0090498800f4c8bf0036e9b70090478000c8
:10240c00a0498800f6c8bf0038e9b700f5c8bf007e
:10241c0037e9b7007149800000022000008060009d
:10242c000000e00050023200a0498000104078000b
:10243c000080fb00200f980040082000ae089000a0
:10244c00808f50003402320040082000ae0890000b
:10245c00808f500015003c0010082000ae08900042
:10246c00808f50002700320010082000ae0890002a
:10247c00808f500004003c002e089000e40f5000a8
:10248c00470132003602370020082000ae089000c9
:10249c00808f50004a00320030082000ae089000b7
:1024ac00808f50003e0132002d02370010092000b1
:1024bc00ae089000808f500092003200100920006e
:1024cc00ae089000808f500005003c007008200082
:1024dc00ae089000808f50000c00320020023700b4
:1024ec0020092000ae089000808f5000ff003200c1
:1024fc0070092000ae089000808f50008b003200d5
:10250c00170237007f0d070018023700ddc9bf0026
:10251c00e24f5000020036007a0d0700130237001c
:10252c00a04980000000e80090407800dcc9bf00a2
:10253c0080cf500002003200720d07000b023700f2
:10254c000040eb0062e9b7002296200012417800af
:10255c008280fb00a09320008080400070c9b300f3
:10256c00804878000240e80062e9b700239620001a
:10257c00934178008380fb00429c2000124178003c
:10258c00a093200000804000024878000340e8003f
:10259c0062e9b7005b0d0700704980004300de0064
:1025ac00614060000080fb00914980008001780050
:1025bc00120020000000eb00b1030700eb01370014
:1025cc000040eb0062e9b70022962000124178002f
:1025dc008280fb00a09320008080400020c9b300c3
:1025ec00804878000240e80062e9b7000040eb0048
:1025fc0040479800290037004e4090000080fb00b7
:10260c006300b9008080e80000902000008040004a
:10261c001080fb004700de000004e0001c003200cc
:10262c004e4090000080fb006300b90080007800f1
:10263c0000902000808040009049800091040700a9
:10264c000000e000120032004e4090000080fb00c1
:10265c006300b9008080e80000902000808040007a
:10266c000040eb0080487800229620001241780050
:10267c008280fb00a0932000808040000040eb0093
:10268c00804878000240e80062e9b7000600370095
:10269c004e4090000040e800404798004e409000ab
:1026ac00e14f5000d4ff3600160d07004e4090004d
:1026bc00e24f500009003a002296200012417800a7
:1026cc008280fb00a09320008080400000cfb300ec
:1026dc00804878000240e80062e9b7007049800049
:1026ec004300de00614060000080fb0091498000e7
:1026fc0080017800120020000000eb00600307004e
:10270c009a013700a04980000000e80010407800d2
:10271c000080fb0060004000e10f500001003e0013
:10272c00d9050700f70c07009001370063c9bf00fb
:10273c000042b2000004e0000200320063a9a900cc
:10274c00680037000040eb00404798001900370044
:10275c004e4090000080fb006a00b90080007800b9
:10276c00609020000080400090407800dcc9bf00e1
:10277c0080cf50000c003a00924980004e409000ef
:10278c000080fb006a00b900800078006090200097
:10279c00008040000000e800820078003904070047
:1027ac000000e00008003a004e4090000040e800b5
:1027bc0040479800619c2000914078004e4090006a
:1027cc00814f5000e2ff3900619c2000914078005d
:1027dc004e409000814f500042003a004e40900015
:1027ec00e34f50003f003e00c6c9bf000080fb0015
:1027fc00c29d2000124178006a00b9008000780068
:10280c00609020000080400002487800c6c9bf00dc
:10281c000080fb0072932000124178006a00b9001e
:10282c00e6004000609020000080400002487800e4
:10283c00c6c9bf000080fb008293200012417800c3
:10284c006a00b900e6004000609020000080400063
:10285c00124098000040eb004047980011003700f0
:10286c00c6c9bf000081fb004e4090008081fb0078
:10287c00914980004e4090000080fb000080400099
:10288c00104278006a10b90083004000609020006c
:10289c0000804000144098004e4090000040e8003a
:1028ac00404798004e409000e14f5000ecff36003e
:1028bc00c6c9bf008080fb00a04980000000e80072
:1028cc00104178006a08b900e800400060902000d0
:1028dc000080400002487800c6c9bf000040e800f4
:1028ec00c6e9b700870c070020013700a04980001b
:1028fc000000e800104078000004e00026003a00d8
:10290c000040eb0040479800200037004e409000fc
:10291c000080fb006300b9008080e800009020007c
:10292c00008040001080fb004700de000004e00047
:10293c00130032004e4090000080fb006300b90091
:10294c00800078000090200080804000904980003a
:10295c00cc0307000000e000090032004e4090005c
:10296c000080fb006300b9008080e800009020002c
:10297c00808040000040eb00804878000600370063
:10298c004e4090000040e800404798004e409000b8
:10299c00e14f5000ddff36005a0c0700f300370002
:1029ac000000eb00100798000040eb0062e9b70054
:1029bc000040eb0040479800ca0037004e409000a2
:1029cc008080fb00000320000088b900e600400076
:1029dc0040962000008040001000780061406000ac
:1029ec000004e000bc0032004e4090008080fb00f0
:1029fc00000320000088b900e6004000409620004b
:102a0c0000804000100078000000d10061406000a0
:102a1c000004e000640032000040eb00004f78003e
:102a2c005d0037004e4090008080fb001e81fb0053
:102a3c00000320000088b90002004000e4004000c0
:102a4c00409620000080400010407800e14f40008c
:102a5c0050003200934980004e4090008080fb0073
:102a6c001e81fb00000320000088b900020040001a
:102a7c00e4004000409620000080400010407800a8
:102a8c000080fb006300b9008000780000902000fb
:102a9c0000804000830078007a0307000000e0000b
:102aac003c0032004e4090008080fb001e81fb00f9
:102abc00000320000088b90002004000e400400040
:102acc00409620008080400000c0eb0080487800d9
:102adc000040eb00004f78001300370023962000d5
:102aec00934178000382fb004e4090008080fb00f5
:102afc001e81fb00000320000088b900020040008a
:102b0c00e800400040962000008040009040780093
:102b1c00a093200000004200014878000340e80028
:102b2c0062e9b7001e4fe8004e4090008080fb0029
:102b3c00000320000088b900e60040004096200009
:102b4c0000804000104090009e4f5000e3ff3e007c
:102b5c004e4090008080fb00000320000088b900ec
:102b6c00e6004000409620000080400010007800f5
:102b7c004300de00614060000080fb009149800052
:102b8c00800178001e0190000000eb003c02070061
:102b9c005f0037001e4fe80010c0b3009e4f1000be
:102bac00a0ff36004c003700924980004e40900048
:102bbc008080fb00000320000088b900e400400086
:102bcc004096200000804000820078002d03070012
:102bdc000000e000400032000040eb00004f7800a5
:102bec001300370023962000934178000382fb00ea
:102bfc004e4090008080fb001e81fb0000032000f3
:102c0c000088b90002004000e80040004096200017
:102c1c000080400090407800a0932000000042000b
:102c2c00014878000340e80062e9b7001e4fe80055
:102c3c004e4090008080fb00000320000088b9000b
:102c4c00e6004000409620000080400010409000bc
:102c5c009e4f5000e3ff3e004e4090008080fb00f2
:102c6c00000320000088b900e600400040962000d8
:102c7c0000804000100078004300de0061406000de
:102c8c000081fb004e4090008080fb000003200080
:102c9c000088b900e400400040962000808040008d
:102cac00820178001e0190000000eb00f401070087
:102cbc004e4090008080fb00000320000088b9008b
:102ccc00e600400040962000808040000040eb0071
:102cdc00804878000e0037004e4090000040e8001d
:102cec00404798004e409000e14f500033ff3600b3
:102cfc004e409000e24f500005003a009149800090
:102d0c008001eb001e0190000000eb00dc010700cd
:102d1c007c0b070015003700a04980000000e8007c
:102d2c0090407800dcc9bf0080cf50000200320018
:102d3c00740b07000d003700a04980000080e800ec
:102d4c0010407800f805070080ed28009512070068
:102d5c00dcc9bf00d81207006a0b0700030037005c
:102d6c006369a800010037006369a80063c9bf004c
:102d7c00644060000004e0000500320063c9bf003d
:102d8c00684060000004e000010032006349a900c3
:102d9c0036c9bf000004e0000800320063c9bf0060
:102dac00704060000004e00004003a0063c9bf00fa
:102dbc000042b2000004e000020032006369a90086
:102dcc00500b07000080fa00000006000800fa0013
:102ddc00300798000040eb0063e9b7000040eb00bf
:102dec00004f7800080037001e80fb006300b9001c
:102dfc008080e80000902000808040000040eb00c4
:102e0c00804878001e4fe80010c0b3009e4f1000a1
:102e1c00f5ff3600a61307000040eb0062e9b7008f
:102e2c000040eb00004f7800090037009e80fb004b
:102e3c00000320000088b900e60040004096200006
:102e4c00808040000040eb00804878001e4fe80076
:102e5c0010c0b3009e4f1000f4ff36000040eb0092
:102e6c00004f7800070037001e80fb00818f200088
:102e7c004200dd00010140006000b8000089be0086
:102e8c001e4fe80010c0b3009e4f1000f6ff360036
:102e9c00a09d2000200798001e0090000010a000ac
:102eac00100798001e0090000030a1000040a00008
:102ebc000050a1000060a100100798003e00900097
:102ecc00614060009e0090000080fb00610060008b
:102edc004201dd00b0ff2f00808060008280700016
:102eec00110798001e0090000000a1001007980028
:102efc001e009000ae00900054080700dcc9bf0013
:102f0c00440307000040eb00c4e9b700c4c9bf008c
:102f1c000034a000c4e9b700ddc9bf000080fb008d
:102f2c004400dd0080407800c4c9bf0000c07000c0
:102f3c00c4e9b7009680a800100020000080fa00b9
:102f4c00000006000600fa00004f78001e80fb000f
:102f5c00200798002e009000e10f50001200320064
:102f6c002e009000e20f50001a0032002e0090004c
:102f7c000000e000010032002c0037000040eb00a4
:102f8c003a0b07000000e000040032006309a800bf
:102f9c000000eb00100798002600370010002000fe
:102fac00100798002300370000c0eb002f0b070020
:102fbc000000e000040032006309a9000000eb00ef
:102fcc00100798001b003700100020001007980015
:102fdc001800370000c0eb00240b07000000e000d5
:102fec0003003a0010002000100798001100370071
:102ffc006309a900120007000000e00004003a0079
:10300c0020002000100798000a0037006cfc070015
:10301c0063c9bf00644060000004e000fbff3a009d
:10302c000000eb001007980002003700f00f2000a2
:10303c00100798001e0090000080fa0000000600a7
:10304c000800fa0062c9bf00104798003ac9bf00d7
:10305c00004f78000040eb0062e9b7002296200098
:10306c00124178008280fb00a093200080804000f9
:10307c0040c0b300804878000240e80062e9b70025
:10308c008001eb0012002000019020000000eb00fa
:10309c00fb0007000000e0000e0032006349a800ae
:1030ac000e80e800081307001e009000ae00900090
:1030bc00404e8800514e88001e4078003ae9b70017
:1030cc001e40900062e9b700100020003007980005
:1030dc00060037001e4078003ae9b7001e40900009
:1030ec0062e9b7000000eb00300798003e0090004a
:1030fc000080fa00000006001200fa00881f780019
:10310c002007980031079800420798005307980051
:10311c000040eb0020479800d00037002e40900074
:10312c008080fb00000320000088b900e60040000e
:10313c004096200000804000100078006140600044
:10314c000004e000c2003a002e4090008080fb009a
:10315c00000320000088b900e600400040962000e3
:10316c00008040001000a0002e4090008080fb00ea
:10317c002e00900061416000000320000088b9001f
:10318c00e600400040962000808040000280fb005a
:10319c006100600000014000d0ff2f00910860002a
:1031ac00910871002e4090008080fb004e00900032
:1031bc0061416000000320000088b900e600400077
:1031cc0040962000808040000280fb00610060007f
:1031dc004201dd00b0ff2f009108600091087100e2
:1031ec002e4090008080fb005e00900061416000ea
:1031fc00000320000088b900e60040004096200043
:10320c00808040000280fb00610060004301dd0013
:10321c0070ff2f0091086000910871003e00900033
:10322c000000e0001b0032000040eb00104798004b
:10323c00140037002e4090000081fb001e409000cf
:10324c008081fb001e4090000080fb008000780015
:10325c003e009000008040001042780000032000e7
:10326c000090b90003004000e400400040962000ac
:10327c0000804000044878001e4090000040e800a8
:10328c00104798001e409000e14f5000e9ff3600b7
:10329c003b0037000040eb00004f78000040eb0093
:1032ac0010479800230037001e4090000080fb0060
:1032bc006300b9008080e80000902000008040008e
:1032cc001080fb004700de000004e0001600320016
:1032dc001e4090000080fb006300b9008080e80075
:1032ec0000902000008040009040780061c0600099
:1032fc000004e0000c003a002e4090008080fb009f
:10330c001e81fb00000320000088b9000200400071
:10331c00e400400040962000008040009e40900059
:10332c00014878001e4fe8001e4090000040e80065
:10333c00104798001e409000e14f5000daff360015
:10334c000c0037002e4090008080fb001e81fb009b
:10335c00000320000088b90002004000e400400097
:10336c00409620008080400000c0eb008048780030
:10337c001e4fe80010c0b3009e4f1000f1ff360046
:10338c002e4090008080fb00229620001241780095
:10339c00000320000088b900e600400040962000a1
:1033ac0000804000124098000040eb00104798004d
:1033bc00130037002e4090000081fb001e4090004f
:1033cc008081fb001e4090008080fb00a0932000b9
:1033dc000080400010427800000320000090b900eb
:1033ec0003004000e80040004096200000804000b0
:1033fc00044878001e4090000040e80010479800f8
:10340c0021962000914078001e409000814f500082
:10341c00e8ff39002e4090000084fb006c00470050
:10342c00291207006e019000fe019000000320009d
:10343c0000c0b90080007800409620000080400059
:10344c000288be0011002000010f98000800370010
:10345c002e4090000040e800204798002e4090003d
:10346c00e14f50002dff36000000eb00000f9800dc
:10347c000e0890004f0478000080fa00000006004f
:10348c001200fa0030079800410798005207980084
:10349c00630798000040eb00204798000040eb00c9
:1034ac00005798005e0090000000e000020032001f
:1034bc0012c0b300025798001e0090000e519000ed
:1034cc008280fb0063816000c1ff2f00010060005f
:1034dc0002007000100798000040eb00704f98003d
:1034ec003e0090000000e00002003a0012c0b30061
:1034fc00724f98009e0090007e4990000280fb0065
:10350c00610060004501dd00f0fd2f00808060004f
:10351c0082807000110798003e00900061406000ae
:10352c009e0090000080fb00610060004201dd0005
:10353c00b0ff2f008080600082807000110798001f
:10354c006e009000614060009e0090000080fb00c7
:10355c00610060004301dd0070ff2f00808060007f
:10356c0082807000110798000040eb00604f9800bb
:10357c003e0090000000e00002003a0012c0b300d0
:10358c00624f98009e0090006e4990000280fb00f4
:10359c00610060004601dd00f0fb2f0080806000c0
:1035ac0082807000110798001e009000630060007c
:1035bc00e10f500004003a001e0090000070a000c3
:1035cc0010079800030037001e0090000070a10047
:1035dc00100798004e0090002007980062c9bf00a9
:1035ec0080417800a29320001e009000ae00900055
:1035fc0019070700000f78000040eb0062e9b700e4
:10360c001e0078000080fa00000006000400fa009a
:10361c00100798000040eb00004f780019003700ad
:10362c001e80fb006300b9008080e8000090200041
:10363c00008040001080fb004700de000004e0002a
:10364c000f0032001e80fb006300b9008080e80090
:10365c0000902000008040009040780061c0600025
:10366c000004e00006003a009e0190000001eb000f
:10367c008000eb00100020009ffe070004003700c4
:10368c001e4fe80010c0b3009e4f1000e4ff360040
:10369c009e0190000001eb008000eb001000200068
:1036ac0077ff07000080fa00000006000a00fa000d
:1036bc0040479800310798004e4090000080fb0076
:1036cc006300b9008080e80000902000008040007a
:1036dc001080fb004700de000004e0002e003200ea
:1036ec004e4090000080fb006300b9008080e80031
:1036fc0000902000008040009040780061c0600085
:10370c000004e00019003a000040eb00004f780084
:10371c000c0037009e81fb004e4090000080fb00a7
:10372c001e81fb006300b900820040000090200065
:10373c0000804000904078000e00e8008171780015
:10374c001e4fe80010c0b3009e4f1000f1ff360072
:10375c008e00e800be0190000001eb000000eb00c1
:10376c0065fe0700400798000d0037004e409000a2
:10377c000080fb006300b9008000780000902000fe
:10378c00008040003e01900011002000070007005f
:10379c0040079800020037008000eb0041079800ba
:1037ac004e0090000080fa00000006000a00fa00ab
:1037bc001007980021079800320798000040eb0092
:1037cc00004f7800230037001e80fb006300b90017
:1037dc008080e80000902000008040001080fb00fa
:1037ec004700de000004e000190032001e80fb00e0
:1037fc006300b9008080e800009020000080400049
:10380c009040780061c060000004e00010003a00b5
:10381c001e80fb006300b90080007800009020003f
:10382c00808040001e009000160007000000e000a1
:10383c0007003200be0190000001eb009e009000da
:10384c000000eb002cfe0700400798000a00370030
:10385c001e4fe80010c0b3009e4f1000daff360078
:10386c00be0190000001eb009e0090000000eb00f8
:10387c0003ff0700400798004e0090000080fa00fc
:10388c00000006000800fa001007980021079800b5
:10389c000040eb00004f7800100037001e80fb004a
:1038ac00800078001e0090000080400010417800dd
:1038bc001e80fb00800078002e00900000804000ed
:1038cc0010407800804f5100030032000000eb00e4
:1038dc0030079800060037001e4fe80010c0b300f8
:1038ec009e4f1000edff36001000200030079800ae
:1038fc003e0090000080fa00000006000c00fa0068
:10390c002047980031479800220798003307980009
:10391c002e4090000080fb00500798005e00900045
:10392c00e10f50000a0032005e009000e20f5000e0
:10393c001a0032005e0090000000e000010032002e
:10394c0019003700100020004007980018003700bd
:10395c000e00e800000278008041eb003e41900030
:10396c002e009000be00900054020700004f78001b
:10397c001e407800a7000700e0ee2800890f070022
:10398c001e407800cc0f070090f12800850f07002f
:10399c001000200040079800050037000000eb00e5
:1039ac0040079800020037000000eb004007980029
:1039bc004e0090000080fa00000006001800fa008b
:1039cc00404f9800514f9800ddc9bf002047980028
:1039dc0030c0b300104798000040eb00004f780057
:1039ec005e489000e14f500003003a00f10f2000b8
:1039fc00310f98007f0037006e004700b2100700af
:103a0c007e0090008e0890002007980031079800e7
:103a1c002e019000be019000c0bd2000f1ff2f00d0
:103a2c00020040008380480020079800310798006e
:103a3c000040eb00dde9b7006389a80064003700a3
:103a4c0072004700a01007001e089000ae089000fe
:103a5c0040079800510798004e019000de0190003d
:103a6c002e009000be009000000151008181590091
:103a7c0040422f0001002000800f5100818f59001f
:103a8c004f0036004e009000de009000200798009a
:103a9c00310798001e4fe90080c0eb009ecf10004c
:103aac004b003a0010c0b300004f78001e4090004d
:103abc000040e900104798001e409000e14f400084
:103acc0004003a006389a900f00f2000300f980021
:103adc00480037000040eb0062e9b7002296200056
:103aec00124178008280fb00a0932000808040006f
:103afc0010c8b300804878000240e80062e9b700c3
:103b0c0023962000934178008380fb00c29d200007
:103b1c0012417800a09320000080400002487800f9
:103b2c000340e80062e9b700239620009341780037
:103b3c008380fb00429c200012417800a09320005f
:103b4c0000804000024878000340e80062e9b700ba
:103b5c004e489000e14f400006003a008001eb0017
:103b6c00120020008000eb001000200044fe070033
:103b7c00130037004e4890000080fb006a00b9002b
:103b8c008000780060902000008040001040780099
:103b9c00200007004e4890000080fb006a00b9002e
:103bac008000780060902000008040008000e800d9
:103bbc008001eb00120020000000eb0030fe07003b
:103bcc00250007000000e000010032000c00070097
:103bdc0063c9bf00704060000004e00098ff3a0029
:103bec002e409000dde9b700c5c9bf000080fb0086
:103bfc00300f98003e0890000080fa00000006008c
:103c0c000000fa006369a900be0707000080fa00f3
:103c1c00000006000400fa00004f78008040eb0022
:103c2c001e407800cc0407000000e00005003200c4
:103c3c001e407800dce9b700100020001007980047
:103c4c00020037000000eb00100798001e009000e7
:103c5c000080fa00000006000000fa0058f9070086
:103c6c0063c9bf000080fb004300de0061406000c0
:103c7c000080fb000080fa00000006000400fa003f
:103c8c00204798002e409000e24f5000160036005e
:103c9c00c0f12800c30e07000040eb00104798004d
:103cac000a0037001e4090000080fb00e10010006d
:103cbc00a09d20000080400010407800e60e070018
:103ccc001e4090000040e800104798001e409000f5
:103cdc00e14f5000f3ff3600f0f22800b10e070060
:103cec00dcc9bf00f40e07002e409000e14f5000dd
:103cfc002f003e00b0f32800aa0e07002e409000c3
:103d0c000080fb006300b9008080e8000090200078
:103d1c00008040001080fb004700de000004e00043
:103d2c00570032002e409000cb0e0700b0f6280052
:103d3c009c0e07000040eb00104798001400370061
:103d4c001e409000e14f50000c003e002e409000b1
:103d5c008080fb001e4090000080fb006101100081
:103d6c006308b900820040000090200000804000f1
:103d7c0010407800b80e07000200370090f72800ba
:103d8c00880e07001e4090000040e8001047980085
:103d9c001e409000e74f5000e9ff3600c0f72800a6
:103dac00800e070090f128007e0e070034003700cb
:103dbc0010f828007b0e07000040eb00104798001d
:103dcc002c0037001e4090000080fb006300b900ff
:103ddc008080e80000902000008040001080fb00f4
:103dec004700de000004e0001f0032001e4090007f
:103dfc00990e0700b0f628006a0e07000040eb0091
:103e0c00004f78001100370010c0b3009e4f100017
:103e1c000b003e001e4090008080fb001e80fb00cb
:103e2c00610110006308b90082004000009020007e
:103e3c000080400010407800870e07000200370019
:103e4c0090f72800570e07001e4fe80070c0b30013
:103e5c009e4f1000ecff3600c0f72800510e0700f3
:103e6c0090f128004f0e07001e4090000040e80023
:103e7c00104798001e409000e14f5000d1ff3600d3
:103e8c000080fa00000006000600fa000040eb007b
:103e9c001047980000c0eb00004f780036c9bf00f7
:103eac00e24f500003003e00200020002007980045
:103ebc006c0037000040eb002047980021003700d1
:103ecc002e4090000080fb006300b9008080e80069
:103edc0000902000008040001080fb004700de00b6
:103eec000004e0000f0032002e4090000080fb0028
:103efc006300b900800078000090200080804000b2
:103f0c00904980005ffe07000000e0000a003200cc
:103f1c002e409000004f780010c0b300104798005e
:103f2c000b00370000c0eb009e4f100002003a005f
:103f3c002e409000004f78002e4090000040e8008a
:103f4c00204798002e409000e14f5000dcff3600d7
:103f5c0000c0eb009e4f100003003a00100f200031
:103f6c00200798003f003700ddc9bf000004e000c7
:103f7c00040032001e4090000080fb0020079800d7
:103f8c00380037000040eb00204798001000370045
:103f9c001e81fb002e4090008081fb009149800027
:103fac002e4090000080fb00008040001042780002
:103fbc006310b90083004000009020000080400096
:103fcc00044878002e4090000040e80020479800fc
:103fdc002e409000e74f5000edff36001e80fb0096
:103fec006300b9008080e8000090200080804000d1
:103ffc0000c8b300914870009e80fb00a04980006f
:10400c000080e80010407800614060006141600071
:10401c00614161006308b9008080e80000902000d5
:10402c000080400061416100e1cfb30010c8600026
:10403c00104871001e80fb00818f20004200dd00c3
:10404c00010140006000b8000089be001e407800ed
:10405c00c5e9b7006389a9001e4090000080fb00f1
:10406c00200798002e0090000080fa000000060047
:10407c002200fa0000579800120f9800230f9800a6
:10408c001000200001002000100798002107980064
:10409c00dcc9bf00004f78000040eb00604798007f
:1040ac000b0037006e4090000080fb006a00b900e6
:1040bc0080007800609020008080400000c0eb0001
:1040cc00804878006e4090000040e80060479800ff
:1040dc006e409000e34f5000f2ff36000040eb00c2
:1040ec00c6e9b7000040eb00604798006a00370053
:1040fc006e4090000081fb001e009000ae0090000e
:10410c00820178008301e9000300330000004000c5
:10411c0081804800fbff37001e099000ae0990001b
:10412c000002780081027800020078008300780099
:10413c0000016200018062006102b800740f9800f7
:10414c00051798007e0890008e109000c000dd00ce
:10415c0000002000700f9800011798007e08900056
:10416c008e1090006112b800740f9800051798001b
:10417c007e0990008e119000020070008380700008
:10418c00e00f5000e08f58004000320030fb280058
:10419c00840d07006e409000c70d07006e40900024
:1041ac009cfe07000040eb0062e9b700229620005d
:1041bc00124178008280fb00a09320008080400098
:1041cc0070c8b300804878000240e80062e9b7008c
:1041dc0023962000934178008380fb00c29d200031
:1041ec0012417800a0932000008040000248780023
:1041fc000340e80062e9b7008001eb0012002000e8
:10420c008000eb00100020009dfc070076004700aa
:10421c00ad0e07003e089000ce08900040079800b5
:10422c00510798008cfe07000000e00001003200ee
:10423c0073fe07007a004700a30e07005e0890008b
:10424c00ee08900060079800710798006e019000ce
:10425c00fe0190004e009000de0090000001510025
:10426c00818159000e5090000080fb00c200dd00df
:10427c00a0e62800008040001000be00800f510016
:10428c00818f590001003e00e6ff37006e40900020
:10429c000040e800604798006e409000ff4f5000cf
:1042ac0093ff36001e4078005afe0700c6c9bf00b7
:1042bc000080fb000080fa00000006002a00fa00d3
:1042cc00200f9800310f9800025f9800135f980040
:1042dc00540f980000c0eb00004f98001000200015
:1042ec000100200020079800310798001e5890000c
:1042fc000004e00003003200f00f200020179800ab
:10430c008600370030fc2800260d07000040eb002b
:10431c00204f98007b0037002e4890000081fb0056
:10432c002e009000be009000820178008301e9000d
:10433c00030033000000400081804800fbff370081
:10434c002e099000be0990000002780081027800ce
:10435c000200780083007800000162000180620096
:10436c006102b80034179800451798003e10900071
:10437c00ce109000c000dd00000020003017980027
:10438c00411798003e109000ce1090006112b800ba
:10439c0034179800451798003e119000ce119000ec
:1043ac000200700083807000e00f5000e08f580016
:1043bc00510032000040eb00204798002e4890003e
:1043cc0014fe07007c0047003f0e07006e089000ab
:1043dc00fe089000600798007107980010c0b300a9
:1043ec00d905070030479800be4090002e40900041
:1043fc0080cf500002003600be4190002347980049
:10440c00000220000e0040002f0e07000e1090003e
:10441c009e109000000f9800110f98000e0990004c
:10442c009e0990006e009000fe009000000151006b
:10443c00818159000e5890000080fb00c200dd0005
:10444c00a0e62800008040001000be00800f510044
:10445c00818f590001003e00e0ff3700a0fd2800cd
:10446c00d00c07002e489000130d070050fe2800ba
:10447c00cc0c07002e4090000080fb005200200066
:10448c00110009000280d800104798000040eb0092
:10449c00004f780003003700d0c2b300d80c0700df
:1044ac001e4fe8001e4090009e4f1000faff39008e
:1044bc0080fe2800bb0c07002e409000e60c070085
:1044cc00ae4090000e48900080cf50000a003100a2
:1044dc002e429000044f9800ae4a9000154f980061
:1044ec005e0890000000e000030032005e089000bf
:1044fc008e489000014878002e4890000040e8005b
:10450c00204f98002e489000ff4f500082ff36003d
:10451c001e4890000080fb00201798002e10900081
:10452c000080fa00000006001400fa00204f9800ea
:10453c000040eb00004f78003b0037006c00470058
:10454c00e10d07006e009000fe009000100798002f
:10455c002107980070004700db0d07000e08900043
:10456c009e08900030079800410798003e0190008b
:10457c00ce0190001e009000ae0090000001510092
:10458c0081815900c083270001002000800f510059
:10459c00818f5900efff36000040eb0062e9b70055
:1045ac0022962000124178008280fb00a09320000c
:1045bc008080400040c8b300804878000240e8008a
:1045cc0062e9b70023962000934178008380fb00ba
:1045dc00c29d200012417800a09320000080400072
:1045ec00024878000340e80062e9b70022962000f8
:1045fc00124178008280fb00a093200000804000d4
:10460c00ae489000014878000240e80062e9b7002b
:10461c008001eb00120020008000eb001000200055
:10462c0097fb07001e4fe80020c0b3009e4f100000
:10463c00c2ff36002e48900076fd07000080fa007d
:10464c00000006002400fa0000579800120f980092
:10465c00230f9800dcc9bf00404798007600470044
:10466c00990d07003e089000ce0890004007980076
:10467c005107980063a9a8000040eb006047980020
:10468c008c0037001000200001002000008fbe00bd
:10469c000040eb0050479800710037007a0047004b
:1046ac00890d07005e089000ee08900060079800e6
:1046bc00710798006e019000fe0190004e00900072
:1046cc00de0090000001510081815900c083270059
:1046dc0001002000800f5100818f59005c003600d2
:1046ec006e009000fe009000400798005107980063
:1046fc005e409000ff4f50005d003e00060037000a
:10470c005e4090000040e800504798005e409000ea
:10471c00ff4f500063003e005e4090000081fb00a4
:10472c001e00be00820178008301e9000300330003
:10473c000000400081804800fbff37001e099000fc
:10474c00ae09900000027800810278000200780027
:10475c008300780000016200018062006102b800f1
:10476c0004179800151798000e1090009e109000da
:10477c00c000dd0000002000001798001117980001
:10478c000e1090009e1090006112b8000417980053
:10479c00151798000e1190009e11900002007000e9
:1047ac0083807000e00f5000e08f5800d4ff32007f
:1047bc00a0fe2800fb0b07005e4090003e0c07009b
:1047cc005e40900013fd07005e4090000040e80042
:1047dc00504798000040eb0062e9b7002296200099
:1047ec00124178008280fb00a09320008080400062
:1047fc0070c8b300804878000240e80062e9b70056
:10480c0023962000934178008380fb00c29d2000fa
:10481c0012417800a09320000080400002487800ec
:10482c000340e80062e9b7000e5090000080fb00e6
:10483c006300b90080007800009020008080400068
:10484c008001eb00120020000000eb000cfb0700c5
:10485c0001fd07000000e00001003200e8fc070049
:10486c0063c9bf000042b2000004e0008bff3a00b5
:10487c0063c9bf000042b2000004e00009003a0026
:10488c00e0ff2800c70b0700dcc9bf000a0c0700bb
:10489c0090f12800c30b070013002000730f980041
:1048ac000c00370042f607006e4090000040e80014
:1048bc00604798006e409000e24f500071ff360048
:1048cc004e409000d3fc070063a9a9000002eb0046
:1048dc00740f98007e0890000080fa00000006001b
:1048ec000a00fa002007980031079800dcc9bf00c5
:1048fc0020479800ddc9bf001047980030c0b300b6
:10490c008f00070063004700000278008041eb0035
:10491c00a2c0b3002e009000be00900067fe0700fe
:10492c00004f78001e409000850007002e4090003c
:10493c00b8fc07002e4090009e4f100003003a0078
:10494c000000eb00400798000a00370060022900c5
:10495c00940b07001e407800d70b070090f128003d
:10496c00900b07001e407800effe0700100020009f
:10497c00400798004e0090000080fa0000000600ee
:10498c000800fa00604798006e409000e14f40002c
:10499c003b003a000040eb004047980034003700e1
:1049ac004e4090000080fb006300b9008080e8005e
:1049bc0000902000008040001080fb004700de00cb
:1049cc000004e0001f0032000040eb0062e9b70079
:1049dc0022962000124178008280fb00a0932000d8
:1049ec008080400020c8b300804878000240e80076
:1049fc0062e9b7004e4090000080fb006300b900f4
:104a0c008000780000902000808040008001eb0046
:104a1c00120020000000eb0099fa07000000eb00e8
:104a2c0010079800030037001e0090000000e800fb
:104a3c00100798009e009000e0ff2000808f50002f
:104a4c00f9ff36004e4090000080fb006300b90077
:104a5c008080e80000902000808040000040eb0047
:104a6c00804878004e4090000040e8004047980095
:104a7c004e409000e14f5000c9ff36002e00370029
:104a8c006e4090000080fb006300b9008080e8005d
:104a9c0000902000008040001080fb004700de00ea
:104aac000004e000240032000040eb0062e9b70093
:104abc0022962000124178008280fb00a0932000f7
:104acc008080400020c8b300804878000240e80095
:104adc0062e9b7006e4090000080fb006300b900f3
:104aec008000780000902000808040008001eb0066
:104afc00120020000000eb0061fa07000000eb0040
:104b0c00000f7800010037001e0fe800e0ff2000c6
:104b1c009e0f1000fcff36006e4090000080fb00e2
:104b2c006300b9008080e800009020008080400085
:104b3c000040eb00804878000080fa00000006007e
:104b4c000200fa00004f780030c0b3009e4f1000f6
:104b5c0009003e001e407800dde9b700c4c9bf0063
:104b6c00ef406000ddc9bf000080fb004400dd00a9
:104b7c0000c07000c4e9b7000080fa000000060015
:104b8c000200fa0000c2b30022000700004f7800b8
:104b9c001e80fb006f0060007900b90079004000b6
:104bac000080fa00000006000400fa0010079800cc
:104bbc0096c0bf000080fb004400de006140600036
:104bcc00004f78009680a900c442a9001e009000f6
:104bdc004800de00210c07001e0090001f0c07008f
:104bec00c442a8009e40780061c060006140600033
:104bfc004401dd006109200091407800f0ceb30043
:104c0c0000c060000240700096e0b7000080fa001f
:104c1c00000006000400fa002047980096c0bf0070
:104c2c000080fb004400de0061406000004f780013
:104c3c009680a900c442a900ae40900000c4b30005
:104c4c0000c07000204798002e409000030c070015
:104c5c00100c070010479800c442a8009e40780032
:104c6c0061c06000614060004401dd00610920000a
:104c7c0091407800f0ceb30000c06000024070009c
:104c8c0096e0b7001e4090000080fb000080fa0008
:104c9c00000006000400fa002047980096c0bf00f0
:104cac000080fb004400de0061406000004f780093
:104cbc009680a900c482a9002e409000e70b070043
:104ccc00c482a8009e40780061c060006140600012
:104cdc004401dd006109200091407800f0ceb30062
:104cec0000c060000240700096e0b7000080fa003f
:104cfc00000006002200fa0000579800110f9800df
:104d0c0030c0b30010479800800037000040eb0023
:104d1c00004f78000000eb00c04e88000040eb0014
:104d2c00304798001e0890000000e0001b00320085
:104d3c0080c2b300b7ff0700204798002e409000b8
:104d4c000080fb000000d10020479800ae4090008e
:104d5c0010c4b30080cf5000100036000040eb00b0
:104d6c00006798003e409000e44f5000020036006f
:104d7c0010c0b300006798003e4090000040e8006f
:104d8c00304798000e6090000004e000e8ff32000d
:104d9c000000eb00700f9800660037009680a900a9
:104dac0000c2b300f500070090ac21007eff0700a5
:104dbc000e509000b7ff07000040eb0040479800f2
:104dcc00090037004e4090008080fb00408b200093
:104ddc000080400010407800aeff07004e4090006d
:104dec000040e80040479800ce4090000e509000e4
:104dfc0080cf5000f3ff390000c8b300df0007007c
:104e0c009680a800b04e80000000e00004003a003c
:104e1c0086c0bf00704060000004e000f9ff320063
:104e2c000000eb00b04e880000c2b300d3000700b6
:104e3c0000c6b300d1000700b4c8bf008080fb00df
:104e4c0000022000008060000000e0002c00340014
:104e5c00b5c8bf007ae8b700740047009a0b07008a
:104e6c002e089000be08900040079800510798004b
:104e7c00c04e80000000e000030032001000200053
:104e8c003007980029003700780047008e0b070088
:104e9c004e089000de08900060079800710798009b
:104eac006e019000fe0190004e009000de0090001c
:104ebc00000151008181590050c3200001002000e5
:104ecc00800f5100818f590001003e00e8ff370030
:104edc000040eb00405f980030c0b3009e4f1000c4
:104eec0002003e0010c0b300405f98001e4fe80067
:104efc004e5890000004e00086ff3a000300370093
:104f0c001000200030079800080037001e40900069
:104f1c000040e900104798001e409000e14f40000f
:104f2c007aff3a000000eb00300798003e0090003a
:104f3c00700f98007e0890000080fa0000000600b8
:104f4c000400fa00000f7800110798000000eb0035
:104f5c000080fa00000006000400fa00004f780000
:104f6c0011479800f0c1b3009e4f100003003600ab
:104f7c000000eb00100798001e00370040c6200010
:104f8c0009ff07009e80fb00c003290061407800e8
:104f9c008080fb0000e020000080700002ff070012
:104fac009e80fb00c0052900614078008080fb00da
:104fbc000000210000807000fbfe070000c2b3005f
:104fcc006e00070060052000f7fe070000c4b30068
:104fdc006a000700f0c02100f3fe070000c2b30016
:104fec006600070000c6b300640007001000200034
:104ffc00100798001e0090000080fa0000000600c8
:10500c000400fa00004f780070c0b3009e4f1000ef
:10501c00030036000000eb00100798000800370072
:10502c001e80fb000000400080007800004f230031
:10503c0000807000dcfe07001000200010079800b4
:10504c001e0090000080fa00000006000600fa0026
:10505c0010079800210798001e009000ae009000e9
:10506c00b0438800c1438800400120004d0a07006e
:10507c00c442a800c482a800300880007be8b700b6
:10508c0000c0eb007ce8b7000040eb00004f78005c
:10509c00090037009e80fb00b00320000088b90097
:1050ac008000780000802000808040000040eb00f1
:1050bc00804878001e4fe80011c0b3009ecf10004e
:1050cc00f4ff36001000200001002000404588004d
:1050dc00514588000040eb00004f78000800370075
:1050ec001e81fb009e80fb00200d2900e140780012
:1050fc00c08a200000004100014878001e4fe800e3
:10510c0070c0b3009e4f1000f5ff36000040eb005e
:10511c00004f7800070037001e80fb008000400025
:10512c00c007290000804000100078009efe070098
:10513c001e4fe800f1c1b3009ecf1000f6ff360001
:10514c0000c2b3000d0007006005200096fe0700aa
:10515c0000c4b30009000700f0c0210092fe070054
:10516c0000c6b300050007008680a9009680a80041
:10517c00100020000080fa00000006000400fa0075
:10518c00004f78001e80fb001007980000042000e0
:10519c009e009000808f50001f0032000004200001
:1051ac009e009000808f500008003c001e00900074
:1051bc000000e00022003200000220009e0090005f
:1051cc00808f5000190032002100370000062000ab
:1051dc009e009000808f50000a00320000082000d2
:1051ec009e009000808f50000100320018003700a4
:1051fc00600920006cfe070000c8b3007de8b70012
:10520c00130037006007200067fe070000c6b300dc
:10521c007de8b7000e0037006005200062fe070035
:10522c0000c4b3007de8b70009003700600320001c
:10523c005dfe070000c2b3007de8b7000400370034
:10524c006001200058fe07000040eb007de8b7002d
:10525c000080fa00000006000e00fa0020079800fb
:10526c003107980042079800234f9800ae489000f1
:10527c0080c2b30080cf5000030036000000eb006a
:10528c0060079800c80037002e0090004200de0036
:10529c000000a2006140600061406000614060005d
:1052ac00ae0090000080fb00610060004601dd0054
:1052bc00f0fb2f0080806000828070002107980036
:1052cc002e00900063006000e10f500003003a00d4
:1052dc002e0090000070a000200798004e40900017
:1052ec00b4e8b7007bc8bf00b5e8b7000040e800e1
:1052fc007be8b70020c0b30010479800ae009000c8
:10530c0000042000008060000000e0001b00320060
:10531c000040eb0020479800100037001e40900022
:10532c000081fb00be0090002e4090000080fb002e
:10533c000080400090407800408b2000000041002d
:10534c00014878001e4090000040e800104798008b
:10535c002e4090000040e800204798002e4090001e
:10536c008080fb00b04380004300de006f40600093
:10537c000080fb00808f5000e8ff35002e0090006d
:10538c0001082000010060000000e0001b0032005a
:10539c000040eb0020479800100037001e409000a2
:1053ac000081fb00c14380002e4090000080fb0078
:1053bc000080400090407800408b200000004100ad
:1053cc00014878001e4090000040e800104798000b
:1053dc002e4090000040e800204798002e4090009e
:1053ec008080fb00b04380004300de006f40600013
:1053fc000080fb00808f5000e8ff35002e009000ed
:10540c00680060000000e000480032000040eb0043
:10541c0020479800100037001e4090000081fb00d0
:10542c002e4090008080fb00808a2000008040008d
:10543c0090407800408b200000004100014878002b
:10544c001e4090000040e800104798002e4090004d
:10545c000040e800204798002e409000e34f500099
:10546c00edff360040458000514580006100400052
:10547c00e080480040458800514588001e4090005f
:10548c008080fb00408b2000808040000040eb00bf
:10549c00804878001e4090000040e80010479800bb
:1054ac001e409000004f78000040eb002047980011
:1054bc00110037001e4090000081fb002e40900030
:1054cc000080fb00800078004e00900000804000bf
:1054dc0090407800408b200000004100014878008b
:1054ec001e4090000040e800104798002e409000ad
:1054fc000040e80020479800ae4090002e489000f5
:10550c0080cf5000ebff3900408b2000c38a200075
:10551c002e4990009e407800930407001e40900096
:10552c0000c0e80010479800180037000040eb005e
:10553c0020479800110037001e4090000081fb00ae
:10554c002e4090000080fb00800078004e00900000
:10555c000080400090407800408b2000000041000b
:10556c00014878001e4090000040e8001047980069
:10557c002e4090000040e80020479800ae4090007c
:10558c002e48900080cf5000ebff3900b0438000d4
:10559c000000d100614060008080fb001e40900044
:1055ac00d4fd0700600798006e0090000080fa00a0
:1055bc00000006001200fa000040eb003047980093
:1055cc00340037006c004700bf0907006e009000e4
:1055dc00fe00900020079800310798003e40900094
:1055ec000080fb00c300dd0000882000008040002c
:1055fc00100078000000e000230032002e01900023
:10560c00be0190003e4090000080fb004300dd0096
:10561c00e400400000882000008040001000be0024
:10562c00800f5100818f5900170036002e01900019
:10563c00be0190003e4090000080fb004300dd0066
:10564c00e400400000882000008040001000be00f4
:10565c00000151008181590040422f0001002000bf
:10566c00800f5100818f5900070036003e4090009a
:10567c000080fb00c300dd0000882000808040001b
:10568c000000eb00800878003e4090000040e800ed
:10569c00304798003e409000e44f5000c9ff360060
:1056ac007cc8bf00e14f4000030032000000eb005b
:1056bc00000f9800100137000040eb0030479800b5
:1056cc00080137003e4090008080fb00b0032000b2
:1056dc000088b90080007800008020000080400025
:1056ec009040780061c060000004e000fa003200d5
:1056fc003e4090008080fb00b00320000088b90081
:10570c00800078001080200000804000104078005d
:10571c00eee8b7003e4090008080fb00b003200014
:10572c000088b900a1032000808040000080200088
:10573c000080400010407800f4e8b70020c0b300af
:10574c002047980071478000000420000080600012
:10575c000000e00007003200b04380004300de0090
:10576c006f406000804078002e4090000140400067
:10577c00204798007047800001082000010060005d
:10578c000000e000140032003e4090008080fb00de
:10579c00b00320000088b900800078000080200051
:1057ac00008040008000e8002e4090000080fb004c
:1057bc000080400080478800b04380004300de003a
:1057cc006f406000804078002e4090000140400007
:1057dc0020479800020037000000eb00804788004b
:1057ec0070478000680060000000e000a3003200f9
:1057fc003e4090008080fb002e4090000080fb001b
:10580c0064014000b00320000088b9008200400011
:10581c001080200000804000104078000004e00060
:10582c000c0032003e4090008080fb00b003200052
:10583c000088b90080007800008020008080400043
:10584c000040eb00804878000000eb00000f98004f
:10585c00a90037007047800001082000010060009b
:10586c000000e000570032000040eb0010479800a9
:10587c00180037001e4090000080fb006300b90048
:10588c008080e80000902000008040001080fb0029
:10589c004700de000004e0000b003200824780006d
:1058ac001e4090000080fb006300b900800078006f
:1058bc00009020000080400082007800f1f7070083
:1058cc000000e00006003a001e4090000040e80096
:1058dc00104798001e409000e14f5000e5ff360045
:1058ec001e409000e14f500036003e000040eb009f
:1058fc00004f7800110037001e82fb003e409000e4
:10590c008081fb002e4090008080fb001e80fb00fd
:10591c0000814000b00320000098b90082004000d4
:10592c001080200000804000904078000e00420063
:10593c0068004000014878001e4fe80031c0b300f9
:10594c009ecf1000ecff36001e4090000080fb0044
:10595c00818f20004200dd00010040001001be00dc
:10596c004e009000de009000800f5100818f590096
:10597c000c0036003e4090008080fb00b0032000fd
:10598c000088b900800078000080200080804000f2
:10599c000040eb00804878000000eb00000f9800fe
:1059ac00550037001e4090000080fb004e01900017
:1059bc00de019000818f20004200dd0001004000dc
:1059cc000288be002e4090006540400020479800a1
:1059dc003e4090008080fb00b00320000088b9009e
:1059ec00a103200080804000008020000080400047
:1059fc00904078002e40900000c150003e40900036
:105a0c008080fb00b00320000088b9008000780083
:105a1c0000802000008040000000e800c38a2000c5
:105a2c00ae4090009a0307000000e0000c003a0022
:105a3c003e4090008080fb00b00320000088b9003d
:105a4c008000780000802000808040000040eb0047
:105a5c00804878008000eb00010f9800260037008a
