:020000040000fa
:080000000002040000000000f2
:020000040000fa
:10040000cf9d20000e7f22000e018800000000001a
:100410000c00070040412300010020001f000700de
:10042000000020000000e000020032000000020096
:100430000000000048340200000000000040da0024
:100440000000fe004440a900605720000000e000ca
:100450000300320000002000a00188004440a800f2
:1004600000000600f03fb1000180b1000600350039
:10047000ee03090000000000403fb1000180b10020
:10048000fbff3d001000b000203fb000020035002f
:1004900000800900000000000000060091018800b3
:1004a000800078000000eb0015003700e28040007b
:1004b00032a0b4009101ba00e280400032a0b40042
:1004c0009102ba00e280400032a0b4000002eb00ca
:1004d000472bde00f507b200602ce10004003a0073
:1004e0000059eb008301e900fdff3e0004003700e6
:1004f0006128e100010032000082eb0004000700e7
:100500001101ba000200e000e8ff3a000000060016
:100510003159ba008301e9000c0032002159ba00b8
:100520008301e900080032000400e00003003a0003
:10053000e280400032a0b400f5ff370011d9ba00c4
:100540008301e900faff3a008100e800e180400001
:1005500032a0b400000006000040da000000fe00f7
:020000040000fa
:020000040001f9
:0457f00059ff00005d
:020000040000fa
:020000040001f9
:0457f400fffc0000b6
:020000040000fa
:020000040001f9
:0457f8005f780000d6
:020000040000fa
:020000040001f9
:0457fc00603e00000b
:020000040000fa
:10000800ac020000ac020000ac020000ac02000030
:10001800ac020000ac020000ac020000ac02000020
:10002800ac020000ac020000ac020000ac02000010
:10003800ac020000ac020000ac020000ac02000000
:10004800ac020000ac020000ac020000ac020000f0
:10005800ac020000ac020000ac020000ac020000e0
:10006800ac020000ac020000ac020000ac020000d0
:10007800ac020000ac020000ac020000ac020000c0
:10008800ac020000ac020000ac020000ac020000b0
:10009800ac020000c0330000ac020000ac0200005b
:1000a800ac020000ac020000ac020000ac02000090
:1000b800ac020000ac020000ac020000ac02000080
:1000c800ac020000ac020000ac020000ac02000070
:1000d800ac020000ac020000ac020000ac02000060
:1000e800ac020000ac020000ac020000ac02000050
:1000f800ac020000ac020000ac020000ac02000040
:10010800ac020000ac020000ac020000ac0200002f
:10011800ac020000ac020000ac020000ac0200001f
:10012800ac020000ac020000ac020000ac0200000f
:10013800ac020000ac020000ac020000ac020000ff
:10014800ac020000ac020000ac020000ac020000ef
:10015800ac020000ac020000ac020000ac020000df
:10016800ac020000ac020000ac020000ac020000cf
:10017800ac020000ac020000ac020000ac020000bf
:10018800ac020000ac020000ac020000ac020000af
:10019800ac020000ac020000ac020000ac0200009f
:1001a800ac020000ac020000ac020000ac0200008f
:1001b800ac020000ac020000ac020000ac0200007f
:1001c800ac020000ac020000ac020000ac0200006f
:1001d800ac020000ac020000ac020000ac0200005f
:1001e800ac020000ac020000ac020000ac0200004f
:0801f800ac020000ac020000a3
:020000040000fa
:10020800ac020000ac020000ac020000ac0200002e
:10021800ac020000ac020000ac020000ac0200001e
:10022800ac020000ac020000ac020000ac0200000e
:10023800ac020000ac020000ac020000ac020000fe
:10024800ac020000ac020000ac020000ac020000ee
:10025800ac020000ac020000ac020000ac020000de
:10026800ac020000ac020000ac020000ac020000ce
:10027800ac020000ac020000ac020000ac020000be
:10028800ac020000ac020000ac020000ac020000ae
:10029800ac020000c0330000ac020000ac02000059
:1002a800ac020000ac020000ac020000ac0200008e
:1002b800ac020000ac020000ac020000ac0200007e
:1002c800ac020000ac020000ac020000ac0200006e
:1002d800ac020000ac020000ac020000ac0200005e
:1002e800ac020000ac020000ac020000ac0200004e
:1002f800ac020000ac020000ac020000ac0200003e
:10030800ac020000ac020000ac020000ac0200002d
:10031800ac020000ac020000ac020000ac0200001d
:10032800ac020000ac020000ac020000ac0200000d
:10033800ac020000ac020000ac020000ac020000fd
:10034800ac020000ac020000ac020000ac020000ed
:10035800ac020000ac020000ac020000ac020000dd
:10036800ac020000ac020000ac020000ac020000cd
:10037800ac020000ac020000ac020000ac020000bd
:10038800ac020000ac020000ac020000ac020000ad
:10039800ac020000ac020000ac020000ac0200009d
:1003a800ac020000ac020000ac020000ac0200008d
:1003b800ac020000ac020000ac020000ac0200007d
:1003c800ac020000ac020000ac020000ac0200006d
:1003d800ac020000ac020000ac020000ac0200005d
:1003e800ac020000ac020000ac020000ac0200004d
:0803f800ac020000ac020000a1
:020000040000fa
:1005600020b200002020000020b200002020000067
:10057000b2200000b2200000202000002020000057
:10058000b2200000b20d00000ab2000020b200004c
:1005900020b2000020b200002020000020b20000a5
:1005a00020200000b220000020b200002020000027
:1005b0000d0a0000b220000020b200002020000040
:1005c000b2200000b2200000b220000020b20000e3
:1005d00020200000b2200000b20d00000ab200008e
:1005e00020200000b220000020b2000020b2000055
:1005f00020200000b2200000b2200000b220000045
:1006000020b200000d0a0000b220000020b200005d
:1006100020200000b2200000b220000020200000b6
:10062000b2200000b220000020200000b20d000027
:100630000a200000202000002020000020200000d0
:1006400020200000202000002020000020200000aa
:1006500020200000202000000d0a0000b2b200009f
:10066000b220000020b20000b2b20000b20d0000c3
:100670000ab2000020200000b2200000b2200000da
:10068000202000000d0a0000b220000020b200006f
:1006900020b20000b2b20000b20d00000ab20000a9
:1006a00020200000b2200000b22000002020000026
:1006b0000d0a0000b2b20000b220000020b200001b
:1006c000b2b20000b20d00000a200000202000009d
:1006d0002020000020200000202000000d0a000043
:1006e0000d0a00005374000061720000746900007c
:1006f0006e670000204e00006f640000652000005f
:10070000312000006f66000020530000696d00007a
:10071000706c000065200000446500006d6f0000f3
:10072000206600006f720000204d00006957000035
:1007300069280000544d00002920000050320000bc
:100740005020000053740000616300006b20000023
:100750002e2e00002e0000000d0a0000496e000041
:100760007075000074200000436f00006e6600008a
:10077000696700007572000061740000696f000015
:100780006e3a0000000d00000a200000202000004a
:100790002020000020200000202000002020000059
:1007a00042750000747400006f6e00003a20000073
:1007b0005242000031350000000d00000a4f0000d9
:1007c000757400007075000074200000436f000015
:1007d0006e660000696700007572000061740000b9
:1007e000696f00006e3a0000000d00000a20000052
:1007f00020200000202000002020000020200000f9
:100800002020000020200000205200005332000071
:1008100033320000207000006f720000740000008e
:100820000d0a0000202000002020000020200000f1
:1008300020200000202000002020000020200000b8
:100840004c450000443a00002052000042310000b4
:10085000340000000d0a00002020000020200000cd
:10086000205200004620000054720000616e00001b
:10087000736300006569000076650000723a00004d
:10088000204d000052460000383900005841000059
:10089000000d00000a4300006f6e00006e6500004e
:1008a00063740000696e000067200000506500005e
:1008b00065720000206f00006e2000004368000099
:1008c000616e00006e6500006c200000000d0000ed
:1008d0000a0000000d0a0000436f00006e6e000069
:1008e000656300007465000064200000506500002e
:1008f00065720000206f00006e2000004368000059
:10090000616e00006e6500006c2000000053000066
:10091000656300007572000065640000200000003f
:10092000427200006f6100006463000061730000a8
:100930007420000050610000636b000065740000cb
:100940002077000069740000682000005253000006
:100950005349000020000000556e0000696300004c
:10096000617300007420000050610000636b0000a0
:1009700065740000207700006974000068200000a2
:100980005253000053490000200000002066000080
:10099000726f00006d200000003a0000200000008f
:1009a0000d0a0000536500006c65000063740000d0
:1009b000696f00006e2000006f6600002063000079
:1009c000686100006e6e0000656c00002000000091
:1009d00020690000732000006e6f0000742000008a
:1009e00073750000707000006f7200007465000085
:1009f00064200000696e0000206300007572000032
:100a0000726500006e740000206300006f6e0000cd
:100a1000666900006775000072610000746900007b
:100a20006f6e00002e0d00000a000000556e0000e1
:100a300069630000617300007420000046610000db
:100a4000696c000065640000000d00000a5500009c
:100a50006e690000636100007374000020460000ae
:100a6000616900006c650000640d00000a00000070
:100a70007800000000000000b4000000000000004a
:100a80002c010000000000001c020000000000001b
:100a9000fc03000000000000bc0700000000000094
:100aa0003c0f0000000000003c1e000000000000a1
:100ab0003c3c0000000000003c780000000000000a
:100ac0003cf00000000000003ce0000001000000dd
:100ad0003cc00000030000003c8000000700000054
:100ae0003c0000000f0000000d0a0000496e0000ed
:100af000646900007265000063740000206d0000ee
:100b000065730000736100006765000020650000e8
:100b10007870000069720000656400000044000005
:100b200061740000612000005265000071750000d2
:100b300065730000742000004578000070690000b3
:100b400072650000640d00000a0000000d0a00003c
:100b5000486f000070700000696e000067200000a0
:100b600043680000616e00006e6500006c200000ac
:100b7000746f0000200000000d0a00005374000094
:100b80006172000074200000576900007265000067
:100b90006c65000073730000204300006f6d00005f
:100ba0006d7500006e6900006361000074690000eb
:100bb0006f6e0000206f00006e2000004368000090
:100bc000616e00006e6500006c200000000d0000ea
:100bd0000a0000000d0a00000d0a00004d79000017
:100be000204100006464000072650000737300001f
:100bf0003a20000030780000002000002043000070
:100c0000686100006e6e0000656c00003a20000014
:100c1000000d00000a4300006f6e00006e650000ca
:100c200063740000696f00006e2000002020000047
:100c30002020000050650000657200004c6f00002d
:100c40006e6700004164000064720000657300007c
:100c500073200000202000002020000050650000cc
:100c600065720000496e0000666f00000d0a00000a
:100c70000020000020200000202000002020000094
:100c80002020000020200000202000000020000084
:100c9000200000002020000020200000000d0000a7
:100ca0000a0d00000a4300006f6e00006e65000030
:100cb00063740000696f00006e20000020200000b7
:100cc0002020000050650000657200004c6f00009d
:100cd0006e670000416400006472000065730000ec
:100ce000732000002020000020200000506500003c
:100cf00065720000496e0000666f00000d0a00007a
:100d0000000d00000a530000636100006e20000027
:100d100043680000616e00006e6500006c200000fa
:100d2000000d00000a4500006e65000072670000bb
:100d30007920000053630000616e00002052000023
:100d400065730000756c0000747300003a000000c9
:100d50000d0a000043680000616e00006e6500002f
:100d60006c200000003a000020000000200000007d
:100d70000d0a000043680000656300006b69000015
:100d80006e67000020430000686100006e6e000086
:100d9000656c0000200000000d0a00005265000094
:100da000737900006e630000687200006f6e0000cf
:100db000697a000065640000204300006f6e000047
:100dc0006e65000063740000696f00006e20000013
:100dd000746f000020430000686100006e6e000028
:100de000656c0000200000000d0a0000486f000044
:100df00070700000696e000067200000746f0000d2
:100e000020430000686100006e6e0000656c000009
:100e1000200000004f4f00004f4f00004f4f0000d8
:100e20004f4f00004f4f00004f4f00004f4f00004a
:100e30004f4f00004f4f00004f4f00004f4f00003a
:100e40005050000050500000505000005050000022
:100e50005050000022240000262800002a2c000008
:100e60002e30000032340000373900003b3d0000d6
:100e70003f41000043450000474a00004c4e00003f
:100e800005070000090b00000d0f00001114000001
:100e9000161800003600000084020000090400005b
:100ea000090600000c080000c10a00007d0c0000cb
:100eb000640e000014100000001200000014000076
:100ec0000016000038180000c81a00000d1c0000b1
:100ed000001e0000722000003822000038240000ac
:100ee0000726000000280000002a0000692c0000ee
:100ef000812e00007e30000096320000f8340000a1
:100f00008836000040380000003a0000e83c00004d
:100f1000003e00002a4e000072960000bade00007b
:100f20003031000032330000343500003637000025
:100f300038390000414200004344000045460000ab
:100f40000d0a0000204800006f6c000061210000c5
:100f5000200a000000410000000d0000202e0000cb
:100f60002e2e0000205500004152000054200000a9
:100f70005465000073740000204f00004b200000f7
:100f80002e2e00002e2000000a0000000d20000080
:100f90005072000065730000696f00006e61000010
:100fa000207500006e610000207400006563000081
:100fb0006c610000200a0000000d000020540000b9
:100fc000656300006c610000205000007265000045
:100fd000736900006f6e000061640000613a0000f8
:100fe000200000000d0a000020410000646900009c
:100ff0006f73000021200000000000004243000049
:101000004445000046470000484900004a4b0000a4
:101010004c4d00004e4f00005000000031320000e7
:101020003334000035360000373800003931000015
:1010300030310000313100003200000000010000ba
:0c10400002030000040500000607000089
:020000040000fa
:10104c000000fa00000000000080fa00000006001a
:10105c001800fa000040eb004047980030003700c1
:10106c004e4090008080fb00000320000088b900f7
:10107c00e600400040962000008040001000780000
:10108c00614060000004e000220032006c00470068
:10109c00ce1507006e009000fe00900030079800ff
:1010ac00410798003e019000ce0190004e40900008
:1010bc008080fb00000320000088b90080007800cd
:1010cc0040962000008040001000be00000151003e
:1010dc008181590000362e0061012000800f5100e3
:1010ec00818f59000b0036004e4090008080fb0031
:1010fc00000320000088b900e60040004096200064
:10110c00808040000040eb00804878004057280069
:10111c002f1307004e4090000040e8004047980015
:10112c004e409000e14f5000cdff360063c9bf0028
:10113c00644060000004e0001400320070004700be
:10114c00a21507000e0890009e089000300798002a
:10115c00410798003e019000ce019000404e800067
:10116c00514e80000001510081815900f0ff230095
:10117c0001002000800f5100818f590003003600c0
:10118c00f0582800121307006349a900ad0c0700a2
:10119c000000e000af0232000040eb002ee9b70087
:1011ac00704780004200de006140600063406000d8
:1011bc000080fb006301600071498000c0ff2f00bc
:1011cc000080600002007000704988007047800049
:1011dc004300de00614060000080fb0061006000a5
:1011ec004301dd007149800070ff2f00008060001a
:1011fc000200700070498800704780006300600036
:10120c008040eb0061579800e10f500002003a005b
:10121c0010c0b30060579800ee5090000180fb00a6
:10122c00610060004501dd0071498000f0fd2f0078
:10123c0000806000020070007049880070478000d8
:10124c004700de00614060000080fb006100600030
:10125c004601dd0071498000f0fb2f00008060002a
:10126c00020070007049880071478000000820005f
:10127c00008060000000e000020032008047800027
:10128c0090498800f4c8bf0036e9b7009047800049
:10129c00a0498800f6c8bf0038e9b700f5c8bf0000
:1012ac0037e9b7007149800000022000008060001f
:1012bc000000e00050023200a0498000104078008d
:1012cc000080fb00200f980040082000ae08900022
:1012dc00808f50003402320040082000ae0890008d
:1012ec00808f500015003c0010082000ae089000c4
:1012fc00808f50002700320010082000ae089000ac
:10130c00808f500004003c002e089000e40f500029
:10131c00470132003602370020082000ae0890004a
:10132c00808f50004a00320030082000ae08900038
:10133c00808f50003e0132002d0237001009200032
:10134c00ae089000808f50009200320010092000ef
:10135c00ae089000808f500005003c007008200003
:10136c00ae089000808f50000c0032002002370035
:10137c0020092000ae089000808f5000ff00320042
:10138c0070092000ae089000808f50008b00320056
:10139c00170237007f0d070018023700d3c9bf00b2
:1013ac00e24f5000020036007a0d0700130237009e
:1013bc00a04980000000e80090407800d2c9bf002e
:1013cc0080cf500002003200720d07000b02370074
:1013dc000040eb0062e9b700229620001241780031
:1013ec008280fb00a09320008080400070c9b30075
:1013fc00804878000240e80062e9b700239620009c
:10140c00934178008380fb00429c200012417800bd
:10141c00a093200000804000024878000340e800c0
:10142c0062e9b7005b0d0700704980004300de00e5
:10143c00614060000080fb009149800080017800d1
:10144c00120020000000eb00b1030700eb01370095
:10145c000040eb0062e9b7002296200012417800b0
:10146c008280fb00a09320008080400020c9b30044
:10147c00804878000240e80062e9b7000040eb00c9
:10148c0040479800290037004e4090000080fb0038
:10149c006300b9008080e8000090200000804000cc
:1014ac001080fb004700de000004e0001c0032004e
:1014bc004e4090000080fb006300b9008000780073
:1014cc00009020008080400090498000910407002b
:1014dc000000e000120032004e4090000080fb0043
:1014ec006300b9008080e8000090200080804000fc
:1014fc000040eb00804878002296200012417800d2
:10150c008280fb00a0932000808040000040eb0014
:10151c00804878000240e80062e9b7000600370016
:10152c004e4090000040e800404798004e4090002c
:10153c00e14f5000d4ff3600160d07004e409000ce
:10154c00e24f500009003a00229620001241780028
:10155c008280fb00a09320008080400000cfb3006d
:10156c00804878000240e80062e9b70070498000ca
:10157c004300de00614060000080fb009149800068
:10158c0080017800120020000000eb0060030700cf
:10159c009a013700a04980000000e8001040780054
:1015ac000080fb0060004000e10f500001003e0095
:1015bc00d9050700f70c07009001370063c9bf007d
:1015cc000042b2000004e0000200320063a9a9004e
:1015dc00680037000040eb004047980019003700c6
:1015ec004e4090000080fb006a00b900800078003b
:1015fc00609020000080400090407800d2c9bf006d
:10160c0080cf50000c003a00924980004e40900070
:10161c000080fb006a00b900800078006090200018
:10162c00008040000000e8008200780039040700c8
:10163c000000e00008003a004e4090000040e80036
:10164c0040479800619c2000914078004e409000eb
:10165c00814f5000e2ff3900619c200091407800de
:10166c004e409000814f500042003a004e40900096
:10167c00e34f50003f003e00c6c9bf000080fb0096
:10168c00229d2000124178006a00b9008000780089
:10169c00609020000080400002487800c6c9bf005e
:1016ac000080fb0072932000124178006a00b900a0
:1016bc00e600400060902000008040000248780066
:1016cc00c6c9bf000080fb00829320001241780045
:1016dc006a00b900e60040006090200000804000e5
:1016ec00124098000040eb00404798001100370072
:1016fc00c6c9bf000081fb004e4090008081fb00fa
:10170c00914980004e4090000080fb00008040001a
:10171c00104278006a10b9008300400060902000ed
:10172c0000804000144098004e4090000040e800bb
:10173c00404798004e409000e14f5000ecff3600bf
:10174c00c6c9bf008080fb00a04980000000e800f3
:10175c00104178006a08b900e80040006090200051
:10176c000080400002487800c6c9bf000040e80075
:10177c00c6e9b700870c070020013700a04980009c
:10178c000000e800104078000004e00026003a0059
:10179c000040eb0040479800200037004e4090007e
:1017ac000080fb006300b9008080e80000902000fe
:1017bc00008040001080fb004700de000004e000c9
:1017cc00130032004e4090000080fb006300b90013
:1017dc0080007800009020008080400090498000bc
:1017ec00cc0307000000e000090032004e409000de
:1017fc000080fb006300b9008080e80000902000ae
:10180c00808040000040eb008048780006003700e4
:10181c004e4090000040e800404798004e40900039
:10182c00e14f5000ddff36005a0c0700f300370083
:10183c000000eb00100798000040eb0062e9b700d5
:10184c000040eb0040479800ca0037004e40900023
:10185c008080fb00000320000088b900e6004000f7
:10186c00409620000080400010007800614060002d
:10187c000004e000bc0032004e4090008080fb0071
:10188c00000320000088b900e600400040962000cc
:10189c0000804000100078000000d1006140600022
:1018ac000004e000640032000040eb00004f7800c0
:1018bc005d0037004e4090008080fb001e81fb00d5
:1018cc00000320000088b90002004000e400400042
:1018dc00409620000080400010407800e14f40000e
:1018ec0050003200934980004e4090008080fb00f5
:1018fc001e81fb00000320000088b900020040009c
:10190c00e400400040962000008040001040780029
:10191c000080fb006300b90080007800009020007c
:10192c0000804000830078007a0307000000e0008c
:10193c003c0032004e4090008080fb001e81fb007a
:10194c00000320000088b90002004000e4004000c1
:10195c00409620008080400000c0eb00804878005a
:10196c000040eb00004f7800130037002396200056
:10197c00934178000382fb004e4090008080fb0076
:10198c001e81fb00000320000088b900020040000b
:10199c00e800400040962000008040009040780015
:1019ac00a093200000004200014878000340e800aa
:1019bc0062e9b7001e4fe8004e4090008080fb00ab
:1019cc00000320000088b900e6004000409620008b
:1019dc0000804000104090009e4f5000e3ff3e00fe
:1019ec004e4090008080fb00000320000088b9006e
:1019fc00e600400040962000008040001000780077
:101a0c004300de00614060000080fb0091498000d3
:101a1c00800178001e0190000000eb003c020700e2
:101a2c005f0037001e4fe80010c0b3009e4f10003f
:101a3c00a0ff36004c003700924980004e409000c9
:101a4c008080fb00000320000088b900e400400007
:101a5c004096200000804000820078002d03070093
:101a6c000000e000400032000040eb00004f780026
:101a7c001300370023962000934178000382fb006b
:101a8c004e4090008080fb001e81fb000003200074
:101a9c000088b90002004000e80040004096200099
:101aac000080400090407800a0932000000042008d
:101abc00014878000340e80062e9b7001e4fe800d7
:101acc004e4090008080fb00000320000088b9008d
:101adc00e60040004096200000804000104090003e
:101aec009e4f5000e3ff3e004e4090008080fb0074
:101afc00000320000088b900e6004000409620005a
:101b0c0000804000100078004300de00614060005f
:101b1c000081fb004e4090008080fb000003200001
:101b2c000088b900e400400040962000808040000e
:101b3c00820178001e0190000000eb00f401070008
:101b4c004e4090008080fb00000320000088b9000c
:101b5c00e600400040962000808040000040eb00f2
:101b6c00804878000e0037004e4090000040e8009e
:101b7c00404798004e409000e14f500033ff360034
:101b8c004e409000e24f500005003a009149800011
:101b9c008001eb001e0190000000eb00dc0107004f
:101bac007c0b070015003700a04980000000e800fe
:101bbc0090407800d2c9bf0080cf500002003200a4
:101bcc00740b07000d003700a04980000080e8006e
:101bdc0010407800f8050700605a28007c100700b8
:101bec00d2c9bf00bf1007006a0b07000300370003
:101bfc006369a800010037006369a80063c9bf00ce
:101c0c00644060000004e0000500320063c9bf00be
:101c1c00684060000004e000010032006349a90044
:101c2c0036c9bf000004e0000800320063c9bf00e1
:101c3c00704060000004e00004003a0063c9bf007b
:101c4c000042b2000004e000020032006369a90007
:101c5c00500b07000080fa00000006000800fa0094
:101c6c00300798000040eb0063e9b7000040eb0040
:101c7c00004f7800080037001e80fb006300b9009d
:101c8c008080e80000902000808040000040eb0045
:101c9c00804878001e4fe80010c0b3009e4f100023
:101cac00f5ff3600c31207000040eb0062e9b700f5
:101cbc000040eb00004f7800090037009e80fb00cd
:101ccc00000320000088b900e60040004096200088
:101cdc00808040000040eb00804878001e4fe800f8
:101cec0010c0b3009e4f1000f4ff36000040eb0014
:101cfc00004f7800070037001e80fb00818f20000a
:101d0c004200dd00010140006000b8000089be0007
:101d1c001e4fe80010c0b3009e4f1000f6ff3600b7
:101d2c00009d2000200798001e0090000010a000cd
:101d3c00100798001e0090000030a1000040a00089
:101d4c000050a1000060a100100798003e00900018
:101d5c00614060009e0090000080fb00610060000c
:101d6c004201dd00b0ff2f00808060008280700097
:101d7c00110798001e0090000000a10010079800a9
:101d8c001e009000ae00900054080700d2c9bf009e
:101d9c00440307000040eb00c4e9b700c4c9bf000e
:101dac000034a000c4e9b700d3c9bf000080fb0019
:101dbc004400dd0080407800c4c9bf0000c0700042
:101dcc00c4e9b70097a0a800100020000080fa001a
:101ddc00000006000600fa00004f78001e80fb0091
:101dec00200798002e009000e10f500012003200e6
:101dfc002e009000e20f50001a0032002e009000ce
:101e0c000000e000010032002c0037000040eb0025
:101e1c003a0b07000000e000040032006309a80040
:101e2c000000eb001007980026003700100020007f
:101e3c00100798002300370000c0eb002f0b0700a1
:101e4c000000e000040032006309a9000000eb0070
:101e5c00100798001b003700100020001007980096
:101e6c001800370000c0eb00240b07000000e00056
:101e7c0003003a00100020001007980011003700f2
:101e8c006309a900120007000000e00004003a00fa
:101e9c0020002000100798000a0037006cfc070097
:101eac0063c9bf00644060000004e000fbff3a001f
:101ebc000000eb001007980002003700f00f200024
:101ecc00100798001e0090000080fa000000060029
:101edc000800fa0062c9bf00104798003ac9bf0059
:101eec00004f78000040eb0062e9b700229620001a
:101efc00124178008280fb00a0932000808040007b
:101f0c0040c0b300804878000240e80062e9b700a6
:101f1c008001eb0012002000019020000000eb007b
:101f2c00fb0007000000e0000e0032006349a8002f
:101f3c000e80e800251207001e009000ae009000f5
:101f4c00404e8800514e88001e4078003ae9b70098
:101f5c001e40900062e9b700100020003007980086
:101f6c00060037001e4078003ae9b7001e4090008a
:101f7c0062e9b7000000eb00300798003e009000cb
:101f8c000080fa00000006001200fa00881f78009a
:101f9c0020079800310798004207980053079800d3
:101fac000040eb0020479800d00037002e409000f6
:101fbc008080fb00000320000088b900e600400090
:101fcc0040962000008040001000780061406000c6
:101fdc000004e000c2003a002e4090008080fb001c
:101fec00000320000088b900e60040004096200065
:101ffc00008040001000a0002e4090008080fb006c
:10200c002e00900061416000000320000088b900a0
:10201c00e600400040962000808040000280fb00db
:10202c006100600000014000d0ff2f0091086000ab
:10203c00910871002e4090008080fb004e009000b3
:10204c0061416000000320000088b900e6004000f8
:10205c0040962000808040000280fb006100600000
:10206c004201dd00b0ff2f00910860009108710063
:10207c002e4090008080fb005e009000614160006b
:10208c00000320000088b900e600400040962000c4
:10209c00808040000280fb00610060004301dd0095
:1020ac0070ff2f0091086000910871003e009000b5
:1020bc000000e0001b0032000040eb0010479800cd
:1020cc00140037002e4090000081fb001e40900051
:1020dc008081fb001e4090000080fb008000780097
:1020ec003e00900000804000104278000003200069
:1020fc000090b90003004000e4004000409620002e
:10210c0000804000044878001e4090000040e80029
:10211c00104798001e409000e14f5000e9ff360038
:10212c003b0037000040eb00004f78000040eb0014
:10213c0010479800230037001e4090000080fb00e1
:10214c006300b9008080e80000902000008040000f
:10215c001080fb004700de000004e0001600320097
:10216c001e4090000080fb006300b9008080e800f6
:10217c0000902000008040009040780061c060001a
:10218c000004e0000c003a002e4090008080fb0020
:10219c001e81fb00000320000088b90002004000f3
:1021ac00e400400040962000008040009e409000db
:1021bc00014878001e4fe8001e4090000040e800e7
:1021cc00104798001e409000e14f5000daff360097
:1021dc000c0037002e4090008080fb001e81fb001d
:1021ec00000320000088b90002004000e400400019
:1021fc00409620008080400000c0eb0080487800b2
:10220c001e4fe80010c0b3009e4f1000f1ff3600c7
:10221c002e4090008080fb00229620001241780016
:10222c00000320000088b900e60040004096200022
:10223c0000804000124098000040eb0010479800ce
:10224c00130037002e4090000081fb001e409000d0
:10225c008081fb001e4090008080fb00a09320003a
:10226c000080400010427800000320000090b9006c
:10227c0003004000e8004000409620000080400031
:10228c00044878001e4090000040e8001047980079
:10229c0021962000914078001e409000814f500004
:1022ac00e8ff39002e4090000084fb006c004700d2
:1022bc00461107006e019000fe0190000003200003
:1022cc0000c0b900800078004096200000804000db
:1022dc000288be0011002000010f98000800370092
:1022ec002e4090000040e800204798002e409000bf
:1022fc00e14f50002dff36000000eb00000f98005e
:10230c000e0890004f0478000080fa0000000600d0
:10231c001200fa0030079800410798005207980005
:10232c00630798000040eb00204798000040eb004a
:10233c00005798005e0090000000e00002003200a0
:10234c0012c0b300025798001e0090000e5190006e
:10235c008280fb0063816000c1ff2f0001006000e0
:10236c0002007000100798000040eb00704f9800be
:10237c003e0090000000e00002003a0012c0b300e2
:10238c00724f98009e0090007e4990000280fb00e6
:10239c00610060004501dd00f0fd2f0080806000d1
:1023ac0082807000110798003e0090006140600030
:1023bc009e0090000080fb00610060004201dd0087
:1023cc00b0ff2f00808060008280700011079800a1
:1023dc006e009000614060009e0090000080fb0049
:1023ec00610060004301dd0070ff2f008080600001
:1023fc0082807000110798000040eb00604f98003d
:10240c003e0090000000e00002003a0012c0b30051
:10241c00624f98009e0090006e4990000280fb0075
:10242c00610060004601dd00f0fb2f008080600041
:10243c0082807000110798001e00900063006000fd
:10244c00e10f500004003a001e0090000070a00044
:10245c0010079800030037001e0090000070a100c8
:10246c00100798004e0090002007980062c9bf002a
:10247c0080417800a29320001e009000ae009000d6
:10248c0019070700000f78000040eb0062e9b70065
:10249c001e0078000080fa00000006000400fa001c
:1024ac00100798000040eb00004f7800190037002f
:1024bc001e80fb006300b9008080e80000902000c3
:1024cc00008040001080fb004700de000004e000ac
:1024dc000f0032001e80fb006300b9008080e80012
:1024ec0000902000008040009040780061c06000a7
:1024fc000004e00006003a009e0190000001eb0091
:10250c008000eb00100020009ffe07000400370045
:10251c001e4fe80010c0b3009e4f1000e4ff3600c1
:10252c009e0190000001eb008000eb0010002000e9
:10253c0077ff07000080fa00000006000a00fa008e
:10254c0040479800310798004e4090000080fb00f7
:10255c006300b9008080e8000090200000804000fb
:10256c001080fb004700de000004e0002e0032006b
:10257c004e4090000080fb006300b9008080e800b2
:10258c0000902000008040009040780061c0600006
:10259c000004e00019003a000040eb00004f780006
:1025ac000c0037009e81fb004e4090000080fb0029
:1025bc001e81fb006300b9008200400000902000e7
:1025cc0000804000904078000e00e8008171780097
:1025dc001e4fe80010c0b3009e4f1000f1ff3600f4
:1025ec008e00e800be0190000001eb000000eb0043
:1025fc0065fe0700400798000d0037004e40900024
:10260c000080fb006300b90080007800009020007f
:10261c00008040003e0190001100200007000700e0
:10262c0040079800020037008000eb00410798003b
:10263c004e0090000080fa00000006000a00fa002c
:10264c001007980021079800320798000040eb0013
:10265c00004f7800230037001e80fb006300b90098
:10266c008080e80000902000008040001080fb007b
:10267c004700de000004e000190032001e80fb0061
:10268c006300b9008080e8000090200000804000ca
:10269c009040780061c060000004e00010003a0037
:1026ac001e80fb006300b9008000780000902000c1
:1026bc00808040001e009000160007000000e00023
:1026cc0007003200be0190000001eb009e0090005c
:1026dc000000eb002cfe0700400798000a003700b2
:1026ec001e4fe80010c0b3009e4f1000daff3600fa
:1026fc00be0190000001eb009e0090000000eb007a
:10270c0003ff0700400798004e0090000080fa007d
:10271c00000006000800fa00100798002107980036
:10272c000040eb00004f7800100037001e80fb00cb
:10273c00800078001e00900000804000104178005e
:10274c001e80fb00800078002e009000008040006e
:10275c0010407800804f5100030032000000eb0065
:10276c0030079800060037001e4fe80010c0b30079
:10277c009e4f1000edff360010002000300798002f
:10278c003e0090000080fa00000006000c00fa00e9
:10279c00204798003147980022079800330798008b
:1027ac002e4090000080fb00500798005e009000c7
:1027bc00e10f50000a0032005e009000e20f500062
:1027cc001a0032005e0090000000e00001003200b0
:1027dc00190037001000200040079800180037003f
:1027ec000e00e800000278008041eb003e419000b2
:1027fc002e009000be00900054020700004f78009d
:10280c001e407800a7000700c05b2800700d070071
:10281c001e407800b30d0700705e28006c0d070099
:10282c001000200040079800050037000000eb0066
:10283c0040079800020037000000eb0040079800aa
:10284c004e0090000080fa00000006001800fa000c
:10285c00404f9800514f9800d3c9bf0020479800b3
:10286c0030c0b300104798000040eb00004f7800d8
:10287c005e489000e14f500003003a00f10f200039
:10288c00310f98007f0037006e004700cf0f070014
:10289c007e0090008e089000200798003107980069
:1028ac002e019000be019000c0bd2000f1ff2f0052
:1028bc0002004000838048002007980031079800f0
:1028cc000040eb00d3e9b7006389a800640037002f
:1028dc0072004700bd0f07001e089000ae08900064
:1028ec0040079800510798004e019000de019000bf
:1028fc002e009000be009000000151008181590013
:10290c0040422f0001002000800f5100818f5900a0
:10291c004f0036004e009000de009000200798001b
:10292c00310798001e4fe90080c0eb009ecf1000cd
:10293c004b003a0010c0b300004f78001e409000ce
:10294c000040e900104798001e409000e14f400005
:10295c0004003a006389a900f00f2000300f9800a2
:10296c00480037000040eb0062e9b70022962000d7
:10297c00124178008280fb00a093200080804000f0
:10298c0010c8b300804878000240e80062e9b70044
:10299c0023962000934178008380fb00229d200029
:1029ac0012417800a093200000804000024878007b
:1029bc000340e80062e9b7002396200093417800b9
:1029cc008380fb00429c200012417800a0932000e1
:1029dc0000804000024878000340e80062e9b7003c
:1029ec004e489000e14f400006003a008001eb0099
:1029fc00120020008000eb001000200044fe0700b5
:102a0c00130037004e4890000080fb006a00b900ac
:102a1c00800078006090200000804000104078001a
:102a2c00200007004e4890000080fb006a00b900af
:102a3c008000780060902000008040008000e8005a
:102a4c008001eb00120020000000eb0030fe0700bc
:102a5c00250007000000e000010032000c00070018
:102a6c0063c9bf00704060000004e00098ff3a00aa
:102a7c002e409000d3e9b700c5c9bf000080fb0011
:102a8c00300f98003e0890000080fa00000006000d
:102a9c000000fa006369a900be0707000080fa0075
:102aac00000006000400fa00004f78008040eb00a4
:102abc001e407800cc0407000000e0000500320046
:102acc001e407800d2e9b7001000200010079800d3
:102adc00020037000000eb00100798001e00900069
:102aec000080fa00000006000000fa0058f9070008
:102afc0063c9bf000080fb004300de006140600042
:102b0c000080fb000080fa00000006000400fa00c0
:102b1c00204798002e409000e24f500016003600df
:102b2c00a05e2800aa0c07000040eb00104798009c
:102b3c000a0037001e4090000080fb00e1001000ee
:102b4c00009d20000080400010407800cd0c070054
:102b5c001e4090000040e800104798001e40900076
:102b6c00e14f5000f3ff3600d05f2800980c0700af
:102b7c00d2c9bf00db0c07002e409000e14f500083
:102b8c002f003e0090602800910c07002e40900012
:102b9c000080fb006300b9008080e80000902000fa
:102bac00008040001080fb004700de000004e000c5
:102bbc00570032002e409000b20c070090632800a2
:102bcc00830c07000040eb001047980014003700fe
:102bdc001e409000e14f50000c003e002e40900033
:102bec008080fb001e4090000080fb006101100003
:102bfc006308b90082004000009020000080400073
:102c0c00104078009f0c0700020037007064280009
:102c1c006f0c07001e4090000040e8001047980021
:102c2c001e409000e74f5000e9ff3600a0642800da
:102c3c00670c0700705e2800650c07003400370035
:102c4c00f0642800620c07000040eb00104798006d
:102c5c002c0037001e4090000080fb006300b90080
:102c6c008080e80000902000008040001080fb0075
:102c7c004700de000004e0001f0032001e40900000
:102c8c00800c070090632800510c07000040eb00fb
:102c9c00004f78001100370010c0b3009e4f100099
:102cac000b003e001e4090008080fb001e80fb004d
:102cbc00610110006308b900820040000090200000
:102ccc0000804000104078006e0c070002003700b6
:102cdc00706428003e0c07001e4fe80070c0b30063
:102cec009e4f1000ecff3600a0642800380c070043
:102cfc00705e2800360c07001e4090000040e80073
:102d0c00104798001e409000e14f5000d1ff360054
:102d1c000080fa00000006000600fa000040eb00fc
:102d2c001047980000c0eb00004f780036c9bf0078
:102d3c00e24f500003003e002000200020079800c6
:102d4c006c0037000040eb00204798002100370052
:102d5c002e4090000080fb006300b9008080e800ea
:102d6c0000902000008040001080fb004700de0037
:102d7c000004e0000f0032002e4090000080fb00a9
:102d8c006300b90080007800009020008080400033
:102d9c00904980005ffe07000000e0000a0032004e
:102dac002e409000004f780010c0b30010479800e0
:102dbc000b00370000c0eb009e4f100002003a00e1
:102dcc002e409000004f78002e4090000040e8000c
:102ddc00204798002e409000e14f5000dcff360059
:102dec0000c0eb009e4f100003003a00100f2000b3
:102dfc00200798003f003700d3c9bf000004e00053
:102e0c00040032001e4090000080fb002007980058
:102e1c00380037000040eb002047980010003700c6
:102e2c001e81fb002e4090008081fb0091498000a8
:102e3c002e4090000080fb00008040001042780083
:102e4c006310b90083004000009020000080400017
:102e5c00044878002e4090000040e800204798007d
:102e6c002e409000e74f5000edff36001e80fb0017
:102e7c006300b9008080e800009020008080400052
:102e8c0000c8b300914870009e80fb00a0498000f0
:102e9c000080e800104078006140600061416000f3
:102eac00614161006308b9008080e8000090200057
:102ebc000080400061416100e1cfb30010c86000a8
:102ecc00104871001e80fb00818f20004200dd0045
:102edc00010140006000b8000089be001e4078006f
:102eec00c5e9b7006389a9001e4090000080fb0073
:102efc00200798002e0090000080fa0000000600c9
:102f0c002200fa0000579800120f9800230f980027
:102f1c0010002000010020001007980021079800e5
:102f2c00d2c9bf00004f78000040eb00604798000a
:102f3c000b0037006e4090000080fb006a00b90067
:102f4c0080007800609020008080400000c0eb0082
:102f5c00804878006e4090000040e8006047980080
:102f6c006e409000e34f5000f2ff36000040eb0043
:102f7c00c6e9b7000040eb00604798006a003700d4
:102f8c006e4090000081fb001e009000ae0090008f
:102f9c00820178008301e900030033000000400047
:102fac0081804800fbff37001e099000ae0990009d
:102fbc00000278008102780002007800830078001b
:102fcc0000016200018062006102b800740f980079
:102fdc00051798007e0890008e109000c000dd0050
:102fec0000002000700f9800011798007e089000d8
:102ffc008e1090006112b800740f9800051798009d
:10300c007e0990008e119000020070008380700089
:10301c00e00f5000e08f580040003200106828008c
:10302c006b0b07006e409000ae0b07006e409000db
:10303c009cfe07000040eb0062e9b70022962000de
:10304c00124178008280fb00a09320008080400019
:10305c0070c8b300804878000240e80062e9b7000d
:10306c0023962000934178008380fb00229d200052
:10307c0012417800a09320000080400002487800a4
:10308c000340e80062e9b7008001eb001200200069
:10309c008000eb00100020009dfc0700760047002c
:1030ac00ca0d07003e089000ce089000400798001b
:1030bc00510798008cfe07000000e0000100320070
:1030cc0073fe07007a004700c00d07005e089000f1
:1030dc00ee08900060079800710798006e01900050
:1030ec00fe0190004e009000de00900000015100a7
:1030fc00818159000e5090000080fb00c200dd0061
:10310c0080532800008040001000be00800f51004a
:10311c00818f590001003e00e6ff37006e409000a1
:10312c000040e800604798006e409000ff4f500050
:10313c0093ff36001e4078005afe0700c6c9bf0038
:10314c000080fb000080fa00000006002a00fa0054
:10315c00200f9800310f9800025f9800135f9800c1
:10316c00540f980000c0eb00004f98001000200096
:10317c000100200020079800310798001e5890008d
:10318c000004e00003003200f00f2000201798002c
:10319c0086003700106928000d0b07000040eb007b
:1031ac00204f98007b0037002e4890000081fb00d8
:1031bc002e009000be009000820178008301e9008f
:1031cc00030033000000400081804800fbff370003
:1031dc002e099000be099000000278008102780050
:1031ec000200780083007800000162000180620018
:1031fc006102b80034179800451798003e109000f3
:10320c00ce109000c000dd000000200030179800a8
:10321c00411798003e109000ce1090006112b8003b
:10322c0034179800451798003e119000ce1190006d
:10323c000200700083807000e00f5000e08f580097
:10324c00510032000040eb00204798002e489000bf
:10325c0014fe07007c0047005c0d07006e08900010
:10326c00fe089000600798007107980010c0b3002a
:10327c00d905070030479800be4090002e409000c2
:10328c0080cf500002003600be41900023479800ca
:10329c00000220000e0040004c0d07000e109000a4
:1032ac009e109000000f9800110f98000e099000ce
:1032bc009e0990006e009000fe00900000015100ed
:1032cc00818159000e5890000080fb00c200dd0087
:1032dc0080532800008040001000be00800f510079
:1032ec00818f590001003e00e0ff3700806a280002
:1032fc00b70a07002e489000fa0a0700306b280026
:10330c00b30a07002e4090000080fb005200200002
:10331c00110009000280d800104798000040eb0013
:10332c00004f780003003700d0c2b300bf0a07007b
:10333c001e4fe8001e4090009e4f1000faff39000f
:10334c00606b2800a20a07002e409000cd0a0700ef
:10335c00ae4090000e48900080cf50000a00310023
:10336c002e429000044f9800ae4a9000154f9800e2
:10337c005e0890000000e000030032005e08900040
:10338c008e489000014878002e4890000040e800dc
:10339c00204f98002e489000ff4f500082ff3600bf
:1033ac001e4890000080fb00201798002e10900003
:1033bc000080fa00000006001400fa00204f98006c
:1033cc000040eb00004f78003b0037006c004700da
:1033dc00fe0c07006e009000fe0090001007980095
:1033ec002107980070004700f80c07000e089000a9
:1033fc009e08900030079800410798003e0190000d
:10340c00ce0190001e009000ae0090000001510013
:10341c0081815900c083270001002000800f5100da
:10342c00818f5900efff36000040eb0062e9b700d6
:10343c0022962000124178008280fb00a09320008d
:10344c008080400040c8b300804878000240e8000b
:10345c0062e9b70023962000934178008380fb003b
:10346c00229d200012417800a09320000080400093
:10347c00024878000340e80062e9b7002296200079
:10348c00124178008280fb00a09320000080400055
:10349c00ae489000014878000240e80062e9b700ad
:1034ac008001eb00120020008000eb0010002000d7
:1034bc0097fb07001e4fe80020c0b3009e4f100082
:1034cc00c2ff36002e48900076fd07000080fa00ff
:1034dc00000006002400fa0000579800120f980014
:1034ec00230f9800d2c9bf004047980076004700d0
:1034fc00b60c07003e089000ce08900040079800dc
:10350c005107980063a9a8000040eb0060479800a1
:10351c008c0037001000200001002000008fbe003e
:10352c000040eb0050479800710037007a004700cc
:10353c00a60c07005e089000ee089000600798004b
:10354c00710798006e019000fe0190004e009000f3
:10355c00de0090000001510081815900c0832700da
:10356c0001002000800f5100818f59005c00360053
:10357c006e009000fe0090004007980051079800e4
:10358c005e409000ff4f50005d003e00060037008b
:10359c005e4090000040e800504798005e4090006c
:1035ac00ff4f500063003e005e4090000081fb0026
:1035bc001e00be00820178008301e9000300330085
:1035cc000000400081804800fbff37001e0990007e
:1035dc00ae099000000278008102780002007800a9
:1035ec008300780000016200018062006102b80073
:1035fc0004179800151798000e1090009e1090005c
:10360c00c000dd0000002000001798001117980082
:10361c000e1090009e1090006112b80004179800d4
:10362c00151798000e1190009e119000020070006a
:10363c0083807000e00f5000e08f5800d4ff320000
:10364c00806b2800e20907005e409000250a070005
:10365c005e40900013fd07005e4090000040e800c3
:10366c00504798000040eb0062e9b700229620001a
:10367c00124178008280fb00a093200080804000e3
:10368c0070c8b300804878000240e80062e9b700d7
:10369c0023962000934178008380fb00229d20001c
:1036ac0012417800a093200000804000024878006e
:1036bc000340e80062e9b7000e5090000080fb0068
:1036cc006300b900800078000090200080804000ea
:1036dc008001eb00120020000000eb000cfb070047
:1036ec0001fd07000000e00001003200e8fc0700cb
:1036fc0063c9bf000042b2000004e0008bff3a0037
:10370c0063c9bf000042b2000004e00009003a00a7
:10371c00c06c2800ae090700d2c9bf00f109070030
:10372c00705e2800aa09070013002000730f980090
:10373c000c00370042f607006e4090000040e80095
:10374c00604798006e409000e24f500071ff3600c9
:10375c004e409000d3fc070063a9a9000002eb00c7
:10376c00740f98007e0890000080fa00000006009c
:10377c000a00fa002007980031079800d2c9bf0050
:10378c0020479800d3c9bf001047980030c0b30041
:10379c008f00070063004700000278008041eb00b7
:1037ac00a2c0b3002e009000be00900067fe070080
:1037bc00004f78001e409000850007002e409000be
:1037cc00b8fc07002e4090009e4f100003003a00fa
:1037dc000000eb00400798000a003700406f2800fb
:1037ec007b0907001e407800be090700705e2800a8
:1037fc00770907001e407800effe0700100020003c
:10380c00400798004e0090000080fa00000006006f
:10381c000800fa00604798006e409000e14f4000ad
:10382c003b003a000040eb00404798003400370062
:10383c004e4090000080fb006300b9008080e800df
:10384c0000902000008040001080fb004700de004c
:10385c000004e0001f0032000040eb0062e9b700fa
:10386c0022962000124178008280fb00a093200059
:10387c008080400020c8b300804878000240e800f7
:10388c0062e9b7004e4090000080fb006300b90075
:10389c008000780000902000808040008001eb00c8
:1038ac00120020000000eb0099fa07000000eb006a
:1038bc0010079800030037001e0090000000e8007d
:1038cc00100798009e009000e0ff2000808f5000b1
:1038dc00f9ff36004e4090000080fb006300b900f9
:1038ec008080e80000902000808040000040eb00c9
:1038fc00804878004e4090000040e8004047980017
:10390c004e409000e14f5000c9ff36002e003700aa
:10391c006e4090000080fb006300b9008080e800de
:10392c0000902000008040001080fb004700de006b
:10393c000004e000240032000040eb0062e9b70014
:10394c0022962000124178008280fb00a093200078
:10395c008080400020c8b300804878000240e80016
:10396c0062e9b7006e4090000080fb006300b90074
:10397c008000780000902000808040008001eb00e7
:10398c00120020000000eb0061fa07000000eb00c1
:10399c00000f7800010037001e0fe800e0ff200048
:1039ac009e0f1000fcff36006e4090000080fb0064
:1039bc006300b9008080e800009020008080400007
:1039cc000040eb00804878000080fa000000060000
:1039dc000200fa00004f780030c0b3009e4f100078
:1039ec0009003e001e407800d3e9b700c4c9bf00ef
:1039fc00ef406000d3c9bf000080fb004400dd0035
:103a0c0000c07000c4e9b7000080fa000000060096
:103a1c000200fa0000c2b30022000700004f780039
:103a2c001e80fb006f0060007900b9007900400037
:103a3c000080fa00000006000400fa00100798004d
:103a4c0097c0bf000080fb004500de0061406000b5
:103a5c00004f780097a0a900c442a9001e00900056
:103a6c004800de001f0b07001e0090001d0b070016
:103a7c00c442a8009e40780061c0600061406000b4
:103a8c004501dd007109200091407800f0cdb300b4
:103a9c0000c060000240700097e0b7000080fa00a0
:103aac00000006000400fa002047980097c0bf00f1
:103abc000080fb004500de0061406000004f780094
:103acc0097a0a900c442a900ae40900000c4b30066
:103adc0000c07000204798002e409000010b07009a
:103aec000e0b070010479800c442a8009e407800b7
:103afc0061c06000614060004501dd00710920007b
:103b0c0091407800f0cdb30000c06000024070001e
:103b1c0097e0b7001e4090000080fb000080fa0088
:103b2c00000006000400fa002047980097c0bf0070
:103b3c000080fb004500de0061406000004f780013
:103b4c0097a0a900c482a9002e409000e50a0700a6
:103b5c00c482a8009e40780061c060006140600093
:103b6c004501dd007109200091407800f0cdb300d3
:103b7c0000c060000240700097e0b7000080fa00bf
:103b8c00000006002200fa0000579800110f980060
:103b9c0030c0b30010479800800037000040eb00a5
:103bac00004f78000000eb00704e88000040eb00e6
:103bbc00304798001e0890000000e0001b00320007
:103bcc0080c2b300b7ff0700204798002e4090003a
:103bdc000080fb000000d10020479800ae40900010
:103bec0010c4b30080cf5000100036000040eb0032
:103bfc00006798003e409000e44f500002003600f1
:103c0c0010c0b300006798003e4090000040e800f0
:103c1c00304798000e6090000004e000e8ff32008e
:103c2c000000eb00700f98006600370097a0a90009
:103c3c0000c2b300f500070090ac21007eff070026
:103c4c000e509000b7ff07000040eb004047980073
:103c5c00090037004e4090008080fb00408b200014
:103c6c000080400010407800aeff07004e409000ee
:103c7c000040e80040479800ce4090000e50900065
:103c8c0080cf5000f3ff390000c8b300df000700fd
:103c9c0097a0a800604e80000000e00004003a00ed
:103cac0087c0bf000042b2000004e000f9ff320000
:103cbc000000eb00604e880000c2b300d300070088
:103ccc0000c6b300d1000700b4c8bf008080fb0061
:103cdc0000022000008060000000e0002c00340096
:103cec00b5c8bf007ae8b70074004700b70a0700f0
:103cfc002e089000be0890004007980051079800cd
:103d0c00704e80000000e000030032001000200024
:103d1c00300798002900370078004700ab0a0700ed
:103d2c004e089000de08900060079800710798001c
:103d3c006e019000fe0190004e009000de0090009d
:103d4c00000151008181590050c320000100200066
:103d5c00800f5100818f590001003e00e8ff3700b1
:103d6c000040eb00405f980030c0b3009e4f100045
:103d7c0002003e0010c0b300405f98001e4fe800e8
:103d8c004e5890000004e00086ff3a000300370014
:103d9c001000200030079800080037001e409000eb
:103dac000040e900104798001e409000e14f400091
:103dbc007aff3a000000eb00300798003e009000bc
:103dcc00700f98007e0890000080fa00000006003a
:103ddc000400fa00000f7800110798000000eb00b7
:103dec000080fa00000006000400fa00004f780082
:103dfc0011479800f0c1b3009e4f1000030036002d
:103e0c000000eb00100798001e00370040c6200091
:103e1c0009ff07009e80fb00a0702800614078001d
:103e2c008080fb0000e020000080700002ff070093
:103e3c009e80fb00a0722800614078008080fb000f
:103e4c000000210000807000fbfe070000c2b300e0
:103e5c006e00070060052000f7fe070000c4b300e9
:103e6c006a000700f0c02100f3fe070000c2b30097
:103e7c006600070000c6b3006400070010002000b5
:103e8c00100798001e0090000080fa000000060049
:103e9c000400fa00004f780070c0b3009e4f100071
:103eac00030036000000eb001007980008003700f4
:103ebc001e80fb000000400080007800004f2300b3
:103ecc0000807000dcfe0700100020001007980036
:103edc001e0090000080fa00000006000600fa00a8
:103eec0010079800210798001e009000ae0090006b
:103efc00b0438800c14388004001200073090700cb
:103f0c00c442a800c482a800300880007be8b70037
:103f1c0000c0eb007ce8b7000040eb00004f7800dd
:103f2c00090037009e80fb00b00320000088b90018
:103f3c008000780000802000808040000040eb0072
:103f4c00804878001e4fe80011c0b3009ecf1000cf
:103f5c00f4ff3600100020000100200040458800ce
:103f6c00514588000040eb00004f780008003700f6
:103f7c001e81fb009e80fb00e0812800e140780060
:103f8c00c08a200000004100014878001e4fe80064
:103f9c0070c0b3009e4f1000f5ff36000040eb00e0
:103fac00004f7800070037001e80fb0080004000a7
:103fbc00a074280000804000100078009efe0700ce
:103fcc001e4fe800f1c1b3009ecf1000f6ff360083
:103fdc0000c2b3000d0007006005200096fe07002c
:103fec0000c4b30009000700f0c0210092fe0700d6
:103ffc0000c6b3000500070087a0a90097a0a80081
:10400c00100020000080fa00000006000400fa00f6
:10401c00004f78001e80fb00100798000004200061
:10402c009e009000808f50001f0032000004200082
:10403c009e009000808f500008003c001e009000f5
:10404c000000e00022003200000220009e009000e0
:10405c00808f50001900320021003700000620002c
:10406c009e009000808f50000a0032000008200053
:10407c009e009000808f5000010032001800370025
:10408c00600920006cfe070000c8b3007de8b70093
:10409c00130037006007200067fe070000c6b3005e
:1040ac007de8b7000e0037006005200062fe0700b7
:1040bc0000c4b3007de8b70009003700600320009e
:1040cc005dfe070000c2b3007de8b70004003700b6
:1040dc006001200058fe07000040eb007de8b700af
:1040ec000080fa00000006000e00fa00200798007d
:1040fc003107980042079800234f9800ae48900073
:10410c0080c2b30080cf5000030036000000eb00eb
:10411c0060079800c80037002e0090004200de00b7
:10412c000000a200614060006140600061406000de
:10413c00ae0090000080fb00610060004601dd00d5
:10414c00f0fb2f00808060008280700021079800b7
:10415c002e00900063006000e10f500003003a0055
:10416c002e0090000070a000200798004e40900098
:10417c00b4e8b7007bc8bf00b5e8b7000040e80062
:10418c007be8b70020c0b30010479800ae00900049
:10419c0000042000008060000000e0001b003200e2
:1041ac000040eb0020479800100037001e409000a4
:1041bc000081fb00be0090002e4090000080fb00b0
:1041cc000080400090407800408b200000004100af
:1041dc00014878001e4090000040e800104798000d
:1041ec002e4090000040e800204798002e409000a0
:1041fc008080fb00b04380004300de006f40600015
:10420c000080fb00808f5000e8ff35002e009000ee
:10421c0001082000010060000000e0001b003200db
:10422c000040eb0020479800100037001e40900023
:10423c000081fb00c14380002e4090000080fb00f9
:10424c000080400090407800408b2000000041002e
:10425c00014878001e4090000040e800104798008c
:10426c002e4090000040e800204798002e4090001f
:10427c008080fb00b04380004300de006f40600094
:10428c000080fb00808f5000e8ff35002e0090006e
:10429c00680060000000e000480032000040eb00c5
:1042ac0020479800100037001e4090000081fb0052
:1042bc002e4090008080fb00808a2000008040000f
:1042cc0090407800408b20000000410001487800ad
:1042dc001e4090000040e800104798002e409000cf
:1042ec000040e800204798002e409000e34f50001b
:1042fc00edff3600404580005145800061004000d4
:10430c00e080480040458800514588001e409000e0
:10431c008080fb00408b2000808040000040eb0040
:10432c00804878001e4090000040e800104798003c
:10433c001e409000004f78000040eb002047980092
:10434c00110037001e4090000081fb002e409000b1
:10435c000080fb00800078004e0090000080400040
:10436c0090407800408b200000004100014878000c
:10437c001e4090000040e800104798002e4090002e
:10438c000040e80020479800ae4090002e48900076
:10439c0080cf5000ebff3900408b2000c38a2000f7
:1043ac002e4990009e407800930407001e40900018
:1043bc0000c0e80010479800180037000040eb00e0
:1043cc0020479800110037001e4090000081fb0030
:1043dc002e4090000080fb00800078004e00900082
:1043ec000080400090407800408b2000000041008d
:1043fc00014878001e4090000040e80010479800eb
:10440c002e4090000040e80020479800ae409000fd
:10441c002e48900080cf5000ebff3900b043800055
:10442c000000d100614060008080fb001e409000c5
:10443c00d4fd0700600798006e0090000080fa0021
:10444c00000006001200fa000040eb003047980014
:10445c00340037006c004700dc0807006e00900049
:10446c00fe00900020079800310798003e40900015
:10447c000080fb00c300dd000088200000804000ad
:10448c00100078000000e000230032002e019000a4
:10449c00be0190003e4090000080fb004300dd0018
:1044ac00e400400000882000008040001000be00a6
:1044bc00800f5100818f5900170036002e0190009b
:1044cc00be0190003e4090000080fb004300dd00e8
:1044dc00e400400000882000008040001000be0076
:1044ec00000151008181590040422f000100200041
:1044fc00800f5100818f5900070036003e4090001c
:10450c000080fb00c300dd0000882000808040009c
:10451c000000eb00800878003e4090000040e8006e
:10452c00304798003e409000e44f5000c9ff3600e1
:10453c007cc8bf00e14f4000030032000000eb00dc
:10454c00000f9800100137000040eb003047980036
:10455c00080137003e4090008080fb00b003200033
:10456c000088b900800078000080200000804000a6
:10457c009040780061c060000004e000fa00320056
:10458c003e4090008080fb00b00320000088b90002
:10459c0080007800108020000080400010407800df
:1045ac00eee8b7003e4090008080fb00b003200096
:1045bc000088b900a103200080804000008020000a
:1045cc000080400010407800f4e8b70020c0b30031
:1045dc002047980071478000000420000080600094
:1045ec000000e00007003200b04380004300de0012
:1045fc006f406000804078002e40900001404000e9
:10460c0020479800704780000108200001006000de
:10461c000000e000140032003e4090008080fb005f
:10462c00b00320000088b9008000780000802000d2
:10463c00008040008000e8002e4090000080fb00cd
:10464c000080400080478800b04380004300de00bb
:10465c006f406000804078002e4090000140400088
:10466c0020479800020037000000eb0080478800cc
:10467c0070478000680060000000e000a30032007a
:10468c003e4090008080fb002e4090000080fb009c
:10469c0064014000b00320000088b9008200400093
:1046ac001080200000804000104078000004e000e2
:1046bc000c0032003e4090008080fb00b0032000d4
:1046cc000088b900800078000080200080804000c5
:1046dc000040eb00804878000000eb00000f9800d1
:1046ec00a90037007047800001082000010060001d
:1046fc000000e000570032000040eb00104798002b
:10470c00180037001e4090000080fb006300b900c9
:10471c008080e80000902000008040001080fb00aa
:10472c004700de000004e0000b00320082478000ee
:10473c001e4090000080fb006300b90080007800f0
:10474c00009020000080400082007800f1f7070004
:10475c000000e00006003a001e4090000040e80017
:10476c00104798001e409000e14f5000e5ff3600c6
:10477c001e409000e14f500036003e000040eb0020
:10478c00004f7800110037001e82fb003e40900065
:10479c008081fb002e4090008080fb001e80fb007f
:1047ac0000814000b00320000098b9008200400056
:1047bc001080200000804000904078000e004200e5
:1047cc0068004000014878001e4fe80031c0b3007b
:1047dc009ecf1000ecff36001e4090000080fb00c6
:1047ec00818f20004200dd00010040001001be005e
:1047fc004e009000de009000800f5100818f590018
:10480c000c0036003e4090008080fb00b00320007e
:10481c000088b90080007800008020008080400073
:10482c000040eb00804878000000eb00000f98007f
:10483c00550037001e4090000080fb004e01900098
:10484c00de019000818f20004200dd00010040005d
:10485c000288be002e409000654040002047980022
:10486c003e4090008080fb00b00320000088b9001f
:10487c00a1032000808040000080200000804000c8
:10488c00904078002e40900000c150003e409000b7
:10489c008080fb00b00320000088b9008000780005
:1048ac0000802000008040000000e800c38a200047
:1048bc00ae4090009a0307000000e0000c003a00a4
:1048cc003e4090008080fb00b00320000088b900bf
:1048dc008000780000802000808040000040eb00c9
:1048ec00804878008000eb00010f9800260037000c
:1048fc00418f2000914078002e40900000c0500065
:10490c0000c0e900f4e8b70004003700f4c8bf00a9
:10491c00ae40900001405000f4e8b7003e409000db
:10492c008080fb00b00320000088b9008000780074
:10493c0000802000008040008000e8002e409000a5
:10494c000080fb0000804000904788007fc8bf00bb
:10495c00f5e8b7003e4090007ce8b700110020005d
:10496c00010f9800080037003e4090000040e8001e
:10497c00304798003e409000e14f5000f5fe360065
:10498c000000eb00000f98000e0890000080fa0069
:10499c00000006000000fa007cc8bf00e14f500088
:1049ac000b003e007cc8bf008080fb00b0032000e1
:1049bc000088b900800078000080200080804000d2
:1049cc000040eb008048780000c0eb007ce8b700aa
:1049dc000080fa00000006000c00fa00204f98003e
:1049ec000000eb00000f780064004700a17828005d
:1049fc0005000900315878006000b1000040eb0060
:104a0c00304798001f0037002e4890000004e0004b
:104a1c0007003a0080c2b30022fc07000080fb00b4
:104a2c000000d1000080fb001e0f40000900370081
:104a3c002e489000e14f500006003a0080c2b300af
:104a4c0018fc07000080fb000000d1000080fb0078
:104a5c001e0f40000040eb00204798000300370079
:104a6c002e4090000040e800204798002e40900017
:104a7c00e14f4000faff3a003e4090000040e80051
:104a8c00304798003e409000e14f4000deff3a0076
:104a9c001e0078004800de00000f78001e00780031
:104aac00a2002000110009000280d80030479800b5
:104abc003e409000e64f50000200360060c0b3004c
:104acc00304798003e4090000004e00002003a009d
:104adc0010c0b300304798003e4090000080fb00af
:104aec008000e9006400470000804000104078001e
:104afc000080fb000080fa00000006000800fa00ad
:104b0c00204798002e4090000080fb003007980052
:104b1c003e0090000000e00005003200f00f200085
:104b2c00be009000808f5000050032001900370045
:104b3c000040eb0035fd070097a0a90018003700d6
:104b4c0000c2b30031fd070000c6b3002ffd070003
:104b5c0097a0a800a00020005c0607000040eb0016
:104b6c00004f7800070037001e80fb00c300dd00fb
:104b7c0000882000808040000000eb008008780056
:104b8c001e4fe80040c0b3009e4f1000f6ff3600e9
:104b9c00030037008000eb0021079800020037006b
:104bac0010002000200798002e0090000080fa00d2
:104bbc00000006001800fa00889fbe0087c0bf00e6
:104bcc000042b2000004e0009e01320097c0bf001a
:104bdc000042b2000004e0009a013200d1872000ac
:104bec009140780000c6b30080cf500091013a008c
:104bfc0080c2b300abfb07000080fb000000d100bb
:104c0c007ee8b7007ec8bf007fe8b700c482a90069
:104c1c00c2060700104f9800c482a8000040eb00a9
:104c2c00004f98000e0037000e4890008080fb006b
:104c3c00b00320000088b9008000780000802000bc
:104c4c00008040009040780061c060000004e000eb
:104c5c00060032000e4890000040e800004f98001b
:104c6c000e489000e14f5000efff36001e489000b8
:104c7c00e24f500003003a0010002000200798007b
:104c8c00020037000000eb00200798009e489000bf
:104c9c0080c3b30080cf500009003e001e48900036
:104cac000004e000060032000e489000e14f500076
:104cbc00140036002e0090000000e00011003a00b5
:104ccc00a0c1b30077fb070020479800060037000f
:104cdc00c482a90091060700c482a800a0c1b30039
:104cec0070fb0700204798002e4090000080fb00ce
:104cfc000000d100610060000004e000f4ff3a0005
:104d0c004e0137000040eb00204f98001e489000e9
:104d1c000080fb0030079800420137003e009000f5
:104d2c000000e900300798002e0090000000e00021
:104d3c000c003200c482a9002e4890000084fb00b5
:104d4c0076060700804078006b00470001747800fd
:104d5c002e4890000040e800204f9800c482a80024
:104d6c0011003700c482a9000e4890000084fb009b
:104d7c002e4890008084fb006806070000417800f4
:104d8c00b003200000c0b900890040001080200052
:104d9c0000804000024878002e4890000040e80057
:104dac00204f9800c482a800ae4890001e48900086
:104dbc0080cf50001b0139002e0090000000e00055
:104dcc002a0032006b004700104078000080fb0086
:104ddc0063006000e20f50000a003a006b004700cd
:104dec00904090007ac8bf0080cf500002003a007b
:104dfc0010002000704e88000040eb00204f9800ff
:104e0c000e0137000e489000e14f500003003600b1
:104e1c000040eb00204f9800a9ff37000e4890008f
:104e2c008080fb006b00470010417800b00320002d
:104e3c000088b900800078001080200000804000bd
:104e4c00024878000e4890008080fb006b00470001
:104e5c0010419000b00320000088b9008000e800e9
:104e6c001080200000804000024878000e4890001e
:104e7c008080fb00b00320000088b900a103200053
:104e8c008080400000802000008040009e48900000
:104e9c000148780000c0eb00004f78000e489000ed
:104eac008080fb00b00320000088b90080007800ef
:104ebc001080200000804000104078000080fb0033
:104ecc004600de00610060000004e0002d003200ae
:104edc000040eb0010479800220037000e4890006d
:104eec008080fb001e4090000080fb000081e800e9
:104efc00b00320000088b900820040001080200020
:104f0c000080400010417800c14380001e4090009a
:104f1c000080fb000080400010407800804f510062
:104f2c000d0032000040eb00204f98000e4890001e
:104f3c008080fb00b00320000088b900a103200092
:104f4c008080400000802000808040000040eb000a
:104f5c00804878005aff37001e4090000040e8005f
:104f6c00104798001e4090008080fb00b0438000ea
:104f7c004300de006f4060000080fb00808f50001b
:104f8c00d6ff35000e4890008080fb00b003200057
:104f9c000088b9008000780010802000008040005c
:104fac00104078000080fb004500de0061006000ce
:104fbc000004e000330032000040eb001047980082
:104fcc000c0037001e4090000081fb001e4090003a
:104fdc008080fb00408b20000080400090407800d7
:104fec006b004700017178001e4090000040e80003
:104ffc00104798001e409000e14f5000f1ff360022
:10500c0060c0b300b4e8b7000e4890008080fb008d
:10501c00b00320000088b9008000e8001080200058
:10502c000080400010407800b5e8b70087a0a900c8
:10503c008000eb0020c0b300d2fa07000040eb0068
:10504c00104798000c0037001e4090000081fb00b8
:10505c001e4090008080fb006b004700e140780010
:10506c00408b200000004100014878001e40900059
:10507c000040e800104798001e409000e14f50009f
:10508c00f1ff36000040eb00104798003500370068
:10509c001e4090000080fb00c300dd000088200053
:1050ac0000804000100078000000e0001d0032007d
:1050bc001e4090000080fb004300dd008080e80073
:1050cc000088200000804000104178000e489000bd
:1050dc008080fb00b00320000088b9008000e8004d
:1050ec00108020000080400010407800804f51005c
:1050fc000c003a001e4090000084fb00700047003a
:10510c00b20507000e0990009e0990004340dd0097
:10511c00e400400000882000008040000288be00af
:10512c001300370000c0eb009e4f10000a003a003d
:10513c001e4090000080fb00c300dd0000882000b2
:10514c0000804000100078000000e00002003a00ef
:10515c009e409000014f78001e4090000040e800f7
:10516c00104798001e409000e44f5000c8ff3600d6
:10517c001e409000e44f50003000360040c0b30099
:10518c009e4f10001e003e001e80fb00c300dd0081
:10519c0000882000808040001000200080087800eb
:1051ac009e81fb000e4890008080fb00b003200025
:1051bc000088b9008000e8001080200000804000ca
:1051cc00104178004318dd008080e8000088200042
:1051dc0000804000024878001e84fb0074004700e9
:1051ec007a0507002e099000be0990004340dd00af
:1051fc00e400400000882000008040000288be00cf
:10520c000e4890008080fb00b00320000088b9009d
:10521c008000780000802000008040001004a00076
:10522c00060037003e0090000000e000bbfe3a0094
:10523c000200370010002000604e880087a0a900f3
:10524c00000000004f04be000080fa0000000600c1
:10525c000e00fa0050079800610798005e0090005d
:10526c0090007800410798005e0090000080e800f4
:10527c0090007800310798000000eb0020079800a0
:10528c0070e32900100798000040eb00004f7800f5
:10529c002e0037003e009000c400dd003e00900060
:1052ac004500de00808068003e00900000814000d8
:1052bc002e00900063006000000040008000780029
:1052cc006e00900000804000900078002e0090004e
:1052dc0000804000800069004e00900001004000fa
:1052ec0040079800ae0090001e0090000080400027
:1052fc00200798004e009000c400dd004e00900086
:10530c004500de00808068004e0090000081400067
:10531c002e0090004b00de00630060000000400097
:10532c00800078006e0090000080400090007800b3
:10533c002e00900000804000800069003e0090002c
:10534c0001004000300798001e4fe800f0c1b30088
:10535c009e4f1000cfff36005e009000ce009000f4
:10536c00010878005e0090000080e800be0090000c
:10537c00010878000080fa00000006000c00fa001a
:10538c00200798006147980042079800530798003f
:10539c006e4090000080fb004200de000040e80000
:1053ac00204798000040eb00104798003f00370062
:1053bc000040eb00004f78000a0037001e81fb0014
:1053cc001e80fb00800078005e0090000080400092
:1053dc0090407800409d200000004100014878007a
:1053ec001e4fe80020c0b3009e4f1000f3ff3600a4
:1053fc001e409000d7e9b700ce009000409d2000e1
:10540c0093ff07000040eb00004f780021003700ad
:10541c001e4090000080fb00c200dd001e80fb00df
:10542c00808040006e4090000080fb00808f500018
:10543c001b003d001e4090000080fb00c200dd0000
:10544c001e80fb0000804000800078002e00900041
:10545c00808140001e4090000080fb00c200dd00f7
:10546c001e80fb0000804000800078002e00900021
:10547c0000804000104178009e80fb00409d200081
:10548c00008040001040780000406900804978009e
:10549c001e4fe80030c0b3009e4f1000dcff3600fa
:1054ac001e4090000040e800104798009e4090007d
:1054bc002e40900080cf5000bdff39000080fa00d4
:1054cc00000006000c00fa002007980061479800c5
:1054dc0042079800530798006e4090000080fb0034
:1054ec004200de000040e800204798000040eb003e
:1054fc00104798000a0037001e4090000080fb0007
:10550c00800078005e009000808040000040eb003e
:10551c00804878001e4090000040e800104798003a
:10552c001e409000e34f5000f3ff36000040eb00ac
:10553c00104798002a0037000040eb00004f78001d
:10554c001e0037001e4090000080fb00c200dd00f2
:10555c001e80fb00808040006e4090000080fb00ad
:10556c00808f500018003d001e80fb0080007800ea
:10557c005e009000008140001e80fb0080007800df
:10558c005e00900000804000904178001e4090002a
:10559c000080fb00c200dd001e80fb00008040008c
:1055ac00800078002e0090000080400010407800b1
:1055bc0000c06900004978001e4fe80030c0b300fd
:1055cc009e4f1000dfff3600ce0090005e00900072
:1055dc001fff07001e4090000040e8001047980095
:1055ec009e4090002e40900080cf5000d2ff39009a
:1055fc000080fa00000006000c00fa00100798006a
:10560c00414798005247980033079800ce409000cd
:10561c005e40900080c04000439d20003e01900001
:10562c001e009000a7ff07000040eb00004f780021
:10563c00100037004e4090008080fb005e409000d0
:10564c000080fb00808040001e80fb00008040003a
:10565c00800078001e009000008140009e80fb00be
:10566c00409d2000008040001040780000497800e8
:10567c001e4fe80030c0b3009e4f1000edff360007
:10568c000040eb00004f7800140037009e80fb00b8
:10569c00510798004e4090009e4f100007003100bb
:1056ac001e80fb00800078001e00900000804000ef
:1056bc0010407800004f9800020037000040eb00cb
:1056cc00004f9800409d2000de00900000804000bc
:1056dc008e489000014878001e4fe80020c0b300af
:1056ec009e4f1000e9ff36005e4090006440400081
:1056fc00004278004e4090000080fb008000780053
:10570c001e00900000804000439d20003e01900050
:10571c008440780019ff07000080fa0000000600a2
:10572c000e00fa0010079800414798005247980065
:10573c00330798000040eb00004f7800140037004e
:10574c001e80fb00600798004e4090009e4f10009a
:10575c00070031001e80fb00800078001e009000c6
:10576c000080400010407800204f98000200370065
:10577c008040eb00214f9800409d2000ee009000ef
:10578c0000804000ae489000014878001e4fe800b1
:10579c0020c0b3009e4f1000e9ff36004e40900031
:1057ac000080fb00800078001e009000008040000c
:1057bc00439d20003e019000de409000effe07006c
:1057cc00ce4090005e40900000c0400000c0e90058
:1057dc0080407800439d20003e0190001e00900008
:1057ec0038ff07000040eb00004f78001600370030
:1057fc009e80fb00409d20000080400010417800fe
:10580c004e4090008080fb005e4090000080fb00ca
:10581c00808040001e80fb000080400080007800eb
:10582c001e009000008040000080e90010407800cd
:10583c00804f5100030032008000eb0041079800bc
:10584c00060037001e4fe80010c0b3009e4f10003a
:10585c00e7ff360011002000410798004e00900031
:10586c000080fa00000006000000fa000019200079
:10587c0001002000f8ea07000000eb000080fa00ad
:10588c00000006000400fa00004f78001147980051
:10589c00f5ff07000004e000fdff3a001e409000f9
:1058ac000004e00002003200c402a800010037002e
:1058bc00c402a900c862a900c842a900c822a90054
:1058cc00c802a9001e4078008040eb0021479800d8
:1058dc000004e00002003d0010c0b3002047980017
:1058ec00ae40900061c060004301dd00c12c20007f
:1058fc009140780070cfb30000c06000024070008f
:10590c00cce2b7001e80fb004600de006140600068
:10591c006140600061406000614060004201dd0058
:10592c00c12c200091407800b0cfb30000c06000c3
:10593c0002407000cce2b7001e80fb004500de0088
:10594c006140600061406000614060006140600047
:10595c0000414000c12c200091407800d0cfb30012
:10596c0000c0600002407000cce2b7001e80fb005b
:10597c004400de00614060006140600061406000f6
:10598c0061416000c12c200091407800e0cfb30051
:10599c0000c0600002407000cce2b70000000000c4
:1059ac00c422a8004000200001002000aaea070041
:1059bc00c422a9001e80fb004300de006140600091
:1059cc006140600061406000614060004301dd00a7
:1059dc00c12c20009140780070cfb30000c0600053
:1059ec0002407000cce2b7001e80fb004200de00db
:1059fc006140600061406000614060006140600097
:105a0c004201dd00c12c200091407800b0cfb300e2
:105a1c0000c0600002407000cce2b7001e80fb00aa
:105a2c000000d10061406000614060006140600096
:105a3c006140600000414000c12c20009140780082
:105a4c00d0cfb30000c0600002407000cce2b700c1
:105a5c009e40780061c06000614060006140600061
