:020000040000FA
:06000000D3EF2BF012000B
:020006001200E6
:0600080047EF28F0120092
:02000E000300ED
:1000100043580000AA000000020000004158000000
:10002000A8000000020000003C580000FB01000096
:0400300005000000C7
:0C003400D9CFE6FFE1CFD9FFE652190E4C
:10004000E66EE66A7C0EE66E1DEC2AF0E552E5529D
:10005000E5529E9A0101FB6BDF6ADF50006E016A78
:10006000013404E200503108000E015409E3DF506E
:10007000EA6A600FE96E000EEA22EF6ADF2AEDD726
:100080000001926B936B92C093F0926B380E946F59
:10009000956B94C095F0946B430E9413700E966F0D
:1000A000976B96C097F0966B850E9613A80E986F77
:1000B000996B98C099F0986BC70E9813E10E9A6FE0
:1000C0009B6B9AC09BF09A6B090E9A13E552E5520E
:1000D000E7CFD9FF1200AE50E66E0101FB51EA6A8C
:1000E000600FE96E000EEA22E552E750EF6E010E56
:1000F000FB25FB6FFB51006E016A310E001801E118
:10010000015001E1FB6BFB51E96EEA6AE906000E62
:10011000EA5A600EE926000EEA22EF50006E016AEC
:100120003A0E001801E1015002E056EF07F0FB51D2
:10013000E96EEA6A080EE95E000EEA5A600EE926E8
:10014000000EEA22EF500C6E0D6A4D0E0C1801E104
:100150000D5013E1FB51E96EEA6A070EE95E000EED
:10016000EA5A600EE926000EEA22EF500E6E0F6A80
:100170006F0E0E1801E10F5002E0000E01D0010ECB
:100180000A6E0B6A0A500B1013E0FB51E96EEA6A23
:10019000060EE95E000EEA5A600EE926000EEA221B
:1001A000EF50106E116A6E0E101801E1115002E04E
:1001B000000E01D0010E086E096A0850091013E004
:1001C000FB51E96EEA6A050EE95E000EEA5A600E1E
:1001D000E926000EEA22EF50126E136A690E121819
:1001E00001E1135002E0000E01D0010E066E076A15
:1001F0000650071013E0FB51E96EEA6A040EE95E4F
:10020000000EEA5A600EE926000EEA22EF50146E44
:10021000156A740E141801E1155002E0000E01D0A9
:10022000010E046E056A0450051013E0FB51E96EDF
:10023000EA6A030EE95E000EEA5A600EE926000E35
:10024000EA22EF50166E176A6F0E161801E117506A
:1002500002E0000E01D0010E026E036A025003108C
:1002600013E0FB51E96EEA6A020EE95E000EEA5AFB
:10027000600EE926000EEA22EF50186E196A720E1F
:10028000181801E1195002E0000E01D0010E006EB5
:10029000016A0050011008E00001010EA36F000187
:1002A000060EA46F54EF07F0FB51E96EEA6A080EE0
:1002B000E95E000EEA5A600EE926000EEA22EF50CF
:1002C0000C6E0D6A4C0E0C1801E10D5013E1FB5140
:1002D000E96EEA6A070EE95E000EEA5A600EE92648
:1002E000000EEA22EF500E6E0F6A650E0E1801E145
:1002F0000F5002E0000E01D0010E0A6E0B6A0A5088
:100300000B1013E0FB51E96EEA6A060EE95E000E7F
:10031000EA5A600EE926000EEA22EF50106E116ACA
:10032000630E101801E1115002E0000E01D0010E21
:10033000086E096A0850091013E0FB51E96EEA6A79
:10034000050EE95E000EEA5A600EE926000EEA226A
:10035000EF50126E136A740E121801E1135002E08E
:10036000000E01D0010E066E076A0650071013E05A
:10037000FB51E96EEA6A040EE95E000EEA5A600E6D
:10038000E926000EEA22EF50146E156A750E141855
:1003900001E1155002E0000E01D0010E046E056A65
:1003A0000450051013E0FB51E96EEA6A030EE95EA2
:1003B000000EEA5A600EE926000EEA22EF50166E91
:1003C000176A720E161801E1175002E0000E01D0F4
:1003D000010E026E036A0250031013E0FB51E96E36
:1003E000EA6A020EE95E000EEA5A600EE926000E85
:1003F000EA22EF50186E196A610E181801E11950BF
:1004000002E0000E01D0010E006E016A00500110E2
:1004100008E00001010EA36F0001070EA46F54EF66
:1004200007F0FB51E96EEA6A080EE95E000EEA5A2F
:10043000600EE926000EEA22EF500C6E0D6A520E95
:100440000C1801E10D5013E1FB51E96EEA6A070E49
:10045000E95E000EEA5A600EE926000EEA22EF502D
:100460000E6E0F6A650E0E1801E10F5002E0000ECD
:1004700001D0010E0A6E0B6A0A500B1013E0FB51FB
:10048000E96EEA6A060EE95E000EEA5A600EE92697
:10049000000EEA22EF50106E116A710E101801E181
:1004A000115002E0000E01D0010E086E096A0850DA
:1004B000091013E0FB51E96EEA6A050EE95E000ED1
:1004C000EA5A600EE926000EEA22EF50126E136A15
:1004D000750E121801E1135002E0000E01D0010E5A
:1004E000066E076A0650071013E0FB51E96EEA6AD0
:1004F000040EE95E000EEA5A600EE926000EEA22BA
:10050000EF50146E156A650E141801E1155002E0E3
:10051000000E01D0010E046E056A0450051013E0B0
:10052000FB51E96EEA6A030EE95E000EEA5A600EBC
:10053000E926000EEA22EF50166E176A730E16189F
:1005400001E1175002E0000E01D0010E026E036AB5
:100550000250031013E0FB51E96EEA6A020EE95EF5
:10056000000EEA5A600EE926000EEA22EF50186EDD
:10057000196A740E181801E1195002E0000E01D03A
:10058000010E006E016A005001100BE00001010E27
:10059000A36F0001060EA46F0101010EFC6F54EF62
:1005A00007F0FB51E96EEA6A080EE95E000EEA5AAE
:1005B000600EE926000EEA22EF500C6E0D6A4C0E1A
:1005C0000C1801E10D5013E1FB51E96EEA6A070EC8
:1005D000E95E000EEA5A600EE926000EEA22EF50AC
:1005E0000E6E0F6A650E0E1801E10F5002E0000E4C
:1005F00001D0010E0A6E0B6A0A500B1013E0FB517A
:10060000E96EEA6A060EE95E000EEA5A600EE92615
:10061000000EEA22EF50106E116A650E101801E10B
:10062000115002E0000E01D0010E086E096A085058
:10063000091013E0FB51E96EEA6A050EE95E000E4F
:10064000EA5A600EE926000EEA22EF50126E136A93
:10065000720E121801E1135002E0000E01D0010EDB
:10066000066E076A0650071013E0FB51E96EEA6A4E
:10067000040EE95E000EEA5A600EE926000EEA2238
:10068000EF50146E156A430E141801E1155002E084
:10069000000E01D0010E046E056A0450051013E02F
:1006A000FB51E96EEA6A030EE95E000EEA5A600E3B
:1006B000E926000EEA22EF50166E176A6E0E161823
:1006C00001E1175002E0000E01D0010E026E036A34
:1006D0000250031013E0FB51E96EEA6A020EE95E74
:1006E000000EEA5A600EE926000EEA22EF50186E5C
:1006F000196A740E181801E1195002E0000E01D0B9
:10070000010E006E016A005001103CE00001010E74
:10071000A36F0001070EA46F0001FE0EA86FA96968
:10072000C70E006E4E0E016E026A00C0E6FF01C0E9
:10073000E6FF02C0E6FFD1EC29F0E552E552E552B2
:10074000E4C100F0E5C101F0010E0F0B05E0D89007
:1007500001320032E806FBE100C0E6FF01C0E6FF1F
:10076000BD0E026E4E0E036E046A02C0E6FF03C0A9
:10077000E6FF04C0E6FFD1EC29F0056E050EE15E50
:10078000055092D3FB51E96EEA6A080EE95E000E4D
:10079000EA5A600EE926000EEA22EF500C6E0D6A4E
:1007A0004C0E0C1801E10D5013E1FB51E96EEA6AA1
:1007B000070EE95E000EEA5A600EE926000EEA22F4
:1007C000EF500E6E0F6A650E0E1801E10F5002E039
:1007D000000E01D0010E0A6E0B6A0A500B1013E0D6
:1007E000FB51E96EEA6A060EE95E000EEA5A600EF7
:1007F000E926000EEA22EF50106E116A650E1018FD
:1008000001E1115002E0000E01D0010E086E096AEC
:100810000850091013E0FB51E96EEA6A050EE95E23
:10082000000EEA5A600EE926000EEA22EF50126E20
:10083000136A720E121801E1135002E0000E01D08B
:10084000010E066E076A0650071013E0FB51E96EB1
:10085000EA6A040EE95E000EEA5A600EE926000E0E
:10086000EA22EF50146E156A440E141801E1155077
:1008700002E0000E01D0010E046E056A045005105E
:1008800013E0FB51E96EEA6A030EE95E000EEA5AD4
:10089000600EE926000EEA22EF50166E176A610E0E
:1008A000161801E1175002E0000E01D0010E026E91
:1008B000036A0250031013E0FB51E96EEA6A020E6C
:1008C000E95E000EEA5A600EE926000EEA22EF50B9
:1008D000186E196A740E181801E1195002E0000E22
:1008E00001D0010E006E016A0050011001E1DCD25E
:1008F0000001010EA36F0001070EA46F00019251C9
:100900000101E45D000193510101E55901E2CBD2FF
:10091000010EE66EFF0EE66E010EE66E92C0E6FF79
:1009200093C000F0016A0050E66EA00EE66EABECDC
:1009300019F0026E060EE15E0250FFC1FDF1FDC12D
:10094000FEF10101FD6B010EE66EFF0EE66E010E7B
:10095000E66E010E00019225E66E93C000F0016A7A
:100960000050E66EA00EE66EABEC19F0026E060EBD
:10097000E15E02500101FF51006E016A0050FD135B
:100980000150FE130001FE0EA86FA969B70E006E9C
:100990004E0E016E026A00C0E6FF01C0E6FF02C013
:1009A000E6FFD1EC29F0E552E552E552FDC1E6FF44
:1009B000FEC1E6FFAD0E006E4E0E016E026A00C073
:1009C000E6FF01C0E6FF02C0E6FFD1EC29F0036EAE
:1009D000050EE15E03500101FD6BFE6B010EE66E3C
:1009E000FF0EE66E010EE66E94C0E6FF95C000F0C5
:1009F000016A0050E66EA00EE66EABEC19F0026ED6
:100A0000060EE15E0250FFC1FDF1FDC1FEF10101E4
:100A1000FD6B010EE66EFF0EE66E010EE66E94C0F3
:100A2000E6FF95C000F0016A0050E66EA00EE66E8B
:100A3000ABEC19F0026E060EE15E02500101FF51AF
:100A4000006E016A0050FD130150FE13A80E006EE7
:100A50004E0E016E026A00C0E6FF01C0E6FF02C052
:100A6000E6FFD1EC29F0E552E552E552FDC1E6FF83
:100A7000FEC1E6FFAD0E006E4E0E016E026A00C0B2
:100A8000E6FF01C0E6FF02C0E6FFD1EC29F0036EED
:100A9000050EE15E03500101FD6BFE6B010EE66E7B
:100AA000FF0EE66E010EE66E96C0E6FF97C000F000
:100AB000016A0050E66EA00EE66EABEC19F0026E15
:100AC000060EE15E0250FFC1FDF1FDC1FEF1010124
:100AD000FD6B010EE66EFF0EE66E010EE66E010E78
:100AE00000019625E66E97C000F0016A0050E66EA0
:100AF000A00EE66EABEC19F0026E060EE15E02503F
:100B00000101FF51006E016A0050FD130150FE13F8
:100B1000A20E006E4E0E016E026A00C0E6FF01C01A
:100B2000E6FF02C0E6FFD1EC29F0E552E552E552BE
:100B3000FDC1E6FFFEC1E6FFAD0E006E4E0E016E7A
:100B4000026A00C0E6FF01C0E6FF02C0E6FFD1EC8A
:100B500029F0036E050EE15E03500101FD6BFE6B93
:100B6000010EE66EFF0EE66E010EE66E98C0E6FF21
:100B700099C000F0016A0050E66EA00EE66EABEC84
:100B800019F0026E060EE15E0250FFC1FDF1FDC1DB
:100B9000FEF10101FD6B010EE66EFF0EE66E010E29
:100BA000E66E010E00019825E66E99C000F0016A1C
:100BB0000050E66EA00EE66EABEC19F0026E060E6B
:100BC000E15E02500101FF51006E016A0050FD1309
:100BD0000150FE139C0E006E4E0E016E026A00C0A4
:100BE000E6FF01C0E6FF02C0E6FFD1EC29F0E552C6
:100BF000E552E552FDC1E6FFFEC1E6FFAD0E006E17
:100C00004E0E016E026A00C0E6FF01C0E6FF02C0A0
:100C1000E6FFD1EC29F0036E050EE15E0350010101
:100C2000FD6BFE6B010EE66EFF0EE66E010EE66ECC
:100C30009AC0E6FF9BC000F0016A0050E66EA00E6D
:100C4000E66EABEC19F0026E060EE15E0250970EF6
:100C5000006E4E0E016E026A00C0E6FF01C0E6FFA4
:100C600002C0E6FFD1EC29F0E552E552E552010160
:100C7000FF51E66EE66AAD0E006E4E0E016E026A20
:100C800000C0E6FF01C0E6FF02C0E6FFD1EC29F09C
:100C9000036E050EE15E0350010EE66EFF0EE66E7A
:100CA000010EE66E010E00019A25E66E9BC000F073
:100CB000016A0050E66EA00EE66EABEC19F0026E13
:100CC000060EE15E0250930E006E4E0E016E026A39
:100CD00000C0E6FF01C0E6FF02C0E6FFD1EC29F04C
:100CE000E552E552E5520101FF51E66EE66AAD0EAE
:100CF000006E4E0E016E026A00C0E6FF01C0E6FF04
:100D000002C0E6FFD1EC29F0036E050EE15E035050
:100D1000010EE66EFF0EE66E010EE66E020E00019B
:100D20009A25E66E9BC000F0016A0050E66EA00EA8
:100D3000E66EABEC19F0026E060EE15E02508D0E0F
:100D4000006E4E0E016E026A00C0E6FF01C0E6FFB3
:100D500002C0E6FFD1EC29F0E552E552E55201016F
:100D6000FF51E66EE66AAD0E006E4E0E016E026A2F
:100D700000C0E6FF01C0E6FF02C0E6FFD1EC29F0AB
:100D8000036E050EE15E0350010EE66EFF0EE66E89
:100D9000010EE66E030E00019A25E66E9BC000F080
:100DA000016A0050E66EA00EE66EABEC19F0026E22
:100DB000060EE15E0250860E006E4E0E016E026A55
:100DC00000C0E6FF01C0E6FF02C0E6FFD1EC29F05B
:100DD000E552E552E5520101FF51E66EE66AAD0EBD
:100DE000006E4E0E016E026A00C0E6FF01C0E6FF13
:100DF00002C0E6FFD1EC29F0036E050EE15E035060
:100E0000010EE66EFF0EE66E010EE66E040E0001A8
:100E10009A25E66E9BC000F0016A0050E66EA00EB7
:100E2000E66EABEC19F0026E060EE15E0250800E2B
:100E3000006E4E0E016E026A00C0E6FF01C0E6FFC2
:100E400002C0E6FFD1EC29F0E552E552E55201017E
:100E5000FF51E66EE66AAD0E006E4E0E016E026A3E
:100E600000C0E6FF01C0E6FF02C0E6FFD1EC29F0BA
:100E7000036E050EE15E03500101FF6B020E0001DF
:100E80009227000E9323020E9427000E9523020E44
:100E90009627000E9723020E9827000E9923050E21
:0E0EA0009A27000E9B2300D00101FB6B12006D
:020EAE0093ECC3
:100EB0000CF0FB0EDBCFF3FFDB06F35000090AE07A
:100EC000E1EC0CF0FA0E4CEC0DF0F3E1011CF1E159
:100ED000010E01D0000EC2EF0CF093EC0CF03B0EB3
:100EE000E12402E3E168E652E16E010EDB6A020EE4
:100EF000DB6AF90EDBCFF6FFFA0EDBCFF7FFFB0E56
:100F0000DBCFF8FF0800F550DF6EDF5002E1E6EFBF
:100F10000BF0250EDF5C02E0D9EF0BF0030EDB6A6D
:100F2000040EDB6A050EDB6A060EDB6A070EDB6A5F
:100F3000FBEC0BF02D0EDF5C0CE02B0EDF5C09E010
:100F4000200EDF5C06E0230EDF5C03E0300EDF5C8A
:100F50001AE1DF50300A14E0130A0FE0030A0AE036
:100F60000B0A05E0060AE4E1030EDB80E1D7030E7D
:100F7000DB82DED7030EDB84DBD7030EDB86D8D71C
:100F8000030EDB88D5D72A0EDF5C1BE1F7EC0BF0F4
:100F900045EC0CF010E0030EDB8026682768130E8A
:100FA000DBCF2BF0140EDBCF2CF055EC29F0040E28
:100FB00024C0DBFF03D0130E2EEC0CF0FBEC0BF087
:100FC0000BD0090EDB6A9CEC0CF003E010EC0DF08A
:100FD000FAD7090E2EEC0CF0030EDBB0DB982E0EC8
:100FE000DF5C1BE1FBEC0BF02A0EDF5C0BE1F7ECA6
:100FF0000BF045EC0CF003E1130E80EC0CF0FBEC75
:101000000BF00BD0090EDB6A9CEC0CF003E010EC4B
:101010000DF0FAD7090E80EC0CF0680EDF5C07E1EA
:10102000FBEC0BF0680EDF5C1DE1030E18D0740EB4
:10103000DF5C17E07A0EDF5C14E0480EDF5C06E050
:10104000540EDF5C03E05A0EDF5C02E1020E07D0B3
:101050006C0EDF5C03E06A0EDF5C04E1010ED3EC92
:101060000CF0C9DBDF506E0A01E17FD31E0A01E1FB
:1010700092D1200A01E18FD13F0A01E149D11A0A38
:1010800001E146D10D0A01E143D1200A01E140D13D
:101090003A0A01E13DD1200A01E13AD1260A01E1F3
:1010A00035D10D0A01E132D11A0A01E1D9D0200A65
:1010B0004AE0300A1FE0460A0EE0250A01E083D329
:1010C000D950F90FE96EFF0EDA20EA6E010EEE5EDE
:1010D000000EEE5AEE5AE1EC0CF0250EE66E95DBB2
:1010E00003E1011C01E169D3DDEC0CF001E26BD3FB
:1010F000DB2A69D3080EDB6A040EDB50010806E226
:10110000040EDB04A5EC0CF0DB508BDB080EDB508F
:1011100009E0030EDB50010B05E172DB01E04DD36A
:10112000080EDB6A64DBEFCFDFFF55EC0DF003E167
:10113000011C01E142D3DDEC0CF001E3DB2A60DBB2
:1011400001E141D33AD3070EDB5002080FE121EC55
:101150000DF0030EE8EC0CF00E0EEECFDBFF0F0EE1
:10116000EECFDBFF100EEECFDBFF20D0F70EDBCF94
:1011700003F0F80EDBCF04F0020E035E000E045AFB
:10118000F70E03C0DBFFF80E04C0DBFF03C0E9FF6E
:1011900004C0EAFFD8EC0CF0026A0E0E00C0DBFFC0
:1011A0000F0E01C0DBFF100E02C0DBFF0E0EDBCF07
:1011B000E6FF0F0EDBCFE6FF100EDBCFE6FFEAEC1B
:1011C0002AF0E552E552E552130E25C0DBFF140E5E
:1011D00026C0DBFF060EDB5005E0130E1CEC0DF005
:1011E00001E26ADB40EC0DF002E2130E37DB03ECA8
:1011F0000DF006E0040E1CEC0DF002E2050E2EDBF5
:10120000030EDBB005D0FCDA01E0D7D2080EDB6AB2
:10121000090EDB6A0E0EDBCFF6FF0F0EDBCFF7FFFA
:10122000100EDBCFF8FF0800F550DF6EDF5014E042
:1012300046EC0DF011E255EC0DF003E1011C01E16B
:10124000BCD2BBDB01E3DB2A090EDB2AD9500E0F2F
:10125000E96E000ECBDBE7D7D3DA01E1B4D2ADD231
:10126000C6DA110EEECFDBFF120EEDCFDBFF110E53
:10127000DBCFE6FF120EDBCFE6FFDCEC2AF0E55217
:10128000E552130EF3CFDBFF140EF4CFDBFF060E97
:10129000DB5004E0130ED0DB01E20EDB40EC0DF07E
:1012A00002E2130EDBDAAFDB05E0040EC5DB02E27F
:1012B000050ED4DA030EDBB005D0A2DA01E07DD250
:1012C000080EDB6A090EDB6A110EDBCFE9FF120E96
:1012D000DBCFEAFFEFCFDFFFDF5014E0D7DB12E216
:1012E000E4DB03E1011C01E168D267DB01E3DB2AF7
:1012F000090EDB2A110EDB2ADBCFE9FF120EE8E331
:10130000DB2AE6D77DDA01E15ED257D2030EDB8E0F
:10131000070EDB0410E195DB040E5ADB0A0EEECF5C
:10132000DBFF0B0EEECFDBFF0C0EEECFDBFF0D0E67
:10133000EECFDBFF6CD0070EDB5003082CE1030E71
:10134000DBAE0DD0B2DA020E76DAEFCF00F0016A32
:10135000026A036A00AE39D00168026835D0F70E20
:10136000DBCF01F0F80EDBCF02F0020E015E000EC3
:10137000025AF70E01C0DBFFF80E02C0DBFF01C00E
:10138000E9FF02C0EAFFEFCF00F00A0E00C0DBFF6A
:101390000B0EDB6A38D0070EDB50020809E1030EA2
:1013A000DBAE04D059DB02AE10D00ED055DB0DD031
:1013B000030EDBAE12D079DA020E3DDAF9DA026AF8
:1013C000036A01AE02D002680368E2DA0C0E02C0C2
:1013D000DBFF0D0E03C0DBFF1AD0F70EDBCF02F0F0
:1013E000F80EDBCF03F0020E025E000E035AF70E7A
:1013F00002C0DBFFF80E03C0DBFF02C0E9FF03C041
:10140000EAFFD6DAC5DA0C0EDB6A0D0EDB6A060ED1
:10141000DB5005E1010EF36E050EF3CFDBFF150E79
:10142000DB6A160EDB6AD950370F006E000EDA2029
:10143000016E390E00C0DBFF3A0E01C0DBFF380E33
:10144000DB6A080EDB6A0A0EAEDADF50780A12E0B9
:10145000200A10E0280A0CE0200A0AE03F0A06E011
:101460000D0A02E0200A08E1020E05D0080E03D0A2
:10147000080EDF26100E97DA030EDBBE02D0DB92D9
:10148000DB94DB50800B24E08ADAD890030EEB501B
:10149000000A08E6000EEE5C000EEE58000EEE5854
:1014A000000EEE5815E213DA29682A682B682C68BA
:1014B000A4EC2AF00A0E20C0DBFF0B0E21C0DBFFDC
:1014C0000C0E22C0DBFF0D0E23C0DBFF2D0E08D05B
:1014D000030EDBA202D02B0E03D0DBA408D0200E1B
:1014E000F36E170EF3CFDBFF150EDB2A02D0170EBB
:1014F000DB6A050EDB5003E1B7D901E189D0160E96
:10150000006E580E016E000E026E070EDBCF03F068
:10151000046A056A066A03C029F004C02AF005C0FF
:101520002BF006C02CF0D3D93BEC2BF0005020243C
:10153000F36E01502120F46E02502220F86EF4CF99
:10154000F7FFF3CFF6FF0800090EF5CFDBFF580ECB
:10155000DF5C0FE1610EF36E090E7BD90AE3200E0A
:10156000006E090EDBCFE7FF0050E75E090EE7CF04
:10157000DBFF070EDBCF00F0016A026A036A0FDAB5
:1015800000C029F001C02AF002C02BF003C02CF0EB
:10159000EECF24F0EECF25F0EECF26F0EFCF27F000
:1015A0003BEC2BF027C0EDFF26C0EDFF25C0EDFF83
:1015B00024C0EFFF390EDBCFE9FFDB063A0EDBCFAD
:1015C000EAFF01E2DB06090EDBCFEFFF150EDB2A97
:1015D0004BD995E1030EDBA61DD06F0EDF5C06E153
:1015E000C1D918E3150EDB285BDA14D0780EDF5C66
:1015F00009E0580EDF5C06E0620EDF5C03E0420E9D
:10160000DF5C08E1020EF36E160EF3CFDBFF02D0B3
:10161000150EDB6A030EDB50100B0EE0040EDBCF61
:1016200000F0050EDB50D880005406E2060EDB50B9
:1016300003E1040EDB5034DA95D90AE2050EDBCF64
:10164000E7FF150EDB50E75E050EE7CFDBFF02D0AC
:10165000050EDB6A040EDBCF00F0160E45D9D880EC
:10166000005414E2160EDBCFE6FF150EDBCFE6FFCB
:10167000040EDBCFE6FF050EDB50E552E75CE552DA
:10168000D880E754E552D880E7545FD9030EDB5089
:10169000010B0BE1080EDB5008E0B2D801E08DD061
:1016A000080EDB50BED8080EDB6A170EDB5007E0D1
:1016B00088D9170EF1D903E1011C01E17ED0160E85
:1016C000DB5016E07ED9300EE66E9FD802E1011C99
:1016D00074E077D9DFCFE6FF62EC2AF0E552E552FD
:1016E000E552F4CF01F00001F31C02E1011C65E0BA
:1016F000050EDBCF00F0160EDB50D880005409E257
:10170000050EDBCFE7FF160EDB50E75E050EE7CFD9
:10171000DBFF300EE66E050ECBD94FE1390EDB2A2A
:10172000DBCFE9FF3A0E01E3DB2ADBCFEAFF090E4C
:10173000EFCFDBFFDB500EE044D9090EADD902E15B
:10174000011C3BE0390EDB2ADBCFE9FF3A0EEDE36B
:10175000DB2AEBD755D831E1160EDBCFE6FF080EBA
:10176000C3D8E552E7245DD82ED0070EDB50030A1C
:101770001CE0010A14E0030A07E07BD9DBCFEEFF8F
:10178000020EDBCFEDFF1FD0F5D8056A03AE02D005
:10179000046805682CD8BCD805C0EEFF14D0EAD880
:1017A00003BE046824D8B4D80ED063D9DBCFEFFFD2
:1017B0000AD07BD905E1011C03E1F368F46810D07D
:1017C000FCD801E3DB2A79D982EF07F0010EDBCFE9
:1017D00000F0020EDBCF01F000C0F3FF01C0F4FF08
:1017E0003B0EE15C02E2E16AE552E16ECBD029D921
:1017F000020EE8EF0CF061D90800F550DF6E120020
:10180000200EE66E080E58EF0DF062EC2AF0E5525D
:10181000E552E552F3CF00F0F4CF01F00001F31CE4
:101820001200006E016AD950010F4DD90050EE260A
:101830000150ED221200045E000E055AF70E04C09E
:10184000DBFFF80E05C0DBFF04C0E9FF05C0EAFFBF
:101850001200DBCFF4FFF350F45C1200DB50E76EB4
:10186000040EE7CFDBFF12000A0EDBCF00F00B0EF9
:10187000DBCF01F00C0EDBCF02F00D0EDBCF03F05F
:1018800000500110021003101200130EEECFDBFF08
:10189000140EEDCFDBFF130EDBCF00F0140EDBCF09
:1018A00001F00001800E01141200F70EDBCF04F0EE
:1018B000F80EDBCF05F01200050EDB50E66ED950B6
:1018C000130F01D9E552E750EE6EED6A12000A0ED1
:1018D000DBCF24F00B0EDBCF25F00C0EDBCF26F098
:1018E0000D0EDBCF27F01200DBCFE6FF150EDBCFAE
:1018F000E6FF050EDB50E552E724E552E72412002F
:10190000DB50CED8010EF36E060EF3CFDBFF1200D4
:10191000EE50EFCFEAFFE96E02C0EEFF03C0EEFF2C
:1019200004C0EEFF1200D9CFE6FFDACFE6FFE1CF29
:10193000D9FFE2CFDAFF1200DFCFE6FFE66A92ECD2
:101940002BF0E552E552F3501200E76E080EE7CF98
:10195000DBFF1200EECF00F0EECF01F0EFCF02F090
:10196000036A1200050EDBCF00F0150EDB50D880A5
:1019700000541200010EDBCF02F0020EDBCF03F0A9
:10198000046A1200E552E5CFDAFFE7CFD9FF120073
:101990000A0E00C0DBFF0B0E01C0DBFF1200D950A6
:1019A0000A0F63EF0DF0F36E070EF3CFDBFF1200AB
:1019B000EECF00F0EFCF01F01200010EDB2A020E95
:1019C0001200FC0EDBCFE6FFFD0EDBCFE6FF1200C0
:1019D000005E000E015AF70E00C0DBFFF80E01C0DA
:1019E000DBFF00C0E9FF01C0EAFF1200DA20EA6E67
:1019F000EF2AEECFF6FF000EEF22EECFF7FFEF2239
:101A0000EECFF8FF1200040EDBCFE6FF130EDB5023
:101A1000E552E75C9ADFDB5004DF060EDB50120074
:101A2000090EDB500A0DF350DF24D00FE76E090ECC
:101A3000E7CFDBFFFBEF0BF0DB50F36E050E29EF7A
:101A40000CF0F70EDBCF00F0F80EDBCF01F0120048
:101A5000DFCFE6FF05EF0CF028DF030EECDEAAEF88
:101A60000CF057EC07F0E552E552E552E55200095B
:101A70001200BDDEEE50EFCFEAFFE96E010E12005C
:101A8000130EDB50F36E040E29EF0CF0040EDB5046
:101A9000F36E090E29EF0CF0DBCFE6FF05EF0CF03B
:101AA000E76E050EE7CFDBFF12008BDF28EF0DF0AE
:101AB000DBCFE6FF86DF31EF0DF0D950F90FE96E8D
:101AC000FF0EF6EF0CF0E96E000EDA20EA6E12005F
:101AD0000001010E9F6FA06FA16BA26B1200070E99
:101AE000821400019C6F100E80149C119C6F9C51FD
:101AF000006E016A9D51026E036A0250001802E1F5
:101B0000035001186EE19E51006E016A013404E237
:101B100000501408000E015401E39E2B9C51006EEE
:101B2000016A005001104FE09E51026E036AD89086
:101B3000035004E6140E025C000E035808E39F51A4
:101B4000046E056A010E041801E1055002E0000E62
:101B500001D0010E006E016A0050011033E09F6B4E
:101B60009C51006E016A010E001801E1015002E172
:101B70003DD828D09C51006E016A040E001801E186
:101B8000015002E1F7D91ED09C51006E016A020E8D
:101B9000001801E1015002E1AEDB14D09C51006E4F
:101BA000016A080E001801E101500CE18350800B1E
:101BB00001E0010E006E016A0050011002E1838E07
:101BC00001D0839E0DD09E51006E016AD8900150C5
:101BD00004E6140E005C000E015802E3010E9F6F34
:101BE00001D09E6B00019C519D6F12000001A1511C
:101BF000006E016A010E001801E1015015E10101BA
:101C0000680EC55D010EC65903E2C52B000EC62342
:101C1000C70EE66EC5C1E6FFC6C1E6FF93EC1CF039
:101C2000E552E552E552A5D1A251006E016A010EBE
:101C3000001801E1015001E08BD1A051006E016A52
:101C4000050E001801E1015001E1BCD0040E00189E
:101C500001E1015001E187D0030E001801E10150BC
:101C60005BE0020E001801E1015028E0010E0018AF
:101C700001E1015001E06BD10101C951006E016A1F
:101C8000D890015004E63B0E005C000E015802E2C1
:101C9000C92B09D0C951006E016A3B0E001801E141
:101CA000015001E1C96BC50EE66EC951E66EE66AE8
:101CB00093EC1CF0E552E552E55249D10101CA51BD
:101CC000006E016AD890015004E6170E005C000E09
:101CD000015802E2CA2B09D0CA51006E016A170EE0
:101CE000001801E1015001E1CA6B210EE66E4F0EB2
:101CF000E66EC00EE66EF0EC1DF0E552E552E552E0
:101D0000C50EE66E0101CA51E66EE66A93EC1CF060
:101D1000E552E552E5521BD10101CD51006E016A39
:101D2000D890015004E6E20E005C070E015802E272
:101D3000CD2B02D0DD0ECD6F100EE66E4F0EE66E8F
:101D4000C00EE66EF0EC1DF0E552E552E552C50E10
:101D5000E66E0101CD51E66EE66A93EC1CF0E552A9
:101D6000E552E552F4D00101CC51006E016AD890E1
:101D7000015004E60C0E005C000E015802E2CC2B70
:101D80000AD0CC51006E016A0C0E001801E101501E
:101D900002E1010ECC6FFF0EE66E4E0EE66EC00E37
:101DA000E66EF0EC1DF0E552E552E552C50EE66E2A
:101DB0000101CC51E66EE66A93EC1CF0E552E55267
:101DC000E552C5D00101CB51026E036A1C0E021808
:101DD00001E1035009E10101CC51046E056A020ED4
:101DE000041801E1055002E0000E01D0010E006E62
:101DF000016A0050011004E00101010ECB6F90D088
:101E00000101CB51006E016AD890015004E61E0E0C
:101E1000005C000E015802E2CB2B82D0CB51006E49
:101E2000016A1E0E001801E1015070E10101CC5160
:101E30000C6E0D6A010E0C1801E10D5008E1CC5139
:101E40000E6E0F6A030E0E1801E10F5002E0000E35
:101E500001D0010E0A6E0B6A0A500B1008E0CC513B
:101E6000106E116A050E101801E1115002E0000E0B
:101E700001D0010E086E096A0850091008E0CC5123
:101E8000126E136A070E121801E1135002E0000EE1
:101E900001D0010E066E076A0650071008E0CC510B
:101EA000146E156A080E141801E1155002E0000EB8
:101EB00001D0010E046E056A0450051008E0CC51F3
:101EC000166E176A0A0E161801E1175002E0000E8E
:101ED00001D0010E026E036A0250031008E0CC51DB
:101EE000186E196A0C0E181801E1195002E0000E64
:101EF00001D0010E006E016A0050011003E00101E3
:101F0000CB2B03D00101010ECB6F0AD0CB51006E59
:101F1000016A1F0E001801E1015002E1010ECB6FB2
:101F2000EE0EE66E4E0EE66EC00EE66EF0EC1DF0A6
:101F3000E552E552E552C50EE66E0101CB51E66E63
:101F4000E66A93EC1CF0E552E552E55200D011D060
:101F50000001A451006E016A013404E2005001083E
:101F6000000E015406E2A4070001010EA36F000158
:101F7000A56F12000001A151006E016A010E001848
:101F800001E1015016E101010A0ED880C555000E8D
:101F9000C65503E2C507000EC65BC70EE66EC5C197
:101FA000E6FFC6C1E6FF93EC1CF0E552E552E552B0
:101FB000A1D1A251006E016A010E001801E1015089
:101FC00001E086D1A051006E016A050E001801E102
:101FD000015001E1C2D0040E001801E1015001E1FD
:101FE0008ED0030E001801E1015063E0020E0018CC
:101FF00001E1015032E0010E001801E1015001E061
:1020000066D10101C951006E016A013404E2005039
:102010000008000E015402E2C90708D0C951006E41
:10202000016A0050011002E13B0EC96FDD0EE66E41
:102030004E0EE66EC00EE66EF0EC1DF0E552E55277
:10204000E552C50EE66E0101C951E66EE66A93ECF3
:102050001CF0E552E552E5523AD10101CA51006E39
:10206000016A013404E200500008000E015402E24B
:10207000CA0708D0CA51006E016A0050011002E17F
:10208000170ECA6F210EE66E4F0EE66EC00EE66E9C
:10209000F0EC1DF0E552E552E552C50EE66E010189
:1020A000CA51E66EE66A93EC1CF0E552E552E55241
:1020B0000ED10101CD51006E016A013404E20050DD
:1020C000DD08070E015402E2CD0702D0E20ECD6F0B
:1020D000100EE66E4F0EE66EC00EE66EF0EC1DF0D2
:1020E000E552E552E552C50EE66E0101CD51E66EB0
:1020F000E66A93EC1CF0E552E552E552E8D00101A6
:10210000CC51006E016A013404E200500108000E57
:10211000015402E2CC070AD0CC51006E016A010ED4
:10212000001801E1015002E10C0ECC6FFF0EE66ECB
:102130004E0EE66EC00EE66EF0EC1DF0E552E55276
:10214000E552C50EE66E0101CC51E66EE66A93ECEF
:102150001CF0E552E552E552BAD00101CB51026EB6
:10216000036A010E021801E1035009E10101CC519B
:10217000046E056A020E041801E1055002E0000E2B
:1021800001D0010E006E016A0050011004E001014F
:102190001C0ECB6F85D00101CB51006E016A01345A
:1021A00004E200500108000E015402E2CB0778D08F
:1021B000CB51006E016A010E001801E1015070E17F
:1021C0000101CC510C6E0D6A010E0C1801E10D508D
:1021D00008E1CC510E6E0F6A030E0E1801E10F508C
:1021E00002E0000E01D0010E0A6E0B6A0A500B10BD
:1021F00008E0CC51106E116A050E101801E1115063
:1022000002E0000E01D0010E086E096A08500910A4
:1022100008E0CC51126E136A070E121801E1135038
:1022200002E0000E01D0010E066E076A065007108C
:1022300008E0CC51146E156A080E141801E115500F
:1022400002E0000E01D0010E046E056A0450051074
:1022500008E0CC51166E176A0A0E161801E11750E5
:1022600002E0000E01D0010E026E036A025003105C
:1022700008E0CC51186E196A0C0E181801E11950BB
:1022800002E0000E01D0010E006E016A0050011044
:1022900004E001011F0ECB6F03D001011E0ECB6FB6
:1022A000EE0EE66E4E0EE66EC00EE66EF0EC1DF023
:1022B000E552E552E552C50EE66E0101CB51E66EE0
:1022C000E66A93EC1CF0E552E552E55200D012D0DC
:1022D0000001A451006E016AD890015004E6080E76
:1022E000005C000E015806E2A42B0001010EA36F52
:1022F0000001A56F12000001A451026E036A050ED1
:10230000021801E1035007E10001A151046E056AC2
:102310000450051002E0000E01D0010E006E016AAB
:10232000005001101AE00001010EA16FCC0EE66E04
:102330004E0EE66EC00EE66EF0EC1DF0E552E55274
:10234000E552C70EE66EC5C1E6FFC6C1E6FF93ECD7
:102350001CF0E552E552E55224D10001A451026E71
:10236000036A060E021801E1035007E10001A251C1
:10237000046E056A0450051002E0000E01D0010E43
:10238000006E016A005001101AE00001010EA26FF8
:10239000DD0EE66E4E0EE66EC00EE66EF0EC1DF043
:1023A000E552E552E552C50EE66E0101C951E66EF1
:1023B000E66A93EC1CF0E552E552E552F2D00001DA
:1023C000A451026E036A050E021801E1035009E1EF
:1023D0000001A151046E056A010E041801E10550C7
:1023E00002E0000E01D0010E006E016A00500110E3
:1023F0000AE00001A16B0001010EA46F0001A36FB0
:102400000001A56FCED00001A451026E036A060E32
:10241000021801E1035009E10001A251046E056AAE
:10242000010E041801E1055002E0000E01D0010E7A
:10243000006E016A0050011001E1B1D00001A0510D
:10244000006E016AD890015004E6050E005C000E93
:10245000015801E392D0A02BA051006E016A050E35
:10246000001801E1015071E0040E001801E1015073
:1024700055E0030E001801E1015039E0020E00188A
:1024800001E101501DE0010E001801E1015001E0E1
:1024900073D0DD0EE66E4E0EE66EC00EE66EF0EC0C
:1024A0001DF0E552E552E552C50EE66E0101C95137
:1024B000E66EE66A93EC1CF0E552E552E5525CD01C
:1024C000210EE66E4F0EE66EC00EE66EF0EC1DF0CD
:1024D000E552E552E552C50EE66E0101CA51E66EBF
:1024E000E66A93EC1CF0E552E552E55245D0100E39
:1024F000E66E4F0EE66EC00EE66EF0EC1DF0E55295
:10250000E552E552C50EE66E0101CD51E66EE66A72
:1025100093EC1CF0E552E552E5522ED0FF0EE66E2C
:102520004E0EE66EC00EE66EF0EC1DF0E552E55282
:10253000E552C50EE66E0101CC51E66EE66A93ECFB
:102540001CF0E552E552E55217D0EE0EE66E4E0E47
:10255000E66EC00EE66EF0EC1DF0E552E552E55277
:10256000C50EE66E0101CB51E66EE66A93EC1CF0F7
:10257000E552E552E55200D011D0A051006E016A3B
:10258000050E001801E1015009E1A06BA26B0001EA
:10259000010EA46F0001A36F0001A56F02D000011E
:0425A000A36B120017
:0C25A400E66AE66AE66AA00EE66ED9EC74
:1025B00018F0E552E552E552E552E66A010EE66E84
:1025C000E66AA00EE66ED9EC18F0E552E552E55247
:1025D000E552380EE66E430EE66E380EE66EA00E3D
:1025E000E66ED9EC18F0E552E552E552E552430E9D
:1025F000E66E440EE66E380EE66EA00EE66ED9EC80
:1026000018F0E552E552E552E552700EE66E850E81
:10261000E66E700EE66EA00EE66ED9EC18F0E5528E
:10262000E552E552E552850EE66E860EE66E700EB8
:10263000E66EA00EE66ED9EC18F0E552E552E552D2
:10264000E552A80EE66EC70EE66EA80EE66EA00E68
:10265000E66ED9EC18F0E552E552E552E552C70EA8
:10266000E66EC80EE66EA80EE66EA00EE66ED9EC1B
:1026700018F0E552E552E552E552E10EE66E090E1C
:10268000E66EE10EE66EA00EE66ED9EC18F0E552AD
:10269000E552E552E552090EE66E0A0EE66EE10ECF
:1026A000E66EA00EE66ED9EC18F0E552E552E55262
:1026B000E55212000001AB51006E016A010E0018D4
:1026C00001E1015001E101D81200D9CFE6FFE1CFCD
:1026D000D9FFE652F0C100F0016A00BE0168130E96
:1026E000001801E1015001E16FD3120E001801E161
:1026F000015001E168D3110E001801E1015001E120
:1027000061D3100E001801E1015001E156D30F0E04
:10271000001801E1015001E12DD30E0E001801E176
:10272000015001E104D30D0E001801E1015001E157
:10273000DBD20C0E001801E1015001E1B2D20B0E08
:10274000001801E1015001E18CD20A0E001801E1EC
:10275000015001E11BD2090E001801E1015001E115
:10276000E5D1080E001801E1015001E1AFD1070EDB
:10277000001801E1015001E179D1060E001801E1D4
:10278000015001E143D1050E001801E1015001E1C2
:1027900031D1040E001801E1015001E1FAD0030E1D
:1027A000001801E1015001E1C3D0020E001801E15F
:1027B000015001E188D0010E001801E101504EE006
:1027C000005001E1015001E000D30101B651006E5B
:1027D000016A0038006AF00B016E00500101C1115E
:1027E0000101EE6F01500101C2110101EF6F010EF5
:1027F000E66ED9CFE6FFDACFE6FFE66AE66AA00E1C
:10280000E66EABEC19F0006E060EE15E0050DFCF15
:10281000E4F1E4C1E5F10101E46B010EE66ED9CF0C
:10282000E6FFDACFE6FFE66EE66AA00EE66EABECF8
:1028300019F0006E060EE15E0050DF50006E016A76
:1028400000500101E4130150E513E41D01E1E51D11
:1028500002E1A8DEBAD2010EF06FB7D2010EE66E29
:10286000D9CFE6FFDACFE6FF430EE66E380EE66E0E
:10287000A00EE66EABEC19F0006E060EE15E0050A5
:10288000DFCFE6F1E6C1E7F10101E66B010EE66E8E
:10289000D9CFE6FFDACFE6FF440EE66E380EE66EDD
:1028A000A00EE66EABEC19F0006E060EE15E005075
:1028B000DF50006E016A00500101E6130150E7137A
:1028C000020EF06F82D2010EE66ED9CFE6FFDACFAC
:1028D000E6FF850EE66E700EE66EA00EE66EABECC1
:1028E00019F0006E060EE15E0050DFCFE8F1E8C19E
:1028F000E9F10101E86B010EE66ED9CFE6FFDACF10
:10290000E6FF860EE66E700EE66EA00EE66EABEC8F
:1029100019F0006E060EE15E0050DF50006E016A95
:1029200000500101E8130150E913030EF06F4DD27E
:10293000010EE66ED9CFE6FFDACFE6FFC70EE66EF0
:10294000A80EE66EA00EE66EABEC19F0006E060E59
:10295000E15E0050DFCFEAF1EAC1EBF10101EA6B81
:10296000010EE66ED9CFE6FFDACFE6FFC80EE66EBF
:10297000A80EE66EA00EE66EABEC19F0006E060E29
:10298000E15E0050DF500101EA6FEB6B040EF06F67
:102990001CD2010EE66ED9CFE6FFDACFE6FF090EB4
:1029A000E66EE10EE66EA00EE66EABEC19F0006E80
:1029B000060EE15E0050DFCFECF1ECC1EDF101015C
:1029C000EC6B010EE66ED9CFE6FFDACFE6FF0A0E1A
:1029D000E66EE10EE66EA00EE66EABEC19F0006E50
:1029E000060EE15E0050DF500101EC6FED6B050E4D
:1029F000F06FEBD10101410EE45D380EE55903E2C1
:102A0000060EF06F02D0120EF06FDFD1020E010140
:102A1000E427000EE523C2C100F0016A0050E66E13
:102A2000E4C1E6FFE5C102F0036A0250E66EA00EC3
:102A3000E66ED9EC18F0E552E552E552E552C1C117
:102A4000E6FF010E0101E425E66EE5C100F0016A32
:102A50000050E66EA00EE66ED9EC18F0E552E55295
:102A6000E552E5520101070EF06FAFD1020E0101F0
:102A7000E627000EE723C4C100F0016A0050E66EAD
:102A8000E6C1E6FFE7C102F0036A0250E66EA00E5F
:102A9000E66ED9EC18F0E552E552E552E552C3C1B5
:102AA000E6FF010E0101E625E66EE7C100F0016ACE
:102AB0000050E66EA00EE66ED9EC18F0E552E55235
:102AC000E552E5520101080EF06F7FD1020E0101BF
:102AD000E827000EE923C6C100F0016A0050E66E47
:102AE000E8C1E6FFE9C102F0036A0250E66EA00EFB
:102AF000E66ED9EC18F0E552E552E552E552C5C153
:102B0000E6FF010E0101E825E66EE9C100F0016A69
:102B10000050E66EA00EE66ED9EC18F0E552E552D4
:102B2000E552E5520101090EF06F4FD1020E01018D
:102B3000EA27000EEB23C8C100F0016A0050E66EE0
:102B4000EAC1E6FFEBC102F0036A0250E66EA00E96
:102B5000E66ED9EC18F0E552E552E552E552C7C1F0
:102B6000E6FF010E0101EA25E66EEBC100F0016A05
:102B70000050E66EA00EE66ED9EC18F0E552E55274
:102B8000E552E55201010A0EF06F1FD1050E010159
:102B9000EC27000EED230101C951E66EECC1E6FF02
:102BA000EDC100F0016A0050E66EA00EE66ED9ECB1
:102BB00018F0E552E552E552E5520101CA51E66EC0
:102BC000010E0101EC25E66EEDC100F0016A005036
:102BD000E66EA00EE66ED9EC18F0E552E552E5522D
:102BE000E5520101CB51E66E020E0101EC25E66EC5
:102BF000EDC100F0016A0050E66EA00EE66ED9EC61
:102C000018F0E552E552E552E5520101CC51E66E6D
:102C1000030E0101EC25E66EEDC100F0016A0050E3
:102C2000E66EA00EE66ED9EC18F0E552E552E552DC
:102C3000E5520101CD51E66E040E0101EC25E66E70
:102C4000EDC100F0016A0050E66EA00EE66ED9EC10
:102C500018F0E552E552E552E55201010B0EF06F16
:102C6000B4D0E5C100F0016A0050E66EE66AE66A9B
:102C7000A00EE66ED9EC18F0E552E552E552E552A9
:102C8000E4C1E6FF010EE66EE66AA00EE66ED9EC40
:102C900018F0E552E552E552E55201010C0EF06FD5
:102CA00094D0E7C100F0016A0050E66E430EE66E74
:102CB000380EE66EA00EE66ED9EC18F0E552E5523D
:102CC000E552E552E6C1E6FF440EE66E380EE66ECA
:102CD000A00EE66ED9EC18F0E552E552E552E55249
:102CE00001010D0EF06F71D0E9C100F0016A0050D2
:102CF000E66E850EE66E700EE66EA00EE66ED9EC00
:102D000018F0E552E552E552E552E8C1E6FF860EBD
:102D1000E66E700EE66EA00EE66ED9EC18F0E55287
:102D2000E552E552E55201010E0EF06F4ED0EBC1B7
:102D300000F0016A0050E66EC70EE66EA80EE66E61
:102D4000A00EE66ED9EC18F0E552E552E552E552D8
:102D5000EAC1E6FFC80EE66EA80EE66EA00EE66EAD
:102D6000D9EC18F0E552E552E552E55201010F0E9B
:102D7000F06F2BD0EDC100F0016A0050E66E090E35
:102D8000E66EE10EE66EA00EE66ED9EC18F0E552A6
:102D9000E552E552E552ECC1E6FF0A0EE66EE10EA1
:102DA000E66EA00EE66ED9EC18F0E552E552E5525B
:102DB000E5520101100EF06F08D00001AB6B01016C
:102DC000F06B03D002D001D000D0E552E552E7CF3E
:042DD000D9FF120015
:0C2DD40093808182939081908192120084
:102DE000819293908190818293801200D9CFE6FFE7
:102DF000E1CFD9FF8192FE0EDB50006E016A0050D8
:102E0000800B02E0938002D0939081908182819226
:102E1000E552E7CFD9FF1200D9CFE6FFE1CFD9FFC6
:102E2000819293808182FD0EDBCFE9FFFE0EDBCF26
:102E3000EAFFEF908150010B006E016A0050011013
:102E400007E0FD0EDBCFE9FFFE0EDBCFEAFFEF80F0
:102E50008192E552E7CFD9FF1200D9CFE6FFE1CF4B
:102E6000D9FF020EE126010EDB6ADF6ADF50006E39
:102E7000016AD890015004E6080E005C000E01586B
:102E800011E2FE0EDB50E66EB1DFE552FE0EDB50C6
:102E9000006E016AD89000360136FE0E00C0DBFFDE
:102EA000DF2AE4D7D950010FE66E000EDA20E66E75
:102EB000B3DFE552E552010EDB50006E020EE15C1D
:102EC00003E200D0E16AE552E16E0050E552E7CF3F
:102ED000D9FF1200D9CFE6FFE1CFD9FF020EE126DC
:102EE000010EDB6ADF6ADF50006E016AD890015084
:102EF00004E6080E005C000E015815E2010EDB50DE
:102F0000006E016AD89000360136010E00C0DBFF6A
:102F1000D950010FE66E000EDA20E66E7DDFE55235
:102F2000E552DF2AE0D7FE0EDB50E66E5FDFE552AA
:102F3000010EDB50006E020EE15C03E200D0E16A9C
:102F4000E552E16E0050E552E7CFD9FF1200D9CF2C
:102F5000E6FFE1CFD9FFE652010EDF6E3BDFFE0E4A
:102F6000DB50E66E7ADFE552DF6EDF50006E016AFD
:102F7000010E001801E10150F1E032DFE552E552A7
:102F8000E7CFD9FF1200D9CFE6FFE1CFD9FFFE0E80
:102F9000DBCF00F00014E76EFE0EE7CFDBFF1ADF99
:102FA000FE0EDB50E66E59DFE552FD0EDB50E66E9D
:102FB00054DFE552FC0EDB50E66E4FDFE55210DFCA
:102FC000FE0EDB50E66EC3DFE552E552E7CFD9FFD8
:102FD0001200D9CFE6FFE1CFD9FFE652FE0EDBCFDC
:102FE00000F00014E76EFE0EE7CFDBFFF3DEFE0E0F
:102FF000DB50E66E32DFE552FD0EDB50E66E2DDF74
:10300000E552DF6ADF50006E016AFA0EDB50000104
:1030100001AE02D0D89003D0005C000E015812E23D
:10302000DF50E76EFB0EDBCFE9FFFC0EDBCFEAFFE4
:10303000E750E926000EEA22EF50E66E0EDFE55279
:10304000DF2AE0D7CDDEFE0EDB50E66E80DFE552F4
:10305000E552E552E7CFD9FF1200D9CFE6FFE1CF25
:10306000D9FFFE0EDBCF00F00014E76EFE0EE7CFB7
:10307000DBFFB0DEFE0EDB50E66EEFDEE552FD0E4E
:10308000DB50E66EEADEE552A5DEFE0EDBCF00F099
:10309000010E0010E66EE1DEE552800EE66E1ADFEC
:1030A000E552E66EFB0EDBCFE9FFFC0EDBCFEAFF5D
:1030B000E552E750EF6E94DEE552E7CFD9FF1200FC
:1030C000D9CFE6FFE1CFD9FF020EE126FE0EDBCF1E
:1030D00000F00014E76EFE0EE7CFDBFF7BDEFE0E96
:1030E000DB50E66EBADEE552FD0EDB50E66EB5DE75
:1030F000E55270DEFE0EDBCF00F0010E0010E66E32
:10310000ACDEE552DE6ADD6ADECF00F0DDCF01F035
:10311000FA0EDB50026E036A0250005C0350015845
:103120003DE2DECF00F0DDCF01F0FA0EDB50026EA3
:10313000036A0206000E035A0250005C0350015855
:1031400014E2E66AC7DEE552E66EFB0EDBCF00F066
:10315000FC0EDBCF01F0DE500024E96EDD500120D3
:10316000EA6EE552E750EF6E14D0800EE66EB2DEE6
:10317000E552E66EFB0EDBCF00F0FC0EDBCF01F07C
:10318000DE500024E96EDD500120EA6EE552E75082
:10319000EF6EDF2A010E01E3DB2AB6D721DE020E35
:1031A000E15C02E2E16AE552E16EE552E7CFD9FF68
:1031B0001200D9CFE6FFE1CFD9FF020EE126DE6A89
:1031C000DD6AFD0EDBCF00F000C001F0006A00C038
:1031D000DEFF01C0DDFFFC0EDB50DF12DECF00F0B2
:1031E000DDCF01F0026AD8900250000A06E6000E18
:1031F000005CFA0E0158000E025809E3FE0EDBCF08
:1032000000F0020E0010E76EFE0EE7CFDBFFE2DDFE
:10321000FE0EDB50E66E21DEE552FD0EDB50E66E63
:103220001CDEE552FC0EDB50E66E17DEE552FB0EAF
:10323000DB50E66E12DEE552D3DDFE0EDB50E66EAD
:1032400086DEE552020EE15C02E2E16AE552E16EE1
:10325000E552E7CFD9FF1200D9CFE6FFE1CFD9FF82
:10326000030EE126010EDB6A020EDB6AFD0EDBCFE8
:1032700000F000C001F0006A010E00C0DBFF020E8A
:1032800001C0DBFFFC0EDB50006E016AD950010F5C
:10329000E96EDACFEAFF0050EE120150ED12010E96
:1032A000DBCF00F0020EDBCF01F0026AD8900250B3
:1032B000000A06E6000E005CFA0E0158000E0258E5
:1032C00009E3FE0EDBCF00F0020E0010E76EFE0EEB
:1032D000E7CFDBFF7FDDFE0EDB50E66EBEDDE552A5
:1032E000FD0EDB50E66EB9DDE552FC0EDB50E66EFE
:1032F000B4DDE552DF6ADF50006E016AF90EDB5083
:10330000000101AE02D0D89003D0005C000E01583D
:1033100012E2DF50E76EFA0EDBCFE9FFFB0EDBCFE8
:10332000EAFFE750E926000EEA22EF50E66E95DD4F
:10333000E552DF2AE0D754DDFE0EDB50E66E07DEF5
:10334000E552030EE15C02E2E16AE552E16EE5520C
:10335000E7CFD9FF1200D9CFE6FFE1CFD9FF020EA8
:10336000E126DE6ADD6AFD0EDBCF00F000C001F071
:10337000006A00C0DEFF01C0DDFFFC0EDB50DF1283
:10338000DECF00F0DDCF01F0026AD8900250000AD3
:1033900006E6000E005CFA0E0158000E025809E322
:1033A000FE0EDBCF00F0020E0010E76EFE0EE7CF40
:1033B000DBFF10DDFE0EDB50E66E4FDDE552FD0E4D
:1033C000DB50E66E4ADDE552FC0EDB50E66E45DD75
:1033D000E55200DDFE0EDBCF00F0010E0010E66EC0
:1033E0003CDDE552800EE66E75DDE552E66EFA0EC6
:1033F000DBCFE9FFFB0EDBCFEAFFE552E750EF6ED4
:10340000EFDC020EE15C02E2E16AE552E16EE552B8
:10341000E7CFD9FF1200D9CFE6FFE1CFD9FF040EE5
:10342000E126020EDB6A030EDB6AFD0EDBCF00F045
:1034300000C001F0006A020E00C0DBFF030E01C0F5
:10344000DBFFFC0EDB50006E016AD950020FE96E03
:10345000DACFEAFF0050EE120150ED12020EDBCF80
:1034600000F0030EDBCF01F0026AD8900250000A90
:1034700006E6000E005CFA0E0158000E025809E341
:10348000FE0EDBCF00F0020E0010E76EFE0EE7CF5F
:10349000DBFFA0DCFE0EDB50E66EDFDCE552FD0E4E
:1034A000DB50E66EDADCE552FC0EDB50E66ED5DC76
:1034B000E55290DCFE0EDBCF00F0010E0010E66E50
:1034C000CCDCE552DE6ADD6ADECF00F0DDCF01F054
:1034D000F90EDB50026E036A0250005C0350015883
:1034E0003DE2DECF00F0DDCF01F0F90EDB50026EE1
:1034F000036A0206000E035A0250005C0350015892
:1035000014E2E66AE7DCE552E66EFA0EDBCF00F085
:10351000FB0EDBCF01F0DE500024E96EDD50012010
:10352000EA6EE552E750EF6E14D0800EE66ED2DC04
:10353000E552E66EFA0EDBCF00F0FB0EDBCF01F0BA
:10354000DE500024E96EDD500120EA6EE552E750BE
:10355000EF6EDF2A010E01E3DB2AB6D741DC040E51
:10356000E15C02E2E16AE552E16EE552E7CFD9FFA4
:02357000120047
:0E357200D9CFE6FFE1CFD9FF040EE12600011C
:10358000A351006E016A010E001801E1015001E033
:10359000DBD0A451006E016A080E001801E1015051
:1035A00001E1BBD0070E001801E1015001E19ED0FE
:1035B000060E001801E1015001E183D0050E00184C
:1035C00001E1015069E0040E001801E101504FE0F3
:1035D000030E001801E1015035E0020E001801E170
:1035E00001501BE0010E001801E1015001E0ACD0D8
:1035F000130EE66E500EE66E800EE66EF1DAE552C0
:10360000E552E552020EE66E500EE66EC00EE66E14
:10361000E7DAE552E552E55297D0F10EE66E4F0E2D
:10362000E66E800EE66EDCDAE552E552E552E00E1B
:10363000E66E4F0EE66EC00EE66ED2DAE552E55249
:10364000E55282D0CF0EE66E4F0EE66E800EE66E2D
:10365000C7DAE552E552E552BE0EE66E4F0EE66E53
:10366000C00EE66EBDDAE552E552E5526DD0AD0E04
:10367000E66E4F0EE66E800EE66EB2DAE552E55269
:10368000E552BE0EE66E4F0EE66EC00EE66EA8DA8E
:10369000E552E552E55258D09C0EE66E4F0EE66EAE
:1036A000800EE66E9DDAE552E552E552BE0EE66EFC
:1036B0004F0EE66EC00EE66E93DAE552E552E55225
:1036C00043D08B0EE66E4F0EE66E800EE66E88DA05
:1036D000E552E552E552BE0EE66E4F0EE66EC00EA6
:1036E000E66E7EDAE552E552E5522ED07A0EE66EAF
:1036F0004F0EE66E800EE66E73DAE552E552E55245
:10370000690EE66E4F0EE66EC00EE66E69DAE552A1
:10371000E552E5520001A56B17D07A0EE66E4F0E0A
:10372000E66E800EE66E5CDAE552E552E552580E22
:10373000E66E4F0EE66EC00EE66E52DAE552E552C8
:10374000E5520001A56B00D00001A551006E016A91
:10375000010E001801E1015001E0D8D0A451006E23
:10376000016A070E001801E1015001E1CED0060EFA
:10377000001801E1015001E1C7D0050E001801E178
:10378000015001E1C0D0040E001801E1015001E137
:103790008FD0030E001801E101505FE0020E001807
:1037A00001E1015015E0010E001801E1015001E0B6
:1037B000ADD0010EE66EE66AC90EE66EC3C1E6FF45
:1037C000C4C1E6FFDFD8006E050EE15E00509ED05A
:1037D000C50EE66EE66A000EE66EE66A56EC26F068
:1037E000E552E552E552E5520101B651006E016A1B
:1037F000010E001801E1015011E1560E006E4F0E4E
:10380000016E026A00C0E6FF01C0E6FF02C0E6FFEB
:10381000D1EC29F0E552E552E55210D0540E006E7D
:103820004F0E016E026A00C0E6FF01C0E6FF02C053
:10383000E6FFD1EC29F0E552E552E552010EE66EC5
:10384000E66AC60EE66EC1C1E6FFC2C1E6FF9AD8BF
:10385000006E050EE15E005059D0010EE66EE66A7C
:10386000C00EE66EBDC1E6FFBEC1E6FF8BD8006E9E
:10387000050EE15E0050010EE66EE66AC60EE66ECB
:10388000BFC1E6FFC0C1E6FF7DD8006E050EE15E58
:103890000050010EE66EE66ACB0EE66EC7C1E6FF8B
:1038A000C8C1E6FF6FD8006E050EE15E00502ED055
:1038B000010EE66EE66AC00EE66EB7C1E6FFB8C15D
:1038C000E6FF60D8006E050EE15E0050010EE66E68
:1038D000E66AC60EE66EB9C1E6FFBAC1E6FF52D887
:1038E000006E050EE15E0050010EE66EE66ACC0E3B
:1038F000E66EBBC1E6FFBCC1E6FF44D8006E050E14
:10390000E15E005003D002D001D000D00001A56BD1
:10391000A36B040EE15C02E2E16AE552E16EE5525E
:10392000E7CFD9FF1200D9CFE6FFE1CFD9FF0001E1
:10393000A869A969000EE66EE66AFC0EDBCFE6FF19
:10394000E66A56EC26F0E552E552E552E552FD0EE8
:10395000DBCFE6FFFE0EDBCFE6FF510E006E4F0E13
:10396000016E026A00C0E6FF01C0E6FF02C0E6FF8A
:10397000D1EC29F0036E050EE15E0350E552E7CF6E
:10398000D9FF1200D9CFE6FFE1CFD9FFD950FA0F06
:10399000E96EFF0EDA20EA6EEE50ED1004E1000150
:1039A000FE0EA86FA969D950FA0FE96EFF0EDA2052
:1039B000EA6E010EEE1801E1ED5010E10001A86978
:1039C000A969000EE66EE66AFC0EDBCFE6FFE66A4A
:1039D00056EC26F0E552E552E552E552FD0EDBCFFE
:1039E00000F0FE0EDBCF01F00101C151001802E131
:1039F000C251011801E1D9D0FD0EDBCF00F0FE0E5F
:103A0000DBCF01F0E80E2B6E030E2C6E00C026F00B
:103A100001C027F07CEC2BF026C000F027C001F09D
:103A200000C0E6FF01C0E6FF4D0E026E4F0E036EB2
:103A3000046A02C0E6FF03C0E6FF04C0E6FFD1EC63
:103A400029F0056E050EE15E0550FD0EDBCF00F09E
:103A5000FE0EDBCF01F0E80E2B6E030E2C6E00C0C5
:103A600026F001C027F07CEC2BF022C000F023C030
:103A700001F0640E005C000E01582AE3FD0EDBCF5E
:103A800000F0FE0EDBCF01F0E80E2B6E030E2C6E65
:103A900000C026F001C027F07CEC2BF022C000F023
:103AA00023C001F000C0E6FF01C0E6FF460E026E33
:103AB0004F0E036E046A02C0E6FF03C0E6FF04C0B7
:103AC000E6FFD1EC29F0056E050EE15E05506CD0E5
:103AD000FD0EDBCF00F0FE0EDBCF01F0E80E2B6E0B
:103AE000030E2C6E00C026F001C027F07CEC2BF0FA
:103AF00022C000F023C001F00A0E005C000E015845
:103B00002AE3FD0EDBCF00F0FE0EDBCF01F0E80E66
:103B10002B6E030E2C6E00C026F001C027F07CEC4B
:103B20002BF022C000F023C001F000C0E6FF01C06E
:103B3000E6FF3F0E026E4F0E036E046A02C0E6FF00
:103B400003C0E6FF04C0E6FFD1EC29F0056E050EC8
:103B5000E15E055029D0FD0EDBCF00F0FE0EDBCF7D
:103B600001F0E80E2B6E030E2C6E00C026F001C093
:103B700027F07CEC2BF022C000F023C001F000C045
:103B8000E6FF01C0E6FF380E026E4F0E036E046AB8
:103B900002C0E6FF03C0E6FF04C0E6FFD1EC29F057
:103BA000056E050EE15E055017D0FD0EDBCFE6FF7A
:103BB000FE0EDBCFE6FF320E006E4F0E016E026A84
:103BC00000C0E6FF01C0E6FF02C0E6FFD1EC29F02D
:103BD000036E050EE15E0350E552E7CFD9FF1200F8
:103BE000D9CFE6FFE1CFD9FF0001A869A969000E8E
:103BF000E66EE66AFE0EDBCFE6FFE66A56EC26F0DE
:103C0000E552E552E552E552FC0EDBCF00F0FD0E29
:103C1000DBCF01F0026A00C0E6FF01C0E6FF02C090
:103C2000E6FFD1EC29F0E552E552E552E552E7CF47
:043C3000D9FF1200A6
:0C3C34000101006BB56BB66BB76BB86B91
:103C4000B96BBA6BBB6BBC6BBD6BBE6BBF6BC06B38
:103C5000C16BC26BC36BC46B5A0EC56FC66BC76BAF
:103C6000C86BC96BCA6B010ECB6FCC6FDD0ECD6F0D
:103C7000120001010051006E016A060E001801E1F8
:103C8000015001E17FD0050E001801E101505EE016
:103C9000040E001801E101504BE0030E001801E191
:103CA000015038E0020E001801E1015025E0010E3C
:103CB000001801E1015012E0005001E1015001E063
:103CC00067D0010EE66E010EE66EE66AB4DAE552E2
:103CD000E552E5520101010E006F5AD01F0EE66E4B
:103CE000010EE66E040EE66EA6DAE552E552E552E6
:103CF0000101020E006F4CD03D0EE66E010EE66E25
:103D0000010EE66E98DAE552E552E5520101030E26
:103D1000006F3ED05B0EE66E010EE66E060EE66E9E
:103D20008ADAE552E552E5520101040E006F30D007
:103D3000790EE66E010EE66E050EE66E7CDAE55251
:103D4000E552E5520101050E006F22D0970EE66E96
:103D5000010EE66E070EE66E6EDAE552E552E552AA
:103D60000101006BB551006E016AD890015004E664
:103D70000D0E005C000E015803E3060E006F01D02B
:103D8000B52B06D009D8CFD80101B56B006B00D098
:103D90000001010EA56F1200D9CFE6FFE1CFD9FFD8
:103DA000050EE12601011D6B1E6B3B6B3C6B596BD5
:103DB0005A6B776B786B956B966BB36BB46BDF6AF2
:103DC000DF50006E016AD890015004E60E0E005CD0
:103DD000000E015850E2EA6ADF34FE0BEA36E96E63
:103DE000010EE926010EEA22EE501D27EE501E2399
:103DF000EA6ADF34FE0BEA36E96E1F0EE926010E91
:103E0000EA22EE503B27EE503C23EA6ADF34FE0BF9
:103E1000EA36E96E3D0EE926010EEA22EE505927F8
:103E2000EE505A23EA6ADF34FE0BEA36E96E5B0E87
:103E3000E926010EEA22EE507727EE507823EA6A4F
:103E4000DF34FE0BEA36E96E790EE926010EEA222E
:103E5000EE509527EE509623EA6ADF34FE0BEA36E1
:103E6000E96E970EE926010EEA22EE50B327EE50D6
:103E7000B423DF2AA5D70E0E2B6E2C6A1DC126F0A7
:103E80001EC127F07CEC2BF026C01DF127C01EF1CF
:103E90000E0E2B6E2C6A3BC126F03CC127F07CEC49
:103EA0002BF026C03BF127C03CF10E0E2B6E2C6A86
:103EB00059C126F05AC127F07CEC2BF026C059F1ED
:103EC00027C05AF10E0E2B6E2C6A77C126F078C1EE
:103ED00027F07CEC2BF026C077F127C078F10E0E8E
:103EE0002B6E2C6A95C126F096C127F07CEC2BF046
:103EF00026C095F127C096F10E0E2B6E2C6AB3C129
:103F000026F0B4C127F07CEC2BF026C0B3F127C01B
:103F1000B4F1050EE15C02E2E16AE552E16EE552C0
:103F2000E7CFD9FF1200D9CFE6FFE1CFD9FF040ECA
:103F3000E1263BC124F03CC125F0266A276A520ED7
:103F4000296E7D0E2A6E2B6A2C6AA4EC2AF020C002
:103F5000DEFF21C0DEFF22C0DEFF23C0DDFFDD5219
:103F6000DD52D9CFE9FFDACFEAFFEECF24F0EECF72
:103F700025F0EECF26F0EFCF27F0100E296E270E9A
:103F80002A6E2B6A2C6A3BEC2BF024C0BDF125C0B5
:103F9000BEF159C124F05AC125F0266A276A520E93
:103FA000296E7D0E2A6E2B6A2C6AA4EC2AF020C0A2
:103FB000DEFF21C0DEFF22C0DEFF23C0DDFFDD52B9
:103FC000DD52D9CFE9FFDACFEAFFEECF24F0EECF12
:103FD00025F0EECF26F0EFCF27F0100E296E270E3A
:103FE0002A6E2B6A2C6A3BEC2BF024C0BFF125C053
:103FF000C0F177C124F078C125F0266A276A520EF5
:10400000296E7D0E2A6E2B6A2C6AA4EC2AF020C041
:10401000DEFF21C0DEFF22C0DEFF23C0DDFFDD5258
:10402000DD52D9CFE9FFDACFEAFFEECF24F0EECFB1
:1040300025F0EECF26F0EFCF27F0100E296E270ED9
:104040002A6E2B6A2C6A3BEC2BF024C0B7F125C0FA
:10405000B8F195C124F096C125F0266A276A520E60
:10406000296E7D0E2A6E2B6A2C6AA4EC2AF020C0E1
:10407000DEFF21C0DEFF22C0DEFF23C0DDFFDD52F8
:10408000DD52D9CFE9FFDACFEAFFEECF24F0EECF51
:1040900025F0EECF26F0EFCF27F0100E296E270E79
:1040A0002A6E2B6A2C6A3BEC2BF024C0B9F125C098
:1040B000BAF1B3C124F0B4C125F0266A276A520EC2
:1040C000296E7D0E2A6E2B6A2C6AA4EC2AF020C081
:1040D000DEFF21C0DEFF22C0DEFF23C0DDFFDD5298
:1040E000DD52D9CFE9FFDACFEAFFEECF24F0EECFF1
:1040F00025F0EECF26F0EFCF27F0100E296E270E19
:104100002A6E2B6A2C6A3BEC2BF024C0BBF125C035
:10411000BCF1010195511D5D96511E5908E3B66B26
:1041200095511D5D1D6F96511E591E6F07D0010ED2
:10413000B66FFF0ED8801D57010E1E57140E1D5D61
:10414000000E1E5904E3060E1D27000E1E231DC17E
:1041500024F01EC125F0266A276A520E296E7D0EB4
:104160002A6E2B6A2C6AA4EC2AF020C0DEFF21C044
:10417000DEFF22C0DEFF23C0DDFFDD52DD52D9CFDE
:10418000E9FFDACFEAFFEECF24F0EECF25F0EECF55
:1041900026F0EFCF27F0100E296E270E2A6E2B6A1D
:1041A0002C6A3BEC2BF024C0C1F125C0C2F1050EF6
:1041B0002B6E2C6AC1C126F0C2C127F07CEC2BF01B
:1041C00026C0C1F127C0C2F10101BD51BF5DC76F5B
:1041D000BE51C059C86FC1C1C3F1C2C1C4F168ECBE
:1041E00023F00001AA51026E036AD890035004E63E
:1041F000200E025C1C0E035807E20001AB51046E56
:10420000056A0450051002E0000E01D0010E006E98
:10421000016A0050011005E00001AA2B0001010E07
:10422000AB6F040EE15C02E2E16AE552E16EE55239
:10423000E7CFD9FF1200D9CFE6FFE1CFD9FFFE0EBD
:10424000DBCFE6FFE66A40EC24F0E552E5523EECB7
:1042500024F0C250020B01E0010E006E016A010E53
:10426000001801E1015001E1F4D7F4EC25F0F3CF9F
:1042700002F0F4CF03F0FC0EDBCF00F0FD0EDBCF3D
:1042800001F00101B551020D0050F324E96E015017
:10429000F420EA6E02C0EEFF03C0EDFFE552E7CF67
:0442A000D9FF120030
:0C42A400D9CFE6FFE1CFD9FF090EE126DB
:1042B000010EDB6A020EDB6A030EDB6A040EDB6AA8
:1042C000050EDB6A060EDB6A070EDB6A080EDB6A88
:1042D000D9CFE6FFDACFE6FFE66AD00EE66E2DEC28
:1042E00018F0E552E552E552E552DF50006E016AE2
:1042F0000050800B11E0080EE66ED950010FE66EFB
:10430000000EDA20E66EE66AD00EE66EE9EC17F0F3
:10431000006E050EE15E00500101DD0ECD6F010162
:10432000010ECB6F0101CC6F0101C96B0101CA6B9A
:104330000101CD51E66E0101CC51E66E0101CB5178
:10434000E66E0101CA51E66E0101C951E66E0ED852
:10435000006E050EE15E0050090EE15C02E2E16ACA
:10436000E552E16EE552E7CFD9FF1200D9CFE6FF63
:10437000E1CFD9FF020EE126DF6A010EDB6AFE0EF5
:10438000DB50006E016A0A0E2B6E2C6A00C026F00C
:1043900001C027F02FEC29F026C000F027C001F063
:1043A0000050DF6EFE0EDB50006E016A0A0E2B6EAF
:1043B0002C6A00C026F001C027F02FEC29F022C0A3
:1043C00000F023C001F0010E00C0DBFFDF50006EE3
:1043D000016A040ED89000360136E804FBE1700E45
:1043E0000016000E0116FE0E00C0DBFF010EDB50B2
:1043F000006E016A0F0E0016000E0116FE0EDBCFD6
:10440000E7FF0050E712FE0EE7CFDBFFFD0EDB50AB
:10441000006E016A0A0E2B6E2C6A00C026F001C0E5
:1044200027F02FEC29F026C000F027C001F0005043
:10443000DF6EFD0EDB50006E016A0A0E2B6E2C6AD9
:1044400000C026F001C027F02FEC29F022C000F0B8
:1044500023C001F0010E00C0DBFFDF50006E016AD7
:10446000040ED89000360136E804FBE1700E001609
:10447000000E0116FD0E00C0DBFF010EDB50006ECA
:10448000016A0F0E0016000E0116FD0EDBCFE7FFCE
:104490000050E712FD0EE7CFDBFFFC0EDB50006E95
:1044A000016A0A0E2B6E2C6A00C026F001C027F0AC
:1044B0002FEC29F026C000F027C001F00050DF6E7D
:1044C000FC0EDB50006E016A0A0E2B6E2C6A00C0D7
:1044D00026F001C027F02FEC29F022C000F023C005
:1044E00001F0010E00C0DBFFDF50006E016A040E18
:1044F000D89000360136E804FBE1300E0016000EBD
:104500000116FC0E00C0DBFF010EDB50006E016ADD
:104510000F0E0016000E0116FC0EDBCFE7FF005059
:10452000E712FC0EE7CFDBFFFB0EDB50006E016AEB
:104530000A0E2B6E2C6A00C026F001C027F02FEC6B
:1045400029F026C000F027C001F00050DF6EFB0EFE
:10455000DB50006E016A0A0E2B6E2C6A00C026F03A
:1045600001C027F02FEC29F022C000F023C001F099
:10457000010E00C0DBFFDF50006E016A040ED89010
:1045800000360136E804FBE1100E0016000E01169D
:10459000FB0E00C0DBFF010EDB50006E016A0F0E48
:1045A0000016000E0116FB0EDBCFE7FF0050E712EE
:1045B000FB0EE7CFDBFFFA0EDB50006E016A0A0E3E
:1045C0002B6E2C6A00C026F001C027F02FEC29F0DA
:1045D00026C000F027C001F00050DF6EFA0EDB505D
:1045E000006E016A0A0E2B6E2C6A00C026F001C014
:1045F00027F02FEC29F022C000F023C001F0010EBB
:1046000000C0DBFFDF50006E016A040ED890003658
:104610000136E804FBE1F00E0016000E0116FA0E5A
:1046200000C0DBFF010EDB50006E016A0F0E0016AA
:10463000000E0116FA0EDBCFE7FF0050E712FA0E6C
:10464000E7CFDBFFFE0EDB50E66E010EE66ED00E0E
:10465000E66EC3EC17F0E552E552E552FD0EDB5075
:10466000E66E020EE66ED00EE66EC3EC17F0E55273
:10467000E552E552FC0EDB50E66E040EE66ED00EFF
:10468000E66EC3EC17F0E552E552E552FB0EDB5047
:10469000E66E050EE66ED00EE66EC3EC17F0E55240
:1046A000E552E552FA0EDB50E66E060EE66ED00ECF
:1046B000E66EC3EC17F0E552E552E552020EE15CFE
:1046C00002E2E16AE552E16EE552E7CFD9FF12005E
:1046D000D9CFE6FFE1CFD9FFE652DF6AC90EE66E19
:1046E000010EE66E010EE66ED00EE66E2DEC18F0B1
:1046F000E552E552E552E552CA0EE66E010EE66E4F
:10470000020EE66ED00EE66E2DEC18F0E552E55284
:10471000E552E552CB0EE66E010EE66E040EE66E35
:10472000D00EE66E2DEC18F0E552E552E552E5525A
:10473000CC0EE66E010EE66E050EE66ED00EE66E4F
:104740002DEC18F0E552E552E552E552CD0EE66E3D
:10475000010EE66E060EE66ED00EE66E2DEC18F03B
:10476000E552E552E552E5520101C951006E016A78
:10477000040ED89001320032E804FBE1070E001469
:10478000DF6EDF500A0DF350DF6EDFCF00F00F0E4B
:104790000101C9150024C96F0101CA51006E016AE7
:1047A000040ED89001320032E804FBE1030E00143D
:1047B000DF6EDF500A0DF350DF6EDFCF00F00F0E1B
:1047C0000101CA150024CA6F0101CB51006E016AB4
:1047D000040ED89001320032E804FBE1030E00140D
:1047E000DF6EDF500A0DF350DF6EDFCF00F00F0EEB
:1047F0000101CB150024CB6F0101CC51006E016A81
:10480000040ED89001320032E804FBE1010E0014DE
:10481000DF6EDF50006E016A0050011005E10F0EDF
:104820000101CC15CC6F0BD0DF500A0DF350DF6EB9
:10483000DFCF00F00F0E0101CC150024CC6F010179
:10484000CD51006E016A040ED89001320032E804A6
:10485000FBE10F0E0014DF6EDF500A0DF350DF6E28
:10486000DFCF00F00F0E0101CD150024CD6FE55212
:08487000E552E7CFD9FF120069
:08487800C2801200C28212008E
:10488000D9CFE6FFE1CFD9FFFE0EDB50006E016A03
:10489000D890015004E60C0E005C000E015814E2A2
:1048A000FE0EDB50026E036AD89002360336D890B3
:1048B00002360336C30EC21400010210006E03C09C
:1048C00001F00050C26E00D0E552E7CFD9FF1200D0
:1048D000D9CFE6FFE1CFD9FFFE0EDB50006E016AB3
:1048E0000050011007E1C1889286C196C184C1823F
:1048F000C18010D0FE0EDB50006E016A010E001860
:1049000001E1015007E1C1989284C196C184C1823E
:10491000C18000D0E552E7CFD9FF1200D9CFE6FF22
:10492000E1CFD9FFFE0EDB50006E016A005001108E
:1049300002E1C18A0BD0FE0EDB50006E016A010E4F
:10494000001801E1015002E1C19A00D0E552E7CF21
:10495000D9FF1200D9CFE6FFE1CFD9FFFE0EDB5021
:10496000006E016A010E001801E1015002E1C08EE3
:1049700009D0FE0EDB50006E016A0050011002E10A
:10498000C09E00D0E552E7CFD9FF1200D9CFE6FF95
:10499000E1CFD9FFFE0EDB500E6E0F6A070E0E1828
:1049A00001E10F500BE0FE0EDB50106E116A060E97
:1049B000101801E1115002E0000E01D0010E0C6E42
:1049C0000D6A0C500D100BE1FE0EDB50126E136AD7
:1049D000050E121801E1135002E0000E01D0010E85
:1049E0000A6E0B6A0A500B100BE1FE0EDB50146EC0
:1049F000156A040E141801E1155002E0000E01D0F2
:104A0000010E086E096A085009100BE1FE0EDB501A
:104A1000166E176A030E161801E1175002E0000E19
:104A200001D0010E066E076A065007100BE1FE0E5C
:104A3000DB50186E196A020E181801E1195002E0D5
:104A4000000E01D0010E046E056A045005100BE142
:104A5000FE0EDB501A6E1B6A010E1A1801E11B5084
:104A600002E0000E01D0010E026E036A0250031034
:104A700009E1FE0EDB501C6E1D6A1C501D1002E089
:104A8000000E01D0010E006E016A0050011014E00A
:104A9000FE0EDB50026E036A030ED8900236033618
:104AA000E804FBE1C70EC01400010210006E03C051
:104AB00001F00050C06E00D0E552E7CFD9FF1200E0
:104AC000D9CFE6FFE1CFD9FFFE0EDB500C6E0D6AA9
:104AD000070E0C1801E10D500BE0FE0EDB500E6EC0
:104AE0000F6A060E0E1801E10F5002E0000E01D011
:104AF000010E0A6E0B6A0A500B100BE1FE0EDB5022
:104B0000106E116A050E101801E1115002E0000E3E
:104B100001D0010E086E096A085009100BE1FE0E63
:104B2000DB50126E136A040E121801E1135002E0FA
:104B3000000E01D0010E066E076A065007100BE149
:104B4000FE0EDB50146E156A020E141801E11550AA
:104B500002E0000E01D0010E046E056A045005103B
:104B60000BE1FE0EDB50166E176A010E161801E1FE
:104B7000175002E0000E01D0010E026E036A0250CF
:104B8000031009E1FE0EDB50186E196A1850191057
:104B900002E0000E01D0010E006E016A005001100B
:104BA00008E0FE0EDBCF00F0F80EC0140010C06E5F
:104BB00000D0E552E7CFD9FF12005EDEE66A60DE84
:104BC000E552E66A85DEE552E66AA8DEE552010EA8
:104BD000E66EC0DEE552040EE66ED8DEE552070E44
:104BE000E66E6EDFE5521200C450026E02C003F0A2
:104BF000026AC35000010210006E03C001F000C041
:0A4C0000F3FF01C0F4FF00D0120022
:064C0A00D9CFE6FFE1CF67
:104C1000D9FFFE0EDB50026E036A0250010B02E167
:104C2000000E01D0010E006E016A0050E8B08C86C3
:104C3000E8A08C96FE0EDB50026E036A0250020B57
:104C400002E1000E01D0010E006E016A0050E8B0D2
:104C50008C88E8A08C98FE0EDB50026E036A02502E
:104C6000040B02E1000E01D0010E006E016A00503B
:104C7000E8B08C8AE8A08C9AFE0EDB50026E036AC4
:104C80000250080B02E1000E01D0010E006E016A15
:104C90000050E8B08C8CE8A08C9C00008C84000054
:104CA00000008C94E552E7CFD9FF1200D9CFE6FF80
:104CB000E1CFD9FF8C90020EE66EEFEC2BF0E552BF
:104CC00095969598959A959CFE0EDB50006E016A1C
:104CD0000050011002E08C8001D08C900000FD0E8D
:104CE000DB50006E016A040ED89001320032E804F5
:104CF000FBE10050E66E89DFE552FD0EDBCF00F0F0
:104D00000F0E0014E66E81DFE552E552E7CFD9FFC2
:104D10001200D9CFE6FFE1CFD9FFE65295909594E6
:104D20008C908C9495969598959A959C0A0EE66E23
:104D3000A4EC2BF0E5520A0EE66EA4EC2BF0E55243
:104D40000A0EE66EA4EC2BF0E552DF6ADF50006E2F
:104D5000016AD890015004E6030E005C000E015871
:104D60000BE2030EE66E51DFE5520A0EE66EA4EC8E
:104D70002BF0E552DF2AEAD7020EE66E46DFE55257
:104D8000DF6ADF50006E016A040E005C000E0158FD
:104D90000FE2DF50F76A380FF66E580EF722080060
:104DA000F550E66EE66A82DFE552E552DF2AE9D782
:104DB000E552E552E7CFD9FF1200D9CFE6FFE1CFA8
:104DC000D9FFE652FD0EDB50006E016A010E00189D
:104DD00001E1015003E0400EDF6E01D0DF6AFE0EFC
:104DE000DB50006E016A0006000E015A0050DF26FB
:104DF000DFCF00F0800E0010E66EE66A57DFE55266
:104E0000E552E552E552E7CFD9FF1200D9CFE6FFD0
:104E1000E1CFD9FFFE0EDB50006E016A080E0018CC
:104E200001E1015022E00A0E001801E1015015E0F5
:104E30000C0E001801E1015009E0FE0EDB50E66E99
:104E4000010EE66E33DFE552E55216D0010EE66E36
:104E5000E66A2CDFE552E5520FD0020EE66E010E37
:104E6000E66EABDFE552E55207D0100EE66EE66A5D
:104E70001DDFE552E55200D0E552E7CFD9FF120021
:104E8000596561723A004D6F6E74683A00446174FE
:104E9000653A0048723A004D696E3A005673656E85
:104EA0003A00476C75433A00476C753A0025782004
:104EB00020202020200D00497369673A00257520C5
:104EC00020202020200D00436E743A005B6D672F78
:104ED000646C5D2020202020202020200020202025
:104EE000205B20205D6D696E202020202000202086
:104EF00020205B20205D646174652020202000203C
:104F00002020205B20205D6D6F6E746820202000C3
:104F1000202020205B202020205D796561722020E8
:104F200000202020205B20205D687220202020208F
:104F3000200025752E300D0030302575200D0030F5
:104F4000257520200D0025752020200D0025752EAB
:104F5000002575002B002D0020205452414E46455F
:104F600052454E4349412020002020204D4F4E49BC
:104F7000544F52454F202020200020202020205533
:104F800041525420202020202020002020434F4E3A
:104F90004649472054494D452020200050554E5445
:104FA0004F2043414C2E20474C552E200056434362
:104FB00020202056474E442020474E4420002020E9
:104FC0002020202020202020202020202020002001
:104FD0005245462020434E5420205653454E200033
:104FE0005B6E415D202020202020202020202020DA
:104FF0000020202020204953494720202020202025
:1050000020005B6D672F646C5D2020202020202015
:1050100020200020434F4E432E20474C55434F53F2
:04502000412020000B
:0C5024000101E22B000EE323E2C100F0CA
:10503000E3C101F0026A0234000E021807E6D880CC
:10504000600E0054EA0E0154000E025403E2010EF9
:10505000E26FE36B0001010EAC6F1200F090F09272
:10506000F096F098F09CF09EF190F184F198F19A0E
:10507000F19CF19EF290F292F294F296F298F28AFA
:10508000F29C43EF28F0F28E1200F29E1200DACF6B
:10509000E4FFE2CFDAFFE9CFE4FFEACFE4FFF6CFA7
:1050A000E4FFF7CFE4FFF5CFE4FFF3CFE4FFF4CF65
:1050B000E4FFFACFE4FF00EE1EF0140EE80403E371
:1050C000EECFE4FFFBD700EE00F01E0EE80403E392
:1050D000EECFE4FFFBD7E652F250040B01E0010EE5
:1050E000326E336A3250331003E09CDFC4EC2BF095
:1050F0009E50200B01E0010E326E336A010E321811
:1051000001E1335003E16BEC00F09E9AE55200EEB2
:105110001DF01E0EE80403E3E5CFEDFFFBD700EE24
:1051200031F0140EE80403E3E5CFEDFFFBD7E5CF44
:10513000FAFFE5CFF4FFE5CFF3FFE5CFF5FFE5CFCD
:10514000F7FFE5CFF6FFE5CFEAFFE5CFE9FFE5CFD3
:04515000DAFF110071
:0C5154000101DE0ECE6F1A0ECF6F030EAD
:10516000D86FD96B720ED06F3C0ED16F3A0EDA6FDA
:10517000020EDB6FB40ED26F260ED36F080EDC6FFB
:10518000070EDD6F720ED46F350ED56F320EDE6FE7
:10519000DF6BE26BE36B1200E2C126F0E3C127F0A4
:1051A000D8C12BF0D9C12CF07CEC2BF022C000F040
:1051B00023C001F00050011007E105D0CFC1FAFF74
:1051C0000101CE51F96EFADFE2C126F0E3C127F00A
:1051D000DAC12BF0DBC12CF07CEC2BF022C000F00C
:1051E00023C001F00050011007E105D0D1C1FAFF42
:1051F0000101D051F96EFADFE2C126F0E3C127F0D8
:10520000DCC12BF0DDC12CF07CEC2BF022C000F0D7
:1052100023C001F00050011007E105D0D3C1FAFF0F
:105220000101D251F96EFADFE2C126F0E3C127F0A5
:10523000DEC12BF0DFC12CF07CEC2BF022C000F0A3
:1052400023C001F00050011007E105D0D5C1FAFFDD
:0E5250000101D451F96EFADF0001AC6B1200BF
:02525E001E6AC6
:105260002CAE38EF29F02B6C2C1EE86A2C221E1E67
:1052700027AE40EF29F0266C271EE86A27221E1E63
:105280007CEC2BF027BE50EF29F01EAE000C266CF4
:10529000271EE86A2722226C231EE86A2322000CBC
:1052A0001EBE47EF29F01F88FF0C27C031F026C033
:1052B00030F026502B02F4CF25F0F3CF24F0275006
:1052C0002C02F4CF27F0F3CF26F02B02F350252643
:1052D000F4502622E86A272230502C02F35025266B
:1052E000F4502622E86A27222CAE7BEF29F03050BA
:1052F000265E3150275A31AE000C2B50265E2C50C2
:04530000275A000C1C
:0C5304000E0EF66E000EF76E000EF86E36
:1053100001010900F550F66F0900F550F76F03E140
:10532000F66701D03DD00900F550F16F0900F55046
:10533000F26F0900F550F36F09000900F550E96EAE
:105340000900F550EA6E090009000900F550F46FF4
:105350000900F550F56F09000900F6CFF8F1F7CF15
:10536000F9F1F8CFFAF1F1C1F6FFF2C1F7FFF3C19D
:10537000F8FF0101F45302E1F55307E00900F5508D
:10538000EE6EF407F8E2F507F9D7F8C1F6FFF9C1B8
:10539000F7FFFAC1F8FF0101F607000EF75BBFD770
:0253A0001200F9
:0E53A200D9CFE6FFDACFE6FFE1CFD9FFE2CFA9
:1053B000DAFFE652E652E652E652D950FB0F006E93
:1053C000FF0EDA20016E00C0DEFFDD6EDECFE6FFED
:1053D000DDCFE6FFFB0EDBCFE6FFFC0EDBCFE6FF0B
:1053E000FD0EDBCFE6FFA8C0E6FFA9C0E6FF6DEC2F
:1053F00007F0006E070EE15C02E2E16AE552E16E41
:105400000050020EF3CFDBFF030EF4CFDBFF020EE2
:10541000DBCF00F0030EDBCF01F000C0F3FF01C0D3
:10542000F4FF040EE15C02E2E16AE552E16EE5524E
:0A543000E5CFDAFFE7CFD9FF120045
:06543A00D9CFE6FFDACF36
:10544000E6FFE1CFD9FFE2CFDAFFAC6AAB6AFD0E2F
:10545000DBB0AC88DBA202D0AC8CAB8CDBB4AC8E06
:10546000DBA602D0AB8801D0AB8ADBB8AC849E98B7
:10547000DBBAAB86DBAC02D09D8A01D09D9A9E9AA6
:10548000DBAE02D09D8801D09D98FB0EDB50AF6E45
:10549000FB0EFC0EDBCF01F001C000F0016A0050F2
:1054A000B06EAC8AAB8E949C948EAC50100B04E022
:1054B000AC50800B01E1948CE552E5CFDAFFE7CFE9
:0454C000D9FF1200FE
:0C54C400D9CFE6FFDACFE6FFE1CFD9FF39
:1054D000E2CFDAFFFB0EDBCF00F0FC0EDBCF01F0FA
:1054E0000001800E01141AE1FB0EDBCFE9FFFC0E78
:1054F000DBCFEAFFEECFF3FFEDCFF4FFEE2A000E95
:10550000EF22F3CFE9FFF4CFEAFFFD0EDBCFEFFF91
:10551000EF50016AF36E01C0F4FF10D0FB0EDB50B8
:10552000FE0806E1FD0EDBCFE6FFE1EC2BF005D037
:10553000FD0EDBCFE6FFFDEC2BF0E552E552E5CFAB
:08554000DAFFE7CFD9FF1200EA
:0855480024502902F3CF20F0EA
:10555000F4CF21F02A02F3502126000EF420226E0F
:1055600024502B02F3502226000EF420236E2450E8
:105570002C02F350232625502902F3502126F45003
:105580002222000E232225502A02F3502226F45014
:10559000232225502B02F350232626502902F350B4
:1055A0002226F450232226502A02F3502326275085
:0855B0002902F350232612002A
:0855B800FE0EE3CFE9FFFF0E38
:1055C000E3CFEAFFF36AF46AEE5203E0F34AF42A07
:1055D000FBD71200FF0EE3CFF8FFE552FF0EE3CF3B
:1055E000F7FFE552FF0EE3CFF6FFE552E66AE66A03
:1055F000E66A0900F55209E0FD0EE32A05E1FE0E18
:10560000E32A02E1FF0EE32AF4D7FD0EE3CF25F0F3
:0E561000FE0EE3CF26F0FF0EE3CF27F01200D0
:02561E0014EC8A
:105620002CF05FEC2BF0AAEC28F02EEC28F0C4EC68
:105630002BF0DDEC25F01AEC00F089EC26F01AECEA
:105640001EF068EC0DF052EC21F00101F06B00014E
:10565000010EA56F0001A36F0001A46F0001AC5102
:10566000006E016A010E001801E1015002E1CCEC6C
:0656700028F0F4D712003F
:0A567600236A226A216A206A200ECE
:10568000E76ED89024362536263627362036213642
:10569000223623362950205C2A5021582B5022587C
:1056A0002C50235809E32950205E2A50215A2B50B0
:0E56B000225A2C50235A242AE72EE4D7120047
:0256BE00806A00
:1056C000896A070EC110C16E070EB46E9268816AB6
:1056D0008A6AC110C16E936A826A8B6A070E946EE1
:1056E000836A8C6A956A846A8D6AC110C16E070EDE
:0856F000B46E0F0E966E12005D
:0856F800236A226A100EE76E1E
:10570000D89026362736223623362B50225C2C5052
:10571000235805E32B50225E2C50235A262AE72ECD
:04572000F0D71200AC
:0C572400F36AF46AFF0EE124E96EFF0E48
:10573000E220EA6EED6607D02F0EEF6404D03A0E39
:08574000EF6001D0F32A120012
:08574800FF0EE350346E480E21
:1057500001D04C0EE76EE72EFED7E76AE72EFED7A4
:08576000342EF7D700001200FF
:08576800000EF36E00EE00F0EC
:10577000080E01D81200EA6002D0EE6AFCD7F3509E
:08578000E9601200EE6AFCD79B
:08578800D59ED59CD59AD59859
:10579000D586D594D592D590F80ED76E2F0ED66EAD
:0657A000F294D58E120008
:0A57A60013EE00F023EE00F0F86AA5
:1057B0001F9C82EC29F003EC00F00FEC2BF0FBD7E0
:0257C0001200D5
:0E57C200FF0EE350ACBA04D0AF6AAB8EAC8AD7
:0E57D000949CACA2FED7AD6EF36EF46A12008C
:0257DE00FF0EBC
:1057E000E350346E1B0E00D001D0200EE76EE72E82
:0A57F000FED7342EFAD700D01200C5
:0657FA00D9CFE6FFE1CF6C
:10580000D9FFFE0EDB50E66E06EC27F0E552E552BE
:06581000E7CFD9FF1200F2
:0A581600303132333435363738397B
:07582000616263646566002C
:08582800D390D382D388D38A08
:08583000D38CD39ED08E120030
:04583800280C010631
:04583C000000000068
:015840000067
:02584100FEFF68
:02584300000063
:020000040030CA
:0E000000008A1100FFF481FFFFFFFFFFFFFFEA
:00000001FF
